{
  "address": "0x2CC3574249B2De2a840444B3322Ac1F151cd56c5",
  "abi": [
    {
      "inputs": [],
      "stateMutability": "nonpayable",
      "type": "constructor"
    },
    {
      "anonymous": false,
      "inputs": [
        {
          "indexed": true,
          "internalType": "address",
          "name": "owner",
          "type": "address"
        },
        {
          "indexed": true,
          "internalType": "address",
          "name": "approved",
          "type": "address"
        },
        {
          "indexed": true,
          "internalType": "uint256",
          "name": "tokenId",
          "type": "uint256"
        }
      ],
      "name": "Approval",
      "type": "event"
    },
    {
      "anonymous": false,
      "inputs": [
        {
          "indexed": true,
          "internalType": "address",
          "name": "owner",
          "type": "address"
        },
        {
          "indexed": true,
          "internalType": "address",
          "name": "operator",
          "type": "address"
        },
        {
          "indexed": false,
          "internalType": "bool",
          "name": "approved",
          "type": "bool"
        }
      ],
      "name": "ApprovalForAll",
      "type": "event"
    },
    {
      "anonymous": false,
      "inputs": [
        {
          "indexed": true,
          "internalType": "address",
          "name": "from",
          "type": "address"
        },
        {
          "indexed": true,
          "internalType": "address",
          "name": "to",
          "type": "address"
        },
        {
          "indexed": true,
          "internalType": "uint256",
          "name": "tokenId",
          "type": "uint256"
        }
      ],
      "name": "Transfer",
      "type": "event"
    },
    {
      "inputs": [
        {
          "internalType": "address",
          "name": "to",
          "type": "address"
        },
        {
          "internalType": "uint256",
          "name": "tokenId",
          "type": "uint256"
        }
      ],
      "name": "approve",
      "outputs": [],
      "stateMutability": "nonpayable",
      "type": "function"
    },
    {
      "inputs": [
        {
          "internalType": "address",
          "name": "owner",
          "type": "address"
        }
      ],
      "name": "balanceOf",
      "outputs": [
        {
          "internalType": "uint256",
          "name": "",
          "type": "uint256"
        }
      ],
      "stateMutability": "view",
      "type": "function"
    },
    {
      "inputs": [
        {
          "internalType": "uint256",
          "name": "tokenId",
          "type": "uint256"
        }
      ],
      "name": "getApproved",
      "outputs": [
        {
          "internalType": "address",
          "name": "",
          "type": "address"
        }
      ],
      "stateMutability": "view",
      "type": "function"
    },
    {
      "inputs": [
        {
          "internalType": "uint256",
          "name": "tokenId",
          "type": "uint256"
        }
      ],
      "name": "inventor",
      "outputs": [
        {
          "internalType": "address",
          "name": "",
          "type": "address"
        }
      ],
      "stateMutability": "view",
      "type": "function"
    },
    {
      "inputs": [
        {
          "internalType": "address",
          "name": "owner",
          "type": "address"
        },
        {
          "internalType": "address",
          "name": "operator",
          "type": "address"
        }
      ],
      "name": "isApprovedForAll",
      "outputs": [
        {
          "internalType": "bool",
          "name": "",
          "type": "bool"
        }
      ],
      "stateMutability": "view",
      "type": "function"
    },
    {
      "inputs": [],
      "name": "name",
      "outputs": [
        {
          "internalType": "string",
          "name": "",
          "type": "string"
        }
      ],
      "stateMutability": "view",
      "type": "function"
    },
    {
      "inputs": [
        {
          "internalType": "uint256",
          "name": "tokenId",
          "type": "uint256"
        }
      ],
      "name": "ownerOf",
      "outputs": [
        {
          "internalType": "address",
          "name": "",
          "type": "address"
        }
      ],
      "stateMutability": "view",
      "type": "function"
    },
    {
      "inputs": [
        {
          "internalType": "uint256",
          "name": "tokenId",
          "type": "uint256"
        }
      ],
      "name": "royalty",
      "outputs": [
        {
          "internalType": "uint256",
          "name": "",
          "type": "uint256"
        }
      ],
      "stateMutability": "view",
      "type": "function"
    },
    {
      "inputs": [
        {
          "internalType": "string",
          "name": "_tokenURI",
          "type": "string"
        },
        {
          "internalType": "uint256",
          "name": "_royalty",
          "type": "uint256"
        }
      ],
      "name": "safeMint",
      "outputs": [],
      "stateMutability": "nonpayable",
      "type": "function"
    },
    {
      "inputs": [
        {
          "internalType": "address",
          "name": "from",
          "type": "address"
        },
        {
          "internalType": "address",
          "name": "to",
          "type": "address"
        },
        {
          "internalType": "uint256",
          "name": "tokenId",
          "type": "uint256"
        }
      ],
      "name": "safeTransferFrom",
      "outputs": [],
      "stateMutability": "nonpayable",
      "type": "function"
    },
    {
      "inputs": [
        {
          "internalType": "address",
          "name": "from",
          "type": "address"
        },
        {
          "internalType": "address",
          "name": "to",
          "type": "address"
        },
        {
          "internalType": "uint256",
          "name": "tokenId",
          "type": "uint256"
        },
        {
          "internalType": "bytes",
          "name": "_data",
          "type": "bytes"
        }
      ],
      "name": "safeTransferFrom",
      "outputs": [],
      "stateMutability": "nonpayable",
      "type": "function"
    },
    {
      "inputs": [
        {
          "internalType": "address",
          "name": "operator",
          "type": "address"
        },
        {
          "internalType": "bool",
          "name": "approved",
          "type": "bool"
        }
      ],
      "name": "setApprovalForAll",
      "outputs": [],
      "stateMutability": "nonpayable",
      "type": "function"
    },
    {
      "inputs": [
        {
          "internalType": "bytes4",
          "name": "interfaceId",
          "type": "bytes4"
        }
      ],
      "name": "supportsInterface",
      "outputs": [
        {
          "internalType": "bool",
          "name": "",
          "type": "bool"
        }
      ],
      "stateMutability": "view",
      "type": "function"
    },
    {
      "inputs": [],
      "name": "symbol",
      "outputs": [
        {
          "internalType": "string",
          "name": "",
          "type": "string"
        }
      ],
      "stateMutability": "view",
      "type": "function"
    },
    {
      "inputs": [
        {
          "internalType": "uint256",
          "name": "index",
          "type": "uint256"
        }
      ],
      "name": "tokenByIndex",
      "outputs": [
        {
          "internalType": "uint256",
          "name": "",
          "type": "uint256"
        }
      ],
      "stateMutability": "view",
      "type": "function"
    },
    {
      "inputs": [
        {
          "internalType": "address",
          "name": "owner",
          "type": "address"
        },
        {
          "internalType": "uint256",
          "name": "index",
          "type": "uint256"
        }
      ],
      "name": "tokenOfOwnerByIndex",
      "outputs": [
        {
          "internalType": "uint256",
          "name": "",
          "type": "uint256"
        }
      ],
      "stateMutability": "view",
      "type": "function"
    },
    {
      "inputs": [
        {
          "internalType": "uint256",
          "name": "tokenId",
          "type": "uint256"
        }
      ],
      "name": "tokenURI",
      "outputs": [
        {
          "internalType": "string",
          "name": "",
          "type": "string"
        }
      ],
      "stateMutability": "view",
      "type": "function"
    },
    {
      "inputs": [
        {
          "internalType": "uint256",
          "name": "",
          "type": "uint256"
        }
      ],
      "name": "tokenURIs",
      "outputs": [
        {
          "internalType": "string",
          "name": "",
          "type": "string"
        }
      ],
      "stateMutability": "view",
      "type": "function"
    },
    {
      "inputs": [],
      "name": "totalSupply",
      "outputs": [
        {
          "internalType": "uint256",
          "name": "",
          "type": "uint256"
        }
      ],
      "stateMutability": "view",
      "type": "function"
    },
    {
      "inputs": [
        {
          "internalType": "address",
          "name": "from",
          "type": "address"
        },
        {
          "internalType": "address",
          "name": "to",
          "type": "address"
        },
        {
          "internalType": "uint256",
          "name": "tokenId",
          "type": "uint256"
        }
      ],
      "name": "transferFrom",
      "outputs": [],
      "stateMutability": "nonpayable",
      "type": "function"
    }
  ],
  "transactionHash": "0x5f445df7274faa368ac1f626e5d1d2765fb8da409b585a00f2d944bf5e19fe13",
  "args": [],
  "solcInputHash": "515226c9b01302cdafbba88e77be63eb",
  "bytecode": "0x60806040523480156200001157600080fd5b50604080518082018252600e81526d20b93a1021b7b63632b1ba34b7b760911b602080830191825283518085019094526003845262105c9d60ea1b908401528151919291620000639160009162000082565b5080516200007990600190602084019062000082565b50505062000165565b828054620000909062000128565b90600052602060002090601f016020900481019282620000b45760008555620000ff565b82601f10620000cf57805160ff1916838001178555620000ff565b82800160010185558215620000ff579182015b82811115620000ff578251825591602001919060010190620000e2565b506200010d92915062000111565b5090565b5b808211156200010d576000815560010162000112565b6002810460018216806200013d57607f821691505b602082108114156200015f57634e487b7160e01b600052602260045260246000fd5b50919050565b611bdd80620001756000396000f3fe608060405234801561001057600080fd5b506004361061012c5760003560e01c80634f6ccce7116100ad578063a22cb46511610071578063a22cb4651461026c578063b88d4fde1461027f578063c87b56dd14610292578063e814cb71146102a5578063e985e9c5146102b85761012c565b80634f6ccce7146102185780636352211e1461022b5780636c8b703f1461023e57806370a082311461025157806395d89b41146102645761012c565b806323b872dd116100f457806323b872dd146101b95780632f745c59146101cc57806342842e0e146101df5780634586b3a1146101f257806346b145e1146102055761012c565b806301ffc9a71461013157806306fdde031461015a578063081812fc1461016f578063095ea7b31461018f57806318160ddd146101a4575b600080fd5b61014461013f366004611443565b6102cb565b6040516101519190611581565b60405180910390f35b6101626102de565b604051610151919061158c565b61018261017d3660046114d1565b610370565b6040516101519190611531565b6101a261019d36600461141a565b6103bc565b005b6101ac610454565b6040516101519190611ac3565b6101a26101c736600461132c565b61045a565b6101ac6101da36600461141a565b610492565b6101a26101ed36600461132c565b6104e4565b6101826102003660046114d1565b6104ff565b6101a261021336600461147b565b61051a565b6101ac6102263660046114d1565b61065c565b6101826102393660046114d1565b6106b7565b61016261024c3660046114d1565b6106ec565b6101ac61025f3660046112d9565b610798565b6101626107dc565b6101a261027a3660046113e0565b6107eb565b6101a261028d366004611367565b610801565b6101626102a03660046114d1565b610840565b6101ac6102b33660046114d1565b610905565b6101446102c63660046112fa565b610917565b60006102d682610945565b90505b919050565b6060600080546102ed90611b27565b80601f016020809104026020016040519081016040528092919081815260200182805461031990611b27565b80156103665780601f1061033b57610100808354040283529160200191610366565b820191906000526020600020905b81548152906001019060200180831161034957829003601f168201915b5050505050905090565b600061037b8261096a565b6103a05760405162461bcd60e51b8152600401610397906118a1565b60405180910390fd5b506000908152600460205260409020546001600160a01b031690565b60006103c7826106b7565b9050806001600160a01b0316836001600160a01b031614156103fb5760405162461bcd60e51b815260040161039790611993565b806001600160a01b031661040d610987565b6001600160a01b031614806104295750610429816102c6610987565b6104455760405162461bcd60e51b81526004016103979061177c565b61044f838361098b565b505050565b60085490565b61046b610465610987565b826109f9565b6104875760405162461bcd60e51b815260040161039790611a1a565b61044f838383610a7e565b600061049d83610798565b82106104bb5760405162461bcd60e51b81526004016103979061159f565b506001600160a01b03919091166000908152600660209081526040808320938352929052205490565b61044f83838360405180602001604052806000815250610801565b6000908152600e60205260409020546001600160a01b031690565b600b8260405161052a9190611515565b9081526040519081900360200190205460ff161561055a5760405162461bcd60e51b815260040161039790611745565b6103e8811115801561056a575060015b6105865760405162461bcd60e51b8152600401610397906119d4565b600a805460018101825560009190915282516105c9917fc65a7bb8d6351c1cf70c95a316cc6a92839c986682d98bc35f958f4883f9d2a8019060208501906111b9565b50600a546000818152600c6020908152604090912084516105ec928601906111b9565b506000818152600d60209081526040808320859055600e909152902080546001600160a01b031916339081179091556106259082610bab565b6001600b846040516106379190611515565b908152604051908190036020019020805491151560ff19909216919091179055505050565b6000610666610454565b82106106845760405162461bcd60e51b815260040161039790611a77565b600882815481106106a557634e487b7160e01b600052603260045260246000fd5b90600052602060002001549050919050565b6000818152600260205260408120546001600160a01b0316806102d65760405162461bcd60e51b815260040161039790611823565b600a81815481106106fc57600080fd5b90600052602060002001600091509050805461071790611b27565b80601f016020809104026020016040519081016040528092919081815260200182805461074390611b27565b80156107905780601f1061076557610100808354040283529160200191610790565b820191906000526020600020905b81548152906001019060200180831161077357829003601f168201915b505050505081565b60006001600160a01b0382166107c05760405162461bcd60e51b8152600401610397906117d9565b506001600160a01b031660009081526003602052604090205490565b6060600180546102ed90611b27565b6107fd6107f6610987565b8383610bc5565b5050565b61081261080c610987565b836109f9565b61082e5760405162461bcd60e51b815260040161039790611a1a565b61083a84848484610c68565b50505050565b606061084b8261096a565b6108675760405162461bcd60e51b815260040161039790611936565b6000828152600c60205260409020805461088090611b27565b80601f01602080910402602001604051908101604052809291908181526020018280546108ac90611b27565b80156108f95780601f106108ce576101008083540402835291602001916108f9565b820191906000526020600020905b8154815290600101906020018083116108dc57829003601f168201915b50505050509050919050565b6000908152600d602052604090205490565b6001600160a01b03918216600090815260056020908152604080832093909416825291909152205460ff1690565b60006001600160e01b0319821663780e9d6360e01b14806102d657506102d682610c9b565b6000908152600260205260409020546001600160a01b0316151590565b3390565b600081815260046020526040902080546001600160a01b0319166001600160a01b03841690811790915581906109c0826106b7565b6001600160a01b03167f8c5be1e5ebec7d5bd14f71427d1e84f3dd0314c0f7b2291e5b200ac8c7c3b92560405160405180910390a45050565b6000610a048261096a565b610a205760405162461bcd60e51b8152600401610397906116f9565b6000610a2b836106b7565b9050806001600160a01b0316846001600160a01b03161480610a665750836001600160a01b0316610a5b84610370565b6001600160a01b0316145b80610a765750610a768185610917565b949350505050565b826001600160a01b0316610a91826106b7565b6001600160a01b031614610ab75760405162461bcd60e51b8152600401610397906118ed565b6001600160a01b038216610add5760405162461bcd60e51b81526004016103979061167e565b610ae8838383610cdb565b610af360008261098b565b6001600160a01b0383166000908152600360205260408120805460019290610b1c908490611ae4565b90915550506001600160a01b0382166000908152600360205260408120805460019290610b4a908490611acc565b909155505060008181526002602052604080822080546001600160a01b0319166001600160a01b0386811691821790925591518493918716917fddf252ad1be2c89b69c2b068fc378daa952ba7f163c4a11628f55a4df523b3ef91a4505050565b6107fd828260405180602001604052806000815250610ce6565b816001600160a01b0316836001600160a01b03161415610bf75760405162461bcd60e51b8152600401610397906116c2565b6001600160a01b0383811660008181526005602090815260408083209487168084529490915290819020805460ff1916851515179055517f17307eab39ab6107e8899845ad3d59bd9653f200f220920489ca2b5937696c3190610c5b908590611581565b60405180910390a3505050565b610c73848484610a7e565b610c7f84848484610d19565b61083a5760405162461bcd60e51b8152600401610397906115ea565b60006001600160e01b031982166380ac58cd60e01b1480610ccc57506001600160e01b03198216635b5e139f60e01b145b806102d657506102d682610e34565b61044f838383610e4d565b610cf08383610ed6565b610cfd6000848484610d19565b61044f5760405162461bcd60e51b8152600401610397906115ea565b6000610d2d846001600160a01b0316610fb5565b15610e2957836001600160a01b031663150b7a02610d49610987565b8786866040518563ffffffff1660e01b8152600401610d6b9493929190611545565b602060405180830381600087803b158015610d8557600080fd5b505af1925050508015610db5575060408051601f3d908101601f19168201909252610db29181019061145f565b60015b610e0f573d808015610de3576040519150601f19603f3d011682016040523d82523d6000602084013e610de8565b606091505b508051610e075760405162461bcd60e51b8152600401610397906115ea565b805181602001fd5b6001600160e01b031916630a85bd0160e11b149050610a76565b506001949350505050565b6001600160e01b031981166301ffc9a760e01b14919050565b610e5883838361044f565b6001600160a01b038316610e7457610e6f81610fbb565b610e97565b816001600160a01b0316836001600160a01b031614610e9757610e978382610fff565b6001600160a01b038216610eb357610eae8161109c565b61044f565b826001600160a01b0316826001600160a01b03161461044f5761044f8282611175565b6001600160a01b038216610efc5760405162461bcd60e51b81526004016103979061186c565b610f058161096a565b15610f225760405162461bcd60e51b815260040161039790611647565b610f2e60008383610cdb565b6001600160a01b0382166000908152600360205260408120805460019290610f57908490611acc565b909155505060008181526002602052604080822080546001600160a01b0319166001600160a01b03861690811790915590518392907fddf252ad1be2c89b69c2b068fc378daa952ba7f163c4a11628f55a4df523b3ef908290a45050565b3b151590565b600880546000838152600960205260408120829055600182018355919091527ff3f7a9fe364faab93b216da50a3214154f22a0a2b415b23a84c8169e8b636ee30155565b6000600161100c84610798565b6110169190611ae4565b600083815260076020526040902054909150808214611069576001600160a01b03841660009081526006602090815260408083208584528252808320548484528184208190558352600790915290208190555b5060009182526007602090815260408084208490556001600160a01b039094168352600681528383209183525290812055565b6008546000906110ae90600190611ae4565b600083815260096020526040812054600880549394509092849081106110e457634e487b7160e01b600052603260045260246000fd5b90600052602060002001549050806008838154811061111357634e487b7160e01b600052603260045260246000fd5b600091825260208083209091019290925582815260099091526040808220849055858252812055600880548061115957634e487b7160e01b600052603160045260246000fd5b6001900381819060005260206000200160009055905550505050565b600061118083610798565b6001600160a01b039093166000908152600660209081526040808320868452825280832085905593825260079052919091209190915550565b8280546111c590611b27565b90600052602060002090601f0160209004810192826111e7576000855561122d565b82601f1061120057805160ff191683800117855561122d565b8280016001018555821561122d579182015b8281111561122d578251825591602001919060010190611212565b5061123992915061123d565b5090565b5b80821115611239576000815560010161123e565b600067ffffffffffffffff8084111561126d5761126d611b78565b604051601f8501601f19168101602001828111828210171561129157611291611b78565b6040528481529150818385018610156112a957600080fd5b8484602083013760006020868301015250509392505050565b80356001600160a01b03811681146102d957600080fd5b6000602082840312156112ea578081fd5b6112f3826112c2565b9392505050565b6000806040838503121561130c578081fd5b611315836112c2565b9150611323602084016112c2565b90509250929050565b600080600060608486031215611340578081fd5b611349846112c2565b9250611357602085016112c2565b9150604084013590509250925092565b6000806000806080858703121561137c578081fd5b611385856112c2565b9350611393602086016112c2565b925060408501359150606085013567ffffffffffffffff8111156113b5578182fd5b8501601f810187136113c5578182fd5b6113d487823560208401611252565b91505092959194509250565b600080604083850312156113f2578182fd5b6113fb836112c2565b91506020830135801515811461140f578182fd5b809150509250929050565b6000806040838503121561142c578182fd5b611435836112c2565b946020939093013593505050565b600060208284031215611454578081fd5b81356112f381611b8e565b600060208284031215611470578081fd5b81516112f381611b8e565b6000806040838503121561148d578182fd5b823567ffffffffffffffff8111156114a3578283fd5b8301601f810185136114b3578283fd5b6114c285823560208401611252565b95602094909401359450505050565b6000602082840312156114e2578081fd5b5035919050565b60008151808452611501816020860160208601611afb565b601f01601f19169290920160200192915050565b60008251611527818460208701611afb565b9190910192915050565b6001600160a01b0391909116815260200190565b60006001600160a01b0380871683528086166020840152508360408301526080606083015261157760808301846114e9565b9695505050505050565b901515815260200190565b6000602082526112f360208301846114e9565b6020808252602b908201527f455243373231456e756d657261626c653a206f776e657220696e646578206f7560408201526a74206f6620626f756e647360a81b606082015260800190565b60208082526032908201527f4552433732313a207472616e7366657220746f206e6f6e20455243373231526560408201527f63656976657220696d706c656d656e7465720000000000000000000000000000606082015260800190565b6020808252601c908201527f4552433732313a20746f6b656e20616c7265616479206d696e74656400000000604082015260600190565b60208082526024908201527f4552433732313a207472616e7366657220746f20746865207a65726f206164646040820152637265737360e01b606082015260800190565b60208082526019908201527f4552433732313a20617070726f766520746f2063616c6c657200000000000000604082015260600190565b6020808252602c908201527f4552433732313a206f70657261746f7220717565727920666f72206e6f6e657860408201526b34b9ba32b73a103a37b5b2b760a11b606082015260800190565b6020808252601e908201527f54686520746f6b656e205552492073686f756c6420626520756e697175650000604082015260600190565b60208082526038908201527f4552433732313a20617070726f76652063616c6c6572206973206e6f74206f7760408201527f6e6572206e6f7220617070726f76656420666f7220616c6c0000000000000000606082015260800190565b6020808252602a908201527f4552433732313a2062616c616e636520717565727920666f7220746865207a65604082015269726f206164647265737360b01b606082015260800190565b60208082526029908201527f4552433732313a206f776e657220717565727920666f72206e6f6e657869737460408201526832b73a103a37b5b2b760b91b606082015260800190565b6020808252818101527f4552433732313a206d696e7420746f20746865207a65726f2061646472657373604082015260600190565b6020808252602c908201527f4552433732313a20617070726f76656420717565727920666f72206e6f6e657860408201526b34b9ba32b73a103a37b5b2b760a11b606082015260800190565b60208082526029908201527f4552433732313a207472616e73666572206f6620746f6b656e2074686174206960408201526839903737ba1037bbb760b91b606082015260800190565b6020808252602f908201527f4552433732314d657461646174613a2055524920717565727920666f72206e6f60408201527f6e6578697374656e7420746f6b656e0000000000000000000000000000000000606082015260800190565b60208082526021908201527f4552433732313a20617070726f76616c20746f2063757272656e74206f776e656040820152603960f91b606082015260800190565b60208082526026908201527f526f79616c74792063616e206e6f742065786365656420313025206f72206e6560408201526567617469766560d01b606082015260800190565b60208082526031908201527f4552433732313a207472616e736665722063616c6c6572206973206e6f74206f60408201527f776e6572206e6f7220617070726f766564000000000000000000000000000000606082015260800190565b6020808252602c908201527f455243373231456e756d657261626c653a20676c6f62616c20696e646578206f60408201526b7574206f6620626f756e647360a01b606082015260800190565b90815260200190565b60008219821115611adf57611adf611b62565b500190565b600082821015611af657611af6611b62565b500390565b60005b83811015611b16578181015183820152602001611afe565b8381111561083a5750506000910152565b600281046001821680611b3b57607f821691505b60208210811415611b5c57634e487b7160e01b600052602260045260246000fd5b50919050565b634e487b7160e01b600052601160045260246000fd5b634e487b7160e01b600052604160045260246000fd5b6001600160e01b031981168114611ba457600080fd5b5056fea2646970667358221220c716e14ba274aa1249200ceb3105d37df58c33a534ae05955355229edf38025264736f6c63430008000033",
  "devdoc": {
    "kind": "dev",
    "methods": {
      "approve(address,uint256)": {
        "details": "See {IERC721-approve}."
      },
      "balanceOf(address)": {
        "details": "See {IERC721-balanceOf}."
      },
      "getApproved(uint256)": {
        "details": "See {IERC721-getApproved}."
      },
      "isApprovedForAll(address,address)": {
        "details": "See {IERC721-isApprovedForAll}."
      },
      "name()": {
        "details": "See {IERC721Metadata-name}."
      },
      "ownerOf(uint256)": {
        "details": "See {IERC721-ownerOf}."
      },
      "safeTransferFrom(address,address,uint256)": {
        "details": "See {IERC721-safeTransferFrom}."
      },
      "safeTransferFrom(address,address,uint256,bytes)": {
        "details": "See {IERC721-safeTransferFrom}."
      },
      "setApprovalForAll(address,bool)": {
        "details": "See {IERC721-setApprovalForAll}."
      },
      "symbol()": {
        "details": "See {IERC721Metadata-symbol}."
      },
      "tokenByIndex(uint256)": {
        "details": "See {IERC721Enumerable-tokenByIndex}."
      },
      "tokenOfOwnerByIndex(address,uint256)": {
        "details": "See {IERC721Enumerable-tokenOfOwnerByIndex}."
      },
      "tokenURI(uint256)": {
        "details": "See {IERC721Metadata-tokenURI}."
      },
      "totalSupply()": {
        "details": "See {IERC721Enumerable-totalSupply}."
      },
      "transferFrom(address,address,uint256)": {
        "details": "See {IERC721-transferFrom}."
      }
    },
    "version": 1
  },
  "userdoc": {
    "kind": "user",
    "methods": {},
    "version": 1
  },
  "storageLayout": {
    "storage": [
      {
        "astId": 25,
        "contract": "contracts/NFTCollection.sol:NFTCollection",
        "label": "_name",
        "offset": 0,
        "slot": "0",
        "type": "t_string_storage"
      },
      {
        "astId": 27,
        "contract": "contracts/NFTCollection.sol:NFTCollection",
        "label": "_symbol",
        "offset": 0,
        "slot": "1",
        "type": "t_string_storage"
      },
      {
        "astId": 31,
        "contract": "contracts/NFTCollection.sol:NFTCollection",
        "label": "_owners",
        "offset": 0,
        "slot": "2",
        "type": "t_mapping(t_uint256,t_address)"
      },
      {
        "astId": 35,
        "contract": "contracts/NFTCollection.sol:NFTCollection",
        "label": "_balances",
        "offset": 0,
        "slot": "3",
        "type": "t_mapping(t_address,t_uint256)"
      },
      {
        "astId": 39,
        "contract": "contracts/NFTCollection.sol:NFTCollection",
        "label": "_tokenApprovals",
        "offset": 0,
        "slot": "4",
        "type": "t_mapping(t_uint256,t_address)"
      },
      {
        "astId": 45,
        "contract": "contracts/NFTCollection.sol:NFTCollection",
        "label": "_operatorApprovals",
        "offset": 0,
        "slot": "5",
        "type": "t_mapping(t_address,t_mapping(t_address,t_bool))"
      },
      {
        "astId": 979,
        "contract": "contracts/NFTCollection.sol:NFTCollection",
        "label": "_ownedTokens",
        "offset": 0,
        "slot": "6",
        "type": "t_mapping(t_address,t_mapping(t_uint256,t_uint256))"
      },
      {
        "astId": 983,
        "contract": "contracts/NFTCollection.sol:NFTCollection",
        "label": "_ownedTokensIndex",
        "offset": 0,
        "slot": "7",
        "type": "t_mapping(t_uint256,t_uint256)"
      },
      {
        "astId": 986,
        "contract": "contracts/NFTCollection.sol:NFTCollection",
        "label": "_allTokens",
        "offset": 0,
        "slot": "8",
        "type": "t_array(t_uint256)dyn_storage"
      },
      {
        "astId": 990,
        "contract": "contracts/NFTCollection.sol:NFTCollection",
        "label": "_allTokensIndex",
        "offset": 0,
        "slot": "9",
        "type": "t_mapping(t_uint256,t_uint256)"
      },
      {
        "astId": 1929,
        "contract": "contracts/NFTCollection.sol:NFTCollection",
        "label": "tokenURIs",
        "offset": 0,
        "slot": "10",
        "type": "t_array(t_string_storage)dyn_storage"
      },
      {
        "astId": 1933,
        "contract": "contracts/NFTCollection.sol:NFTCollection",
        "label": "_tokenURIExists",
        "offset": 0,
        "slot": "11",
        "type": "t_mapping(t_string_memory_ptr,t_bool)"
      },
      {
        "astId": 1937,
        "contract": "contracts/NFTCollection.sol:NFTCollection",
        "label": "_tokenIdToTokenURI",
        "offset": 0,
        "slot": "12",
        "type": "t_mapping(t_uint256,t_string_storage)"
      },
      {
        "astId": 1941,
        "contract": "contracts/NFTCollection.sol:NFTCollection",
        "label": "_tokenIdToTokenRoyalty",
        "offset": 0,
        "slot": "13",
        "type": "t_mapping(t_uint256,t_uint256)"
      },
      {
        "astId": 1945,
        "contract": "contracts/NFTCollection.sol:NFTCollection",
        "label": "_tokenIdToTokenInventor",
        "offset": 0,
        "slot": "14",
        "type": "t_mapping(t_uint256,t_address)"
      }
    ],
    "types": {
      "t_address": {
        "encoding": "inplace",
        "label": "address",
        "numberOfBytes": "20"
      },
      "t_array(t_string_storage)dyn_storage": {
        "base": "t_string_storage",
        "encoding": "dynamic_array",
        "label": "string[]",
        "numberOfBytes": "32"
      },
      "t_array(t_uint256)dyn_storage": {
        "base": "t_uint256",
        "encoding": "dynamic_array",
        "label": "uint256[]",
        "numberOfBytes": "32"
      },
      "t_bool": {
        "encoding": "inplace",
        "label": "bool",
        "numberOfBytes": "1"
      },
      "t_mapping(t_address,t_bool)": {
        "encoding": "mapping",
        "key": "t_address",
        "label": "mapping(address => bool)",
        "numberOfBytes": "32",
        "value": "t_bool"
      },
      "t_mapping(t_address,t_mapping(t_address,t_bool))": {
        "encoding": "mapping",
        "key": "t_address",
        "label": "mapping(address => mapping(address => bool))",
        "numberOfBytes": "32",
        "value": "t_mapping(t_address,t_bool)"
      },
      "t_mapping(t_address,t_mapping(t_uint256,t_uint256))": {
        "encoding": "mapping",
        "key": "t_address",
        "label": "mapping(address => mapping(uint256 => uint256))",
        "numberOfBytes": "32",
        "value": "t_mapping(t_uint256,t_uint256)"
      },
      "t_mapping(t_address,t_uint256)": {
        "encoding": "mapping",
        "key": "t_address",
        "label": "mapping(address => uint256)",
        "numberOfBytes": "32",
        "value": "t_uint256"
      },
      "t_mapping(t_string_memory_ptr,t_bool)": {
        "encoding": "mapping",
        "key": "t_string_memory_ptr",
        "label": "mapping(string => bool)",
        "numberOfBytes": "32",
        "value": "t_bool"
      },
      "t_mapping(t_uint256,t_address)": {
        "encoding": "mapping",
        "key": "t_uint256",
        "label": "mapping(uint256 => address)",
        "numberOfBytes": "32",
        "value": "t_address"
      },
      "t_mapping(t_uint256,t_string_storage)": {
        "encoding": "mapping",
        "key": "t_uint256",
        "label": "mapping(uint256 => string)",
        "numberOfBytes": "32",
        "value": "t_string_storage"
      },
      "t_mapping(t_uint256,t_uint256)": {
        "encoding": "mapping",
        "key": "t_uint256",
        "label": "mapping(uint256 => uint256)",
        "numberOfBytes": "32",
        "value": "t_uint256"
      },
      "t_string_memory_ptr": {
        "encoding": "bytes",
        "label": "string",
        "numberOfBytes": "32"
      },
      "t_string_storage": {
        "encoding": "bytes",
        "label": "string",
        "numberOfBytes": "32"
      },
      "t_uint256": {
        "encoding": "inplace",
        "label": "uint256",
        "numberOfBytes": "32"
      }
    }
  }
}