{
  "contractName": "NFTCollection",
  "abi": [
    {
      "inputs": [],
      "stateMutability": "nonpayable",
      "type": "constructor"
    },
    {
      "anonymous": false,
      "inputs": [
        {
          "indexed": true,
          "internalType": "address",
          "name": "owner",
          "type": "address"
        },
        {
          "indexed": true,
          "internalType": "address",
          "name": "approved",
          "type": "address"
        },
        {
          "indexed": true,
          "internalType": "uint256",
          "name": "tokenId",
          "type": "uint256"
        }
      ],
      "name": "Approval",
      "type": "event"
    },
    {
      "anonymous": false,
      "inputs": [
        {
          "indexed": true,
          "internalType": "address",
          "name": "owner",
          "type": "address"
        },
        {
          "indexed": true,
          "internalType": "address",
          "name": "operator",
          "type": "address"
        },
        {
          "indexed": false,
          "internalType": "bool",
          "name": "approved",
          "type": "bool"
        }
      ],
      "name": "ApprovalForAll",
      "type": "event"
    },
    {
      "anonymous": false,
      "inputs": [
        {
          "indexed": true,
          "internalType": "address",
          "name": "from",
          "type": "address"
        },
        {
          "indexed": true,
          "internalType": "address",
          "name": "to",
          "type": "address"
        },
        {
          "indexed": true,
          "internalType": "uint256",
          "name": "tokenId",
          "type": "uint256"
        }
      ],
      "name": "Transfer",
      "type": "event"
    },
    {
      "inputs": [
        {
          "internalType": "address",
          "name": "to",
          "type": "address"
        },
        {
          "internalType": "uint256",
          "name": "tokenId",
          "type": "uint256"
        }
      ],
      "name": "approve",
      "outputs": [],
      "stateMutability": "nonpayable",
      "type": "function"
    },
    {
      "inputs": [
        {
          "internalType": "address",
          "name": "owner",
          "type": "address"
        }
      ],
      "name": "balanceOf",
      "outputs": [
        {
          "internalType": "uint256",
          "name": "",
          "type": "uint256"
        }
      ],
      "stateMutability": "view",
      "type": "function",
      "constant": true
    },
    {
      "inputs": [
        {
          "internalType": "uint256",
          "name": "tokenId",
          "type": "uint256"
        }
      ],
      "name": "getApproved",
      "outputs": [
        {
          "internalType": "address",
          "name": "",
          "type": "address"
        }
      ],
      "stateMutability": "view",
      "type": "function",
      "constant": true
    },
    {
      "inputs": [
        {
          "internalType": "address",
          "name": "owner",
          "type": "address"
        },
        {
          "internalType": "address",
          "name": "operator",
          "type": "address"
        }
      ],
      "name": "isApprovedForAll",
      "outputs": [
        {
          "internalType": "bool",
          "name": "",
          "type": "bool"
        }
      ],
      "stateMutability": "view",
      "type": "function",
      "constant": true
    },
    {
      "inputs": [],
      "name": "name",
      "outputs": [
        {
          "internalType": "string",
          "name": "",
          "type": "string"
        }
      ],
      "stateMutability": "view",
      "type": "function",
      "constant": true
    },
    {
      "inputs": [
        {
          "internalType": "uint256",
          "name": "tokenId",
          "type": "uint256"
        }
      ],
      "name": "ownerOf",
      "outputs": [
        {
          "internalType": "address",
          "name": "",
          "type": "address"
        }
      ],
      "stateMutability": "view",
      "type": "function",
      "constant": true
    },
    {
      "inputs": [
        {
          "internalType": "address",
          "name": "from",
          "type": "address"
        },
        {
          "internalType": "address",
          "name": "to",
          "type": "address"
        },
        {
          "internalType": "uint256",
          "name": "tokenId",
          "type": "uint256"
        }
      ],
      "name": "safeTransferFrom",
      "outputs": [],
      "stateMutability": "nonpayable",
      "type": "function"
    },
    {
      "inputs": [
        {
          "internalType": "address",
          "name": "from",
          "type": "address"
        },
        {
          "internalType": "address",
          "name": "to",
          "type": "address"
        },
        {
          "internalType": "uint256",
          "name": "tokenId",
          "type": "uint256"
        },
        {
          "internalType": "bytes",
          "name": "_data",
          "type": "bytes"
        }
      ],
      "name": "safeTransferFrom",
      "outputs": [],
      "stateMutability": "nonpayable",
      "type": "function"
    },
    {
      "inputs": [
        {
          "internalType": "address",
          "name": "operator",
          "type": "address"
        },
        {
          "internalType": "bool",
          "name": "approved",
          "type": "bool"
        }
      ],
      "name": "setApprovalForAll",
      "outputs": [],
      "stateMutability": "nonpayable",
      "type": "function"
    },
    {
      "inputs": [],
      "name": "symbol",
      "outputs": [
        {
          "internalType": "string",
          "name": "",
          "type": "string"
        }
      ],
      "stateMutability": "view",
      "type": "function",
      "constant": true
    },
    {
      "inputs": [
        {
          "internalType": "uint256",
          "name": "index",
          "type": "uint256"
        }
      ],
      "name": "tokenByIndex",
      "outputs": [
        {
          "internalType": "uint256",
          "name": "",
          "type": "uint256"
        }
      ],
      "stateMutability": "view",
      "type": "function",
      "constant": true
    },
    {
      "inputs": [
        {
          "internalType": "address",
          "name": "owner",
          "type": "address"
        },
        {
          "internalType": "uint256",
          "name": "index",
          "type": "uint256"
        }
      ],
      "name": "tokenOfOwnerByIndex",
      "outputs": [
        {
          "internalType": "uint256",
          "name": "",
          "type": "uint256"
        }
      ],
      "stateMutability": "view",
      "type": "function",
      "constant": true
    },
    {
      "inputs": [
        {
          "internalType": "uint256",
          "name": "",
          "type": "uint256"
        }
      ],
      "name": "tokenURIs",
      "outputs": [
        {
          "internalType": "string",
          "name": "",
          "type": "string"
        }
      ],
      "stateMutability": "view",
      "type": "function",
      "constant": true
    },
    {
      "inputs": [],
      "name": "totalSupply",
      "outputs": [
        {
          "internalType": "uint256",
          "name": "",
          "type": "uint256"
        }
      ],
      "stateMutability": "view",
      "type": "function",
      "constant": true
    },
    {
      "inputs": [
        {
          "internalType": "address",
          "name": "from",
          "type": "address"
        },
        {
          "internalType": "address",
          "name": "to",
          "type": "address"
        },
        {
          "internalType": "uint256",
          "name": "tokenId",
          "type": "uint256"
        }
      ],
      "name": "transferFrom",
      "outputs": [],
      "stateMutability": "nonpayable",
      "type": "function"
    },
    {
      "inputs": [
        {
          "internalType": "bytes4",
          "name": "interfaceId",
          "type": "bytes4"
        }
      ],
      "name": "supportsInterface",
      "outputs": [
        {
          "internalType": "bool",
          "name": "",
          "type": "bool"
        }
      ],
      "stateMutability": "view",
      "type": "function",
      "constant": true
    },
    {
      "inputs": [
        {
          "internalType": "uint256",
          "name": "tokenId",
          "type": "uint256"
        }
      ],
      "name": "tokenURI",
      "outputs": [
        {
          "internalType": "string",
          "name": "",
          "type": "string"
        }
      ],
      "stateMutability": "view",
      "type": "function",
      "constant": true
    },
    {
      "inputs": [
        {
          "internalType": "string",
          "name": "_tokenURI",
          "type": "string"
        },
        {
          "internalType": "uint256",
          "name": "_royalty",
          "type": "uint256"
        }
      ],
      "name": "safeMint",
      "outputs": [],
      "stateMutability": "nonpayable",
      "type": "function"
    },
    {
      "inputs": [
        {
          "internalType": "uint256",
          "name": "tokenId",
          "type": "uint256"
        }
      ],
      "name": "royalty",
      "outputs": [
        {
          "internalType": "uint256",
          "name": "",
          "type": "uint256"
        }
      ],
      "stateMutability": "view",
      "type": "function",
      "constant": true
    },
    {
      "inputs": [
        {
          "internalType": "uint256",
          "name": "tokenId",
          "type": "uint256"
        }
      ],
      "name": "inventor",
      "outputs": [
        {
          "internalType": "address",
          "name": "",
          "type": "address"
        }
      ],
      "stateMutability": "view",
      "type": "function",
      "constant": true
    }
  ],
  "bytecode": "0x60806040523480156200001157600080fd5b506040518060400160405280600e81526020017f41727420436f6c6c656374696f6e0000000000000000000000000000000000008152506040518060400160405280600381526020017f4172740000000000000000000000000000000000000000000000000000000000815250816000908051906020019062000096929190620000b8565b508060019080519060200190620000af929190620000b8565b505050620001cd565b828054620000c69062000197565b90600052602060002090601f016020900481019282620000ea576000855562000136565b82601f106200010557805160ff191683800117855562000136565b8280016001018555821562000136579182015b828111156200013557825182559160200191906001019062000118565b5b50905062000145919062000149565b5090565b5b80821115620001645760008160009055506001016200014a565b5090565b7f4e487b7100000000000000000000000000000000000000000000000000000000600052602260045260246000fd5b60006002820490506001821680620001b057607f821691505b60208210811415620001c757620001c662000168565b5b50919050565b61321280620001dd6000396000f3fe608060405234801561001057600080fd5b506004361061012c5760003560e01c80634f6ccce7116100ad578063a22cb46511610071578063a22cb4651461037b578063b88d4fde14610397578063c87b56dd146103b3578063e814cb71146103e3578063e985e9c5146104135761012c565b80634f6ccce71461029d5780636352211e146102cd5780636c8b703f146102fd57806370a082311461032d57806395d89b411461035d5761012c565b806323b872dd116100f457806323b872dd146101e95780632f745c591461020557806342842e0e146102355780634586b3a11461025157806346b145e1146102815761012c565b806301ffc9a71461013157806306fdde0314610161578063081812fc1461017f578063095ea7b3146101af57806318160ddd146101cb575b600080fd5b61014b60048036038101906101469190611fc0565b610443565b6040516101589190612008565b60405180910390f35b610169610455565b60405161017691906120bc565b60405180910390f35b61019960048036038101906101949190612114565b6104e7565b6040516101a69190612182565b60405180910390f35b6101c960048036038101906101c491906121c9565b61056c565b005b6101d3610684565b6040516101e09190612218565b60405180910390f35b61020360048036038101906101fe9190612233565b610691565b005b61021f600480360381019061021a91906121c9565b6106f1565b60405161022c9190612218565b60405180910390f35b61024f600480360381019061024a9190612233565b610796565b005b61026b60048036038101906102669190612114565b6107b6565b6040516102789190612182565b60405180910390f35b61029b600480360381019061029691906123bb565b6107f3565b005b6102b760048036038101906102b29190612114565b61097d565b6040516102c49190612218565b60405180910390f35b6102e760048036038101906102e29190612114565b6109ee565b6040516102f49190612182565b60405180910390f35b61031760048036038101906103129190612114565b610aa0565b60405161032491906120bc565b60405180910390f35b61034760048036038101906103429190612417565b610b4c565b6040516103549190612218565b60405180910390f35b610365610c04565b60405161037291906120bc565b60405180910390f35b61039560048036038101906103909190612470565b610c96565b005b6103b160048036038101906103ac9190612551565b610e17565b005b6103cd60048036038101906103c89190612114565b610e79565b6040516103da91906120bc565b60405180910390f35b6103fd60048036038101906103f89190612114565b610f66565b60405161040a9190612218565b60405180910390f35b61042d600480360381019061042891906125d4565b610f83565b60405161043a9190612008565b60405180910390f35b600061044e82611017565b9050919050565b60606000805461046490612643565b80601f016020809104026020016040519081016040528092919081815260200182805461049090612643565b80156104dd5780601f106104b2576101008083540402835291602001916104dd565b820191906000526020600020905b8154815290600101906020018083116104c057829003601f168201915b5050505050905090565b60006104f282611091565b610531576040517f08c379a0000000000000000000000000000000000000000000000000000000008152600401610528906126e7565b60405180910390fd5b6004600083815260200190815260200160002060009054906101000a900473ffffffffffffffffffffffffffffffffffffffff169050919050565b6000610577826109ee565b90508073ffffffffffffffffffffffffffffffffffffffff168373ffffffffffffffffffffffffffffffffffffffff1614156105e8576040517f08c379a00000000000000000000000000000000000000000000000000000000081526004016105df90612779565b60405180910390fd5b8073ffffffffffffffffffffffffffffffffffffffff166106076110fd565b73ffffffffffffffffffffffffffffffffffffffff1614806106365750610635816106306110fd565b610f83565b5b610675576040517f08c379a000000000000000000000000000000000000000000000000000000000815260040161066c9061280b565b60405180910390fd5b61067f8383611105565b505050565b6000600880549050905090565b6106a261069c6110fd565b826111be565b6106e1576040517f08c379a00000000000000000000000000000000000000000000000000000000081526004016106d89061289d565b60405180910390fd5b6106ec83838361129c565b505050565b60006106fc83610b4c565b821061073d576040517f08c379a00000000000000000000000000000000000000000000000000000000081526004016107349061292f565b60405180910390fd5b600660008473ffffffffffffffffffffffffffffffffffffffff1673ffffffffffffffffffffffffffffffffffffffff168152602001908152602001600020600083815260200190815260200160002054905092915050565b6107b183838360405180602001604052806000815250610e17565b505050565b6000600e600083815260200190815260200160002060009054906101000a900473ffffffffffffffffffffffffffffffffffffffff169050919050565b600b82604051610803919061298b565b908152602001604051809103902060009054906101000a900460ff161561085f576040517f08c379a0000000000000000000000000000000000000000000000000000000008152600401610856906129ee565b60405180910390fd5b600a8290806001815401808255809150506001900390600052602060002001600090919091909150908051906020019061089a929190611eb1565b506000600a80549050905082600c600083815260200190815260200160002090805190602001906108cc929190611eb1565b5081600d60008381526020019081526020016000208190555033600e600083815260200190815260200160002060006101000a81548173ffffffffffffffffffffffffffffffffffffffff021916908373ffffffffffffffffffffffffffffffffffffffff16021790555061094133826114f8565b6001600b84604051610953919061298b565b908152602001604051809103902060006101000a81548160ff021916908315150217905550505050565b6000610987610684565b82106109c8576040517f08c379a00000000000000000000000000000000000000000000000000000000081526004016109bf90612a80565b60405180910390fd5b600882815481106109dc576109db612aa0565b5b90600052602060002001549050919050565b6000806002600084815260200190815260200160002060009054906101000a900473ffffffffffffffffffffffffffffffffffffffff169050600073ffffffffffffffffffffffffffffffffffffffff168173ffffffffffffffffffffffffffffffffffffffff161415610a97576040517f08c379a0000000000000000000000000000000000000000000000000000000008152600401610a8e90612b41565b60405180910390fd5b80915050919050565b600a8181548110610ab057600080fd5b906000526020600020016000915090508054610acb90612643565b80601f0160208091040260200160405190810160405280929190818152602001828054610af790612643565b8015610b445780601f10610b1957610100808354040283529160200191610b44565b820191906000526020600020905b815481529060010190602001808311610b2757829003601f168201915b505050505081565b60008073ffffffffffffffffffffffffffffffffffffffff168273ffffffffffffffffffffffffffffffffffffffff161415610bbd576040517f08c379a0000000000000000000000000000000000000000000000000000000008152600401610bb490612bd3565b60405180910390fd5b600360008373ffffffffffffffffffffffffffffffffffffffff1673ffffffffffffffffffffffffffffffffffffffff168152602001908152602001600020549050919050565b606060018054610c1390612643565b80601f0160208091040260200160405190810160405280929190818152602001828054610c3f90612643565b8015610c8c5780601f10610c6157610100808354040283529160200191610c8c565b820191906000526020600020905b815481529060010190602001808311610c6f57829003601f168201915b5050505050905090565b610c9e6110fd565b73ffffffffffffffffffffffffffffffffffffffff168273ffffffffffffffffffffffffffffffffffffffff161415610d0c576040517f08c379a0000000000000000000000000000000000000000000000000000000008152600401610d0390612c3f565b60405180910390fd5b8060056000610d196110fd565b73ffffffffffffffffffffffffffffffffffffffff1673ffffffffffffffffffffffffffffffffffffffff16815260200190815260200160002060008473ffffffffffffffffffffffffffffffffffffffff1673ffffffffffffffffffffffffffffffffffffffff16815260200190815260200160002060006101000a81548160ff0219169083151502179055508173ffffffffffffffffffffffffffffffffffffffff16610dc66110fd565b73ffffffffffffffffffffffffffffffffffffffff167f17307eab39ab6107e8899845ad3d59bd9653f200f220920489ca2b5937696c3183604051610e0b9190612008565b60405180910390a35050565b610e28610e226110fd565b836111be565b610e67576040517f08c379a0000000000000000000000000000000000000000000000000000000008152600401610e5e9061289d565b60405180910390fd5b610e7384848484611516565b50505050565b6060610e8482611091565b610ec3576040517f08c379a0000000000000000000000000000000000000000000000000000000008152600401610eba90612cd1565b60405180910390fd5b600c60008381526020019081526020016000208054610ee190612643565b80601f0160208091040260200160405190810160405280929190818152602001828054610f0d90612643565b8015610f5a5780601f10610f2f57610100808354040283529160200191610f5a565b820191906000526020600020905b815481529060010190602001808311610f3d57829003601f168201915b50505050509050919050565b6000600d6000838152602001908152602001600020549050919050565b6000600560008473ffffffffffffffffffffffffffffffffffffffff1673ffffffffffffffffffffffffffffffffffffffff16815260200190815260200160002060008373ffffffffffffffffffffffffffffffffffffffff1673ffffffffffffffffffffffffffffffffffffffff16815260200190815260200160002060009054906101000a900460ff16905092915050565b60007f780e9d63000000000000000000000000000000000000000000000000000000007bffffffffffffffffffffffffffffffffffffffffffffffffffffffff1916827bffffffffffffffffffffffffffffffffffffffffffffffffffffffff1916148061108a575061108982611572565b5b9050919050565b60008073ffffffffffffffffffffffffffffffffffffffff166002600084815260200190815260200160002060009054906101000a900473ffffffffffffffffffffffffffffffffffffffff1673ffffffffffffffffffffffffffffffffffffffff1614159050919050565b600033905090565b816004600083815260200190815260200160002060006101000a81548173ffffffffffffffffffffffffffffffffffffffff021916908373ffffffffffffffffffffffffffffffffffffffff160217905550808273ffffffffffffffffffffffffffffffffffffffff16611178836109ee565b73ffffffffffffffffffffffffffffffffffffffff167f8c5be1e5ebec7d5bd14f71427d1e84f3dd0314c0f7b2291e5b200ac8c7c3b92560405160405180910390a45050565b60006111c982611091565b611208576040517f08c379a00000000000000000000000000000000000000000000000000000000081526004016111ff90612d63565b60405180910390fd5b6000611213836109ee565b90508073ffffffffffffffffffffffffffffffffffffffff168473ffffffffffffffffffffffffffffffffffffffff16148061128257508373ffffffffffffffffffffffffffffffffffffffff1661126a846104e7565b73ffffffffffffffffffffffffffffffffffffffff16145b8061129357506112928185610f83565b5b91505092915050565b8273ffffffffffffffffffffffffffffffffffffffff166112bc826109ee565b73ffffffffffffffffffffffffffffffffffffffff1614611312576040517f08c379a000000000000000000000000000000000000000000000000000000000815260040161130990612df5565b60405180910390fd5b600073ffffffffffffffffffffffffffffffffffffffff168273ffffffffffffffffffffffffffffffffffffffff161415611382576040517f08c379a000000000000000000000000000000000000000000000000000000000815260040161137990612e87565b60405180910390fd5b61138d838383611654565b611398600082611105565b6001600360008573ffffffffffffffffffffffffffffffffffffffff1673ffffffffffffffffffffffffffffffffffffffff16815260200190815260200160002060008282546113e89190612ed6565b925050819055506001600360008473ffffffffffffffffffffffffffffffffffffffff1673ffffffffffffffffffffffffffffffffffffffff168152602001908152602001600020600082825461143f9190612f0a565b92505081905550816002600083815260200190815260200160002060006101000a81548173ffffffffffffffffffffffffffffffffffffffff021916908373ffffffffffffffffffffffffffffffffffffffff160217905550808273ffffffffffffffffffffffffffffffffffffffff168473ffffffffffffffffffffffffffffffffffffffff167fddf252ad1be2c89b69c2b068fc378daa952ba7f163c4a11628f55a4df523b3ef60405160405180910390a4505050565b611512828260405180602001604052806000815250611664565b5050565b61152184848461129c565b61152d848484846116bf565b61156c576040517f08c379a000000000000000000000000000000000000000000000000000000000815260040161156390612fd2565b60405180910390fd5b50505050565b60007f80ac58cd000000000000000000000000000000000000000000000000000000007bffffffffffffffffffffffffffffffffffffffffffffffffffffffff1916827bffffffffffffffffffffffffffffffffffffffffffffffffffffffff1916148061163d57507f5b5e139f000000000000000000000000000000000000000000000000000000007bffffffffffffffffffffffffffffffffffffffffffffffffffffffff1916827bffffffffffffffffffffffffffffffffffffffffffffffffffffffff1916145b8061164d575061164c82611847565b5b9050919050565b61165f8383836118b1565b505050565b61166e83836119c5565b61167b60008484846116bf565b6116ba576040517f08c379a00000000000000000000000000000000000000000000000000000000081526004016116b190612fd2565b60405180910390fd5b505050565b60006116e08473ffffffffffffffffffffffffffffffffffffffff16611b93565b1561183a578373ffffffffffffffffffffffffffffffffffffffff1663150b7a026117096110fd565b8786866040518563ffffffff1660e01b815260040161172b9493929190613047565b6020604051808303816000875af192505050801561176757506040513d601f19601f8201168201806040525081019061176491906130a8565b60015b6117ea573d8060008114611797576040519150601f19603f3d011682016040523d82523d6000602084013e61179c565b606091505b506000815114156117e2576040517f08c379a00000000000000000000000000000000000000000000000000000000081526004016117d990612fd2565b60405180910390fd5b805181602001fd5b63150b7a0260e01b7bffffffffffffffffffffffffffffffffffffffffffffffffffffffff1916817bffffffffffffffffffffffffffffffffffffffffffffffffffffffff19161491505061183f565b600190505b949350505050565b60007f01ffc9a7000000000000000000000000000000000000000000000000000000007bffffffffffffffffffffffffffffffffffffffffffffffffffffffff1916827bffffffffffffffffffffffffffffffffffffffffffffffffffffffff1916149050919050565b6118bc838383611ba6565b600073ffffffffffffffffffffffffffffffffffffffff168373ffffffffffffffffffffffffffffffffffffffff1614156118ff576118fa81611bab565b61193e565b8173ffffffffffffffffffffffffffffffffffffffff168373ffffffffffffffffffffffffffffffffffffffff161461193d5761193c8382611bf4565b5b5b600073ffffffffffffffffffffffffffffffffffffffff168273ffffffffffffffffffffffffffffffffffffffff1614156119815761197c81611d61565b6119c0565b8273ffffffffffffffffffffffffffffffffffffffff168273ffffffffffffffffffffffffffffffffffffffff16146119bf576119be8282611e32565b5b5b505050565b600073ffffffffffffffffffffffffffffffffffffffff168273ffffffffffffffffffffffffffffffffffffffff161415611a35576040517f08c379a0000000000000000000000000000000000000000000000000000000008152600401611a2c90613121565b60405180910390fd5b611a3e81611091565b15611a7e576040517f08c379a0000000000000000000000000000000000000000000000000000000008152600401611a759061318d565b60405180910390fd5b611a8a60008383611654565b6001600360008473ffffffffffffffffffffffffffffffffffffffff1673ffffffffffffffffffffffffffffffffffffffff1681526020019081526020016000206000828254611ada9190612f0a565b92505081905550816002600083815260200190815260200160002060006101000a81548173ffffffffffffffffffffffffffffffffffffffff021916908373ffffffffffffffffffffffffffffffffffffffff160217905550808273ffffffffffffffffffffffffffffffffffffffff16600073ffffffffffffffffffffffffffffffffffffffff167fddf252ad1be2c89b69c2b068fc378daa952ba7f163c4a11628f55a4df523b3ef60405160405180910390a45050565b600080823b905060008111915050919050565b505050565b6008805490506009600083815260200190815260200160002081905550600881908060018154018082558091505060019003906000526020600020016000909190919091505550565b60006001611c0184610b4c565b611c0b9190612ed6565b9050600060076000848152602001908152602001600020549050818114611cf0576000600660008673ffffffffffffffffffffffffffffffffffffffff1673ffffffffffffffffffffffffffffffffffffffff168152602001908152602001600020600084815260200190815260200160002054905080600660008773ffffffffffffffffffffffffffffffffffffffff1673ffffffffffffffffffffffffffffffffffffffff168152602001908152602001600020600084815260200190815260200160002081905550816007600083815260200190815260200160002081905550505b6007600084815260200190815260200160002060009055600660008573ffffffffffffffffffffffffffffffffffffffff1673ffffffffffffffffffffffffffffffffffffffff16815260200190815260200160002060008381526020019081526020016000206000905550505050565b60006001600880549050611d759190612ed6565b9050600060096000848152602001908152602001600020549050600060088381548110611da557611da4612aa0565b5b906000526020600020015490508060088381548110611dc757611dc6612aa0565b5b906000526020600020018190555081600960008381526020019081526020016000208190555060096000858152602001908152602001600020600090556008805480611e1657611e156131ad565b5b6001900381819060005260206000200160009055905550505050565b6000611e3d83610b4c565b905081600660008573ffffffffffffffffffffffffffffffffffffffff1673ffffffffffffffffffffffffffffffffffffffff168152602001908152602001600020600083815260200190815260200160002081905550806007600084815260200190815260200160002081905550505050565b828054611ebd90612643565b90600052602060002090601f016020900481019282611edf5760008555611f26565b82601f10611ef857805160ff1916838001178555611f26565b82800160010185558215611f26579182015b82811115611f25578251825591602001919060010190611f0a565b5b509050611f339190611f37565b5090565b5b80821115611f50576000816000905550600101611f38565b5090565b6000604051905090565b600080fd5b600080fd5b60007fffffffff0000000000000000000000000000000000000000000000000000000082169050919050565b611f9d81611f68565b8114611fa857600080fd5b50565b600081359050611fba81611f94565b92915050565b600060208284031215611fd657611fd5611f5e565b5b6000611fe484828501611fab565b91505092915050565b60008115159050919050565b61200281611fed565b82525050565b600060208201905061201d6000830184611ff9565b92915050565b600081519050919050565b600082825260208201905092915050565b60005b8381101561205d578082015181840152602081019050612042565b8381111561206c576000848401525b50505050565b6000601f19601f8301169050919050565b600061208e82612023565b612098818561202e565b93506120a881856020860161203f565b6120b181612072565b840191505092915050565b600060208201905081810360008301526120d68184612083565b905092915050565b6000819050919050565b6120f1816120de565b81146120fc57600080fd5b50565b60008135905061210e816120e8565b92915050565b60006020828403121561212a57612129611f5e565b5b6000612138848285016120ff565b91505092915050565b600073ffffffffffffffffffffffffffffffffffffffff82169050919050565b600061216c82612141565b9050919050565b61217c81612161565b82525050565b60006020820190506121976000830184612173565b92915050565b6121a681612161565b81146121b157600080fd5b50565b6000813590506121c38161219d565b92915050565b600080604083850312156121e0576121df611f5e565b5b60006121ee858286016121b4565b92505060206121ff858286016120ff565b9150509250929050565b612212816120de565b82525050565b600060208201905061222d6000830184612209565b92915050565b60008060006060848603121561224c5761224b611f5e565b5b600061225a868287016121b4565b935050602061226b868287016121b4565b925050604061227c868287016120ff565b9150509250925092565b600080fd5b600080fd5b7f4e487b7100000000000000000000000000000000000000000000000000000000600052604160045260246000fd5b6122c882612072565b810181811067ffffffffffffffff821117156122e7576122e6612290565b5b80604052505050565b60006122fa611f54565b905061230682826122bf565b919050565b600067ffffffffffffffff82111561232657612325612290565b5b61232f82612072565b9050602081019050919050565b82818337600083830152505050565b600061235e6123598461230b565b6122f0565b90508281526020810184848401111561237a5761237961228b565b5b61238584828561233c565b509392505050565b600082601f8301126123a2576123a1612286565b5b81356123b284826020860161234b565b91505092915050565b600080604083850312156123d2576123d1611f5e565b5b600083013567ffffffffffffffff8111156123f0576123ef611f63565b5b6123fc8582860161238d565b925050602061240d858286016120ff565b9150509250929050565b60006020828403121561242d5761242c611f5e565b5b600061243b848285016121b4565b91505092915050565b61244d81611fed565b811461245857600080fd5b50565b60008135905061246a81612444565b92915050565b6000806040838503121561248757612486611f5e565b5b6000612495858286016121b4565b92505060206124a68582860161245b565b9150509250929050565b600067ffffffffffffffff8211156124cb576124ca612290565b5b6124d482612072565b9050602081019050919050565b60006124f46124ef846124b0565b6122f0565b9050828152602081018484840111156125105761250f61228b565b5b61251b84828561233c565b509392505050565b600082601f83011261253857612537612286565b5b81356125488482602086016124e1565b91505092915050565b6000806000806080858703121561256b5761256a611f5e565b5b6000612579878288016121b4565b945050602061258a878288016121b4565b935050604061259b878288016120ff565b925050606085013567ffffffffffffffff8111156125bc576125bb611f63565b5b6125c887828801612523565b91505092959194509250565b600080604083850312156125eb576125ea611f5e565b5b60006125f9858286016121b4565b925050602061260a858286016121b4565b9150509250929050565b7f4e487b7100000000000000000000000000000000000000000000000000000000600052602260045260246000fd5b6000600282049050600182168061265b57607f821691505b6020821081141561266f5761266e612614565b5b50919050565b7f4552433732313a20617070726f76656420717565727920666f72206e6f6e657860008201527f697374656e7420746f6b656e0000000000000000000000000000000000000000602082015250565b60006126d1602c8361202e565b91506126dc82612675565b604082019050919050565b60006020820190508181036000830152612700816126c4565b9050919050565b7f4552433732313a20617070726f76616c20746f2063757272656e74206f776e6560008201527f7200000000000000000000000000000000000000000000000000000000000000602082015250565b600061276360218361202e565b915061276e82612707565b604082019050919050565b6000602082019050818103600083015261279281612756565b9050919050565b7f4552433732313a20617070726f76652063616c6c6572206973206e6f74206f7760008201527f6e6572206e6f7220617070726f76656420666f7220616c6c0000000000000000602082015250565b60006127f560388361202e565b915061280082612799565b604082019050919050565b60006020820190508181036000830152612824816127e8565b9050919050565b7f4552433732313a207472616e736665722063616c6c6572206973206e6f74206f60008201527f776e6572206e6f7220617070726f766564000000000000000000000000000000602082015250565b600061288760318361202e565b91506128928261282b565b604082019050919050565b600060208201905081810360008301526128b68161287a565b9050919050565b7f455243373231456e756d657261626c653a206f776e657220696e646578206f7560008201527f74206f6620626f756e6473000000000000000000000000000000000000000000602082015250565b6000612919602b8361202e565b9150612924826128bd565b604082019050919050565b600060208201905081810360008301526129488161290c565b9050919050565b600081905092915050565b600061296582612023565b61296f818561294f565b935061297f81856020860161203f565b80840191505092915050565b6000612997828461295a565b915081905092915050565b7f54686520746f6b656e205552492073686f756c6420626520756e697175650000600082015250565b60006129d8601e8361202e565b91506129e3826129a2565b602082019050919050565b60006020820190508181036000830152612a07816129cb565b9050919050565b7f455243373231456e756d657261626c653a20676c6f62616c20696e646578206f60008201527f7574206f6620626f756e64730000000000000000000000000000000000000000602082015250565b6000612a6a602c8361202e565b9150612a7582612a0e565b604082019050919050565b60006020820190508181036000830152612a9981612a5d565b9050919050565b7f4e487b7100000000000000000000000000000000000000000000000000000000600052603260045260246000fd5b7f4552433732313a206f776e657220717565727920666f72206e6f6e657869737460008201527f656e7420746f6b656e0000000000000000000000000000000000000000000000602082015250565b6000612b2b60298361202e565b9150612b3682612acf565b604082019050919050565b60006020820190508181036000830152612b5a81612b1e565b9050919050565b7f4552433732313a2062616c616e636520717565727920666f7220746865207a6560008201527f726f206164647265737300000000000000000000000000000000000000000000602082015250565b6000612bbd602a8361202e565b9150612bc882612b61565b604082019050919050565b60006020820190508181036000830152612bec81612bb0565b9050919050565b7f4552433732313a20617070726f766520746f2063616c6c657200000000000000600082015250565b6000612c2960198361202e565b9150612c3482612bf3565b602082019050919050565b60006020820190508181036000830152612c5881612c1c565b9050919050565b7f4552433732314d657461646174613a2055524920717565727920666f72206e6f60008201527f6e6578697374656e7420746f6b656e0000000000000000000000000000000000602082015250565b6000612cbb602f8361202e565b9150612cc682612c5f565b604082019050919050565b60006020820190508181036000830152612cea81612cae565b9050919050565b7f4552433732313a206f70657261746f7220717565727920666f72206e6f6e657860008201527f697374656e7420746f6b656e0000000000000000000000000000000000000000602082015250565b6000612d4d602c8361202e565b9150612d5882612cf1565b604082019050919050565b60006020820190508181036000830152612d7c81612d40565b9050919050565b7f4552433732313a207472616e73666572206f6620746f6b656e2074686174206960008201527f73206e6f74206f776e0000000000000000000000000000000000000000000000602082015250565b6000612ddf60298361202e565b9150612dea82612d83565b604082019050919050565b60006020820190508181036000830152612e0e81612dd2565b9050919050565b7f4552433732313a207472616e7366657220746f20746865207a65726f2061646460008201527f7265737300000000000000000000000000000000000000000000000000000000602082015250565b6000612e7160248361202e565b9150612e7c82612e15565b604082019050919050565b60006020820190508181036000830152612ea081612e64565b9050919050565b7f4e487b7100000000000000000000000000000000000000000000000000000000600052601160045260246000fd5b6000612ee1826120de565b9150612eec836120de565b925082821015612eff57612efe612ea7565b5b828203905092915050565b6000612f15826120de565b9150612f20836120de565b9250827fffffffffffffffffffffffffffffffffffffffffffffffffffffffffffffffff03821115612f5557612f54612ea7565b5b828201905092915050565b7f4552433732313a207472616e7366657220746f206e6f6e20455243373231526560008201527f63656976657220696d706c656d656e7465720000000000000000000000000000602082015250565b6000612fbc60328361202e565b9150612fc782612f60565b604082019050919050565b60006020820190508181036000830152612feb81612faf565b9050919050565b600081519050919050565b600082825260208201905092915050565b600061301982612ff2565b6130238185612ffd565b935061303381856020860161203f565b61303c81612072565b840191505092915050565b600060808201905061305c6000830187612173565b6130696020830186612173565b6130766040830185612209565b8181036060830152613088818461300e565b905095945050505050565b6000815190506130a281611f94565b92915050565b6000602082840312156130be576130bd611f5e565b5b60006130cc84828501613093565b91505092915050565b7f4552433732313a206d696e7420746f20746865207a65726f2061646472657373600082015250565b600061310b60208361202e565b9150613116826130d5565b602082019050919050565b6000602082019050818103600083015261313a816130fe565b9050919050565b7f4552433732313a20746f6b656e20616c7265616479206d696e74656400000000600082015250565b6000613177601c8361202e565b915061318282613141565b602082019050919050565b600060208201905081810360008301526131a68161316a565b9050919050565b7f4e487b7100000000000000000000000000000000000000000000000000000000600052603160045260246000fdfea2646970667358221220066d0f7103c42960dc9a79216066357ba71834644ef063f93c483d894424f47e64736f6c634300080b0033",
  "immutableReferences": {},
  "source": "// SPDX-License-Identifier: MIT\r\npragma solidity ^0.8.0;\r\n\r\nimport \"@openzeppelin/contracts/token/ERC721/ERC721.sol\";\r\nimport \"@openzeppelin/contracts/token/ERC721/extensions/ERC721Enumerable.sol\";\r\n\r\ncontract NFTCollection is ERC721, ERC721Enumerable {\r\n    string[] public tokenURIs;\r\n    mapping(string => bool) _tokenURIExists;\r\n    mapping(uint256 => string) _tokenIdToTokenURI;\r\n    mapping(uint256 => uint256) _tokenIdToTokenRoyalty;\r\n    mapping(uint256 => address) _tokenIdToTokenInventor;\r\n\r\n    constructor() ERC721(\"Art Collection\", \"Art\") {}\r\n\r\n    function _beforeTokenTransfer(\r\n        address from,\r\n        address to,\r\n        uint256 tokenId\r\n    ) internal override(ERC721, ERC721Enumerable) {\r\n        super._beforeTokenTransfer(from, to, tokenId);\r\n    }\r\n\r\n    function supportsInterface(bytes4 interfaceId)\r\n        public\r\n        view\r\n        override(ERC721, ERC721Enumerable)\r\n        returns (bool)\r\n    {\r\n        return super.supportsInterface(interfaceId);\r\n    }\r\n\r\n    function tokenURI(uint256 tokenId)\r\n        public\r\n        view\r\n        override\r\n        returns (string memory)\r\n    {\r\n        require(\r\n            _exists(tokenId),\r\n            \"ERC721Metadata: URI query for nonexistent token\"\r\n        );\r\n        return _tokenIdToTokenURI[tokenId];\r\n    }\r\n\r\n    function safeMint(string memory _tokenURI, uint256 _royalty) public {\r\n        require(!_tokenURIExists[_tokenURI], \"The token URI should be unique\");\r\n        tokenURIs.push(_tokenURI);\r\n        uint256 _id = tokenURIs.length;\r\n        _tokenIdToTokenURI[_id] = _tokenURI;\r\n        _tokenIdToTokenRoyalty[_id] = _royalty;\r\n        _tokenIdToTokenInventor[_id] = msg.sender;\r\n        _safeMint(msg.sender, _id);\r\n        _tokenURIExists[_tokenURI] = true;\r\n    }\r\n\r\n    function royalty(uint256 tokenId) external view returns (uint256) {\r\n        return _tokenIdToTokenRoyalty[tokenId];\r\n    }\r\n\r\n    function inventor(uint256 tokenId) external view returns (address) {\r\n        return _tokenIdToTokenInventor[tokenId];\r\n    }\r\n\r\n}\r\n",
  "sourcePath": "C:\\Users\\Tiger\\3D Objects\\nft-marketplace\\src\\contracts\\NFTCollection.sol",
  "compiler": {
    "name": "solc",
    "version": "0.8.11+commit.d7f03943.Emscripten.clang"
  },
  "schemaVersion": "3.4.3",
  "updatedAt": "2021-12-26T12:44:41.332Z",
  "networkType": "ethereum",
  "devdoc": {
    "kind": "dev",
    "methods": {
      "approve(address,uint256)": {
        "details": "See {IERC721-approve}."
      },
      "balanceOf(address)": {
        "details": "See {IERC721-balanceOf}."
      },
      "getApproved(uint256)": {
        "details": "See {IERC721-getApproved}."
      },
      "isApprovedForAll(address,address)": {
        "details": "See {IERC721-isApprovedForAll}."
      },
      "name()": {
        "details": "See {IERC721Metadata-name}."
      },
      "ownerOf(uint256)": {
        "details": "See {IERC721-ownerOf}."
      },
      "safeTransferFrom(address,address,uint256)": {
        "details": "See {IERC721-safeTransferFrom}."
      },
      "safeTransferFrom(address,address,uint256,bytes)": {
        "details": "See {IERC721-safeTransferFrom}."
      },
      "setApprovalForAll(address,bool)": {
        "details": "See {IERC721-setApprovalForAll}."
      },
      "symbol()": {
        "details": "See {IERC721Metadata-symbol}."
      },
      "tokenByIndex(uint256)": {
        "details": "See {IERC721Enumerable-tokenByIndex}."
      },
      "tokenOfOwnerByIndex(address,uint256)": {
        "details": "See {IERC721Enumerable-tokenOfOwnerByIndex}."
      },
      "tokenURI(uint256)": {
        "details": "See {IERC721Metadata-tokenURI}."
      },
      "totalSupply()": {
        "details": "See {IERC721Enumerable-totalSupply}."
      },
      "transferFrom(address,address,uint256)": {
        "details": "See {IERC721-transferFrom}."
      }
    },
    "version": 1
  },
  "userdoc": {
    "kind": "user",
    "methods": {},
    "version": 1
  }
}