{
  "contractName": "NFTMarketplace",
  "abi": [
    {
      "inputs": [
        {
          "internalType": "address",
          "name": "_nftCollection",
          "type": "address"
        }
      ],
      "stateMutability": "nonpayable",
      "type": "constructor"
    },
    {
      "anonymous": false,
      "inputs": [
        {
          "indexed": false,
          "internalType": "uint256",
          "name": "tokenId",
          "type": "uint256"
        }
      ],
      "name": "BidCanceled",
      "type": "event"
    },
    {
      "anonymous": false,
      "inputs": [
        {
          "indexed": false,
          "internalType": "uint256",
          "name": "tokenId",
          "type": "uint256"
        },
        {
          "indexed": false,
          "internalType": "uint256",
          "name": "nftHighestBid",
          "type": "uint256"
        },
        {
          "indexed": false,
          "internalType": "address",
          "name": "nftHighestBidder",
          "type": "address"
        },
        {
          "indexed": false,
          "internalType": "uint256",
          "name": "auctionEnd",
          "type": "uint256"
        }
      ],
      "name": "BidCreated",
      "type": "event"
    },
    {
      "anonymous": false,
      "inputs": [
        {
          "indexed": false,
          "internalType": "address",
          "name": "user",
          "type": "address"
        },
        {
          "indexed": false,
          "internalType": "uint256",
          "name": "amount",
          "type": "uint256"
        }
      ],
      "name": "ClaimFunds",
      "type": "event"
    },
    {
      "anonymous": false,
      "inputs": [
        {
          "indexed": false,
          "internalType": "uint256",
          "name": "tokenId",
          "type": "uint256"
        },
        {
          "indexed": false,
          "internalType": "address",
          "name": "nftSeller",
          "type": "address"
        }
      ],
      "name": "NftAuctionCanceled",
      "type": "event"
    },
    {
      "anonymous": false,
      "inputs": [
        {
          "indexed": false,
          "internalType": "uint256",
          "name": "auctionEnd",
          "type": "uint256"
        },
        {
          "indexed": false,
          "internalType": "uint256",
          "name": "buyNowPrice",
          "type": "uint256"
        },
        {
          "indexed": false,
          "internalType": "uint256",
          "name": "tokenId",
          "type": "uint256"
        },
        {
          "indexed": false,
          "internalType": "address",
          "name": "nftSeller",
          "type": "address"
        }
      ],
      "name": "NftAuctionCreated",
      "type": "event"
    },
    {
      "anonymous": false,
      "inputs": [
        {
          "indexed": false,
          "internalType": "uint256",
          "name": "tokenId",
          "type": "uint256"
        },
        {
          "indexed": false,
          "internalType": "address",
          "name": "nftSeller",
          "type": "address"
        },
        {
          "indexed": false,
          "internalType": "uint256",
          "name": "buyNowPrice",
          "type": "uint256"
        },
        {
          "indexed": false,
          "internalType": "address",
          "name": "winner",
          "type": "address"
        },
        {
          "indexed": false,
          "internalType": "uint256",
          "name": "price",
          "type": "uint256"
        }
      ],
      "name": "NftAuctionSettled",
      "type": "event"
    },
    {
      "anonymous": false,
      "inputs": [
        {
          "indexed": false,
          "internalType": "uint256",
          "name": "offerId",
          "type": "uint256"
        },
        {
          "indexed": false,
          "internalType": "uint256",
          "name": "id",
          "type": "uint256"
        },
        {
          "indexed": false,
          "internalType": "address",
          "name": "user",
          "type": "address"
        },
        {
          "indexed": false,
          "internalType": "uint256",
          "name": "price",
          "type": "uint256"
        },
        {
          "indexed": false,
          "internalType": "bool",
          "name": "fulfilled",
          "type": "bool"
        },
        {
          "indexed": false,
          "internalType": "bool",
          "name": "cancelled",
          "type": "bool"
        }
      ],
      "name": "Offer",
      "type": "event"
    },
    {
      "anonymous": false,
      "inputs": [
        {
          "indexed": false,
          "internalType": "uint256",
          "name": "offerId",
          "type": "uint256"
        },
        {
          "indexed": false,
          "internalType": "uint256",
          "name": "id",
          "type": "uint256"
        },
        {
          "indexed": false,
          "internalType": "address",
          "name": "owner",
          "type": "address"
        }
      ],
      "name": "OfferCancelled",
      "type": "event"
    },
    {
      "anonymous": false,
      "inputs": [
        {
          "indexed": false,
          "internalType": "uint256",
          "name": "offerId",
          "type": "uint256"
        },
        {
          "indexed": false,
          "internalType": "uint256",
          "name": "id",
          "type": "uint256"
        },
        {
          "indexed": false,
          "internalType": "address",
          "name": "newOwner",
          "type": "address"
        }
      ],
      "name": "OfferFilled",
      "type": "event"
    },
    {
      "anonymous": false,
      "inputs": [
        {
          "indexed": false,
          "internalType": "uint256",
          "name": "offerId",
          "type": "uint256"
        },
        {
          "indexed": false,
          "internalType": "uint256",
          "name": "price",
          "type": "uint256"
        }
      ],
      "name": "OfferUpdated",
      "type": "event"
    },
    {
      "stateMutability": "nonpayable",
      "type": "fallback"
    },
    {
      "inputs": [
        {
          "internalType": "uint256",
          "name": "",
          "type": "uint256"
        }
      ],
      "name": "nftAuctions",
      "outputs": [
        {
          "internalType": "uint256",
          "name": "buyNowPrice",
          "type": "uint256"
        },
        {
          "internalType": "uint256",
          "name": "nftHighestBid",
          "type": "uint256"
        },
        {
          "internalType": "uint256",
          "name": "auctionEnd",
          "type": "uint256"
        },
        {
          "internalType": "address",
          "name": "nftHighestBidder",
          "type": "address"
        },
        {
          "internalType": "address",
          "name": "nftSeller",
          "type": "address"
        }
      ],
      "stateMutability": "view",
      "type": "function",
      "constant": true
    },
    {
      "inputs": [],
      "name": "offerCount",
      "outputs": [
        {
          "internalType": "uint256",
          "name": "",
          "type": "uint256"
        }
      ],
      "stateMutability": "view",
      "type": "function",
      "constant": true
    },
    {
      "inputs": [
        {
          "internalType": "uint256",
          "name": "",
          "type": "uint256"
        }
      ],
      "name": "offers",
      "outputs": [
        {
          "internalType": "uint256",
          "name": "offerId",
          "type": "uint256"
        },
        {
          "internalType": "uint256",
          "name": "id",
          "type": "uint256"
        },
        {
          "internalType": "uint256",
          "name": "price",
          "type": "uint256"
        },
        {
          "internalType": "address",
          "name": "user",
          "type": "address"
        },
        {
          "internalType": "bool",
          "name": "fulfilled",
          "type": "bool"
        },
        {
          "internalType": "bool",
          "name": "cancelled",
          "type": "bool"
        }
      ],
      "stateMutability": "view",
      "type": "function",
      "constant": true
    },
    {
      "inputs": [
        {
          "internalType": "address",
          "name": "",
          "type": "address"
        }
      ],
      "name": "userFunds",
      "outputs": [
        {
          "internalType": "uint256",
          "name": "",
          "type": "uint256"
        }
      ],
      "stateMutability": "view",
      "type": "function",
      "constant": true
    },
    {
      "inputs": [
        {
          "internalType": "uint256",
          "name": "_id",
          "type": "uint256"
        },
        {
          "internalType": "uint256",
          "name": "_price",
          "type": "uint256"
        }
      ],
      "name": "makeOffer",
      "outputs": [],
      "stateMutability": "nonpayable",
      "type": "function"
    },
    {
      "inputs": [
        {
          "internalType": "uint256",
          "name": "_offerId",
          "type": "uint256"
        }
      ],
      "name": "fillOffer",
      "outputs": [],
      "stateMutability": "payable",
      "type": "function",
      "payable": true
    },
    {
      "inputs": [
        {
          "internalType": "uint256",
          "name": "_offerId",
          "type": "uint256"
        }
      ],
      "name": "cancelOffer",
      "outputs": [],
      "stateMutability": "nonpayable",
      "type": "function"
    },
    {
      "inputs": [
        {
          "internalType": "uint256",
          "name": "_offerId",
          "type": "uint256"
        },
        {
          "internalType": "uint256",
          "name": "_price",
          "type": "uint256"
        }
      ],
      "name": "updateOffer",
      "outputs": [],
      "stateMutability": "nonpayable",
      "type": "function"
    },
    {
      "inputs": [],
      "name": "getAuctions",
      "outputs": [
        {
          "components": [
            {
              "internalType": "uint256",
              "name": "buyNowPrice",
              "type": "uint256"
            },
            {
              "internalType": "uint256",
              "name": "nftHighestBid",
              "type": "uint256"
            },
            {
              "internalType": "uint256",
              "name": "auctionEnd",
              "type": "uint256"
            },
            {
              "internalType": "address",
              "name": "nftHighestBidder",
              "type": "address"
            },
            {
              "internalType": "address",
              "name": "nftSeller",
              "type": "address"
            }
          ],
          "internalType": "struct NFTMarketplace.Auction[]",
          "name": "",
          "type": "tuple[]"
        }
      ],
      "stateMutability": "view",
      "type": "function",
      "constant": true
    },
    {
      "inputs": [
        {
          "internalType": "uint256",
          "name": "_tokenId",
          "type": "uint256"
        },
        {
          "internalType": "uint256",
          "name": "_price",
          "type": "uint256"
        },
        {
          "internalType": "uint256",
          "name": "period",
          "type": "uint256"
        }
      ],
      "name": "makeAuction",
      "outputs": [],
      "stateMutability": "nonpayable",
      "type": "function"
    },
    {
      "inputs": [
        {
          "internalType": "uint256",
          "name": "_tokenId",
          "type": "uint256"
        }
      ],
      "name": "cancelAuction",
      "outputs": [],
      "stateMutability": "nonpayable",
      "type": "function"
    },
    {
      "inputs": [
        {
          "internalType": "uint256",
          "name": "_tokenId",
          "type": "uint256"
        }
      ],
      "name": "settleAuction",
      "outputs": [],
      "stateMutability": "nonpayable",
      "type": "function"
    },
    {
      "inputs": [
        {
          "internalType": "uint256",
          "name": "_tokenId",
          "type": "uint256"
        }
      ],
      "name": "makeBid",
      "outputs": [],
      "stateMutability": "payable",
      "type": "function",
      "payable": true
    },
    {
      "inputs": [
        {
          "internalType": "uint256",
          "name": "_tokenId",
          "type": "uint256"
        }
      ],
      "name": "cancelBid",
      "outputs": [],
      "stateMutability": "nonpayable",
      "type": "function"
    },
    {
      "inputs": [],
      "name": "claimFunds",
      "outputs": [],
      "stateMutability": "nonpayable",
      "type": "function"
    },
    {
      "inputs": [
        {
          "internalType": "address",
          "name": "newOwner",
          "type": "address"
        }
      ],
      "name": "transferOwnership",
      "outputs": [],
      "stateMutability": "nonpayable",
      "type": "function"
    }
  ],
  "bytecode": "0x608060405260fa6001553480156200001657600080fd5b5060405162003c4838038062003c4883398181016040528101906200003c91906200012f565b80600560006101000a81548173ffffffffffffffffffffffffffffffffffffffff021916908373ffffffffffffffffffffffffffffffffffffffff16021790555033600660006101000a81548173ffffffffffffffffffffffffffffffffffffffff021916908373ffffffffffffffffffffffffffffffffffffffff1602179055505062000161565b600080fd5b600073ffffffffffffffffffffffffffffffffffffffff82169050919050565b6000620000f782620000ca565b9050919050565b6200010981620000ea565b81146200011557600080fd5b50565b6000815190506200012981620000fe565b92915050565b600060208284031215620001485762000147620000c5565b5b6000620001588482850162000118565b91505092915050565b613ad780620001716000396000f3fe6080604052600436106100f75760003560e01c806393cde51a1161008a578063d04d5d7211610059578063d04d5d7214610311578063d7c069191461033a578063ef706adf14610365578063f2fde38b1461038e576100f8565b806393cde51a1461026757806396b5a755146102a85780639703ef35146102d1578063ac307773146102fa576100f8565b80632e993611116100c65780632e993611146101a35780638387c6e1146101cc57806385dba861146102095780638a72ea6a14610225576100f8565b806305b7cdd31461010a5780630b7b925b146101335780631115c24d1461015c578063175b230414610187576100f8565b5b34801561010457600080fd5b50600080fd5b34801561011657600080fd5b50610131600480360381019061012c9190612777565b6103b7565b005b34801561013f57600080fd5b5061015a60048036038101906101559190612777565b6105ae565b005b34801561016857600080fd5b50610171610794565b60405161017e91906127c6565b60405180910390f35b6101a1600480360381019061019c91906127e1565b61079a565b005b3480156101af57600080fd5b506101ca60048036038101906101c591906127e1565b610cd1565b005b3480156101d857600080fd5b506101f360048036038101906101ee919061286c565b611099565b60405161020091906127c6565b60405180910390f35b610223600480360381019061021e91906127e1565b6110b1565b005b34801561023157600080fd5b5061024c600480360381019061024791906127e1565b611463565b60405161025e969594939291906128c3565b60405180910390f35b34801561027357600080fd5b5061028e600480360381019061028991906127e1565b6114d9565b60405161029f959493929190612924565b60405180910390f35b3480156102b457600080fd5b506102cf60048036038101906102ca91906127e1565b61154f565b005b3480156102dd57600080fd5b506102f860048036038101906102f391906127e1565b6117bc565b005b34801561030657600080fd5b5061030f611a91565b005b34801561031d57600080fd5b5061033860048036038101906103339190612977565b611c58565b005b34801561034657600080fd5b5061034f611de4565b60405161035c9190612aff565b60405180910390f35b34801561037157600080fd5b5061038c600480360381019061038791906127e1565b61209b565b005b34801561039a57600080fd5b506103b560048036038101906103b0919061286c565b61232f565b005b600560009054906101000a900473ffffffffffffffffffffffffffffffffffffffff1673ffffffffffffffffffffffffffffffffffffffff166323b872dd3330856040518463ffffffff1660e01b815260040161041693929190612b21565b600060405180830381600087803b15801561043057600080fd5b505af1158015610444573d6000803e3d6000fd5b5050505060008081548092919061045a90612b87565b91905055506040518060c0016040528060005481526020018381526020018281526020013373ffffffffffffffffffffffffffffffffffffffff16815260200160001515815260200160001515815250600260008054815260200190815260200160002060008201518160000155602082015181600101556040820151816002015560608201518160030160006101000a81548173ffffffffffffffffffffffffffffffffffffffff021916908373ffffffffffffffffffffffffffffffffffffffff16021790555060808201518160030160146101000a81548160ff02191690831515021790555060a08201518160030160156101000a81548160ff0219169083151502179055509050507f93e711896d4ef527d199d7e101922e20f918cbb248a0fb0977c52fda24aa1f1d6000548333846000806040516105a296959493929190612bd0565b60405180910390a15050565b60006002600084815260200190815260200160002090508281600001541461060b576040517f08c379a000000000000000000000000000000000000000000000000000000000815260040161060290612c8e565b60405180910390fd5b3373ffffffffffffffffffffffffffffffffffffffff168160030160009054906101000a900473ffffffffffffffffffffffffffffffffffffffff1673ffffffffffffffffffffffffffffffffffffffff161461069d576040517f08c379a000000000000000000000000000000000000000000000000000000000815260040161069490612d20565b60405180910390fd5b600015158160030160149054906101000a900460ff161515146106f5576040517f08c379a00000000000000000000000000000000000000000000000000000000081526004016106ec90612db2565b60405180910390fd5b600015158160030160159054906101000a900460ff1615151461074d576040517f08c379a000000000000000000000000000000000000000000000000000000000815260040161074490612e44565b60405180910390fd5b8181600201819055507f63259830931e406791f7755ad50d816251e755d53951772775a94f2bf0e54fde8383604051610787929190612e64565b60405180910390a1505050565b60005481565b600073ffffffffffffffffffffffffffffffffffffffff166004600083815260200190815260200160002060040160009054906101000a900473ffffffffffffffffffffffffffffffffffffffff1673ffffffffffffffffffffffffffffffffffffffff161415610840576040517f08c379a000000000000000000000000000000000000000000000000000000000815260040161083790612ed9565b60405180910390fd5b42600460008381526020019081526020016000206002015411610898576040517f08c379a000000000000000000000000000000000000000000000000000000000815260040161088f90612f45565b60405180910390fd5b3373ffffffffffffffffffffffffffffffffffffffff166004600083815260200190815260200160002060040160009054906101000a900473ffffffffffffffffffffffffffffffffffffffff1673ffffffffffffffffffffffffffffffffffffffff16141561093d576040517f08c379a000000000000000000000000000000000000000000000000000000000815260040161093490612fd7565b60405180910390fd5b60006004600083815260200190815260200160002060010154905060046000838152602001908152602001600020600001548111156109cc57662386f26fc10000600a8261098b9190613026565b11156109b157600a600b826109a09190613057565b6109aa9190613026565b90506109c7565b662386f26fc10000816109c491906130b1565b90505b6109e6565b600460008381526020019081526020016000206000015490505b80341015610a29576040517f08c379a0000000000000000000000000000000000000000000000000000000008152600401610a2090613179565b60405180910390fd5b60006004600084815260200190815260200160002060030160009054906101000a900473ffffffffffffffffffffffffffffffffffffffff169050600073ffffffffffffffffffffffffffffffffffffffff168173ffffffffffffffffffffffffffffffffffffffff161415610aee576004600084815260200190815260200160002060040160009054906101000a900473ffffffffffffffffffffffffffffffffffffffff169050610ae9600a34610ae29190613026565b8483612407565b610b9f565b600a34610afb9190613026565b600a6004600086815260200190815260200160002060010154610b1e9190613026565b6004600086815260200190815260200160002060010154610b3f9190613199565b610b4991906130b1565b600360008373ffffffffffffffffffffffffffffffffffffffff1673ffffffffffffffffffffffffffffffffffffffff1681526020019081526020016000206000828254610b9791906130b1565b925050819055505b336004600085815260200190815260200160002060030160006101000a81548173ffffffffffffffffffffffffffffffffffffffff021916908373ffffffffffffffffffffffffffffffffffffffff16021790555034600460008581526020019081526020016000206001018190555061025842610c1d91906130b1565b60046000858152602001908152602001600020600201541015610c635761025842610c4891906130b1565b60046000858152602001908152602001600020600201819055505b7f6d2b783673dbbf046f2e5a1f3c92ce62c29a0f5385f2b1f0eaf19019ef28cb55836004600086815260200190815260200160002060010154336004600088815260200190815260200160002060020154604051610cc494939291906131cd565b60405180910390a1505050565b600073ffffffffffffffffffffffffffffffffffffffff166004600083815260200190815260200160002060040160009054906101000a900473ffffffffffffffffffffffffffffffffffffffff1673ffffffffffffffffffffffffffffffffffffffff161415610d77576040517f08c379a0000000000000000000000000000000000000000000000000000000008152600401610d6e90612ed9565b60405180910390fd5b4260046000838152602001908152602001600020600201541115610dd0576040517f08c379a0000000000000000000000000000000000000000000000000000000008152600401610dc79061325e565b60405180910390fd5b7fad0fc073c0346c2850f535b636bd929b71ae81fa3fdd2c79445b0b84ba612d4d816004600084815260200190815260200160002060040160009054906101000a900473ffffffffffffffffffffffffffffffffffffffff1660046000858152602001908152602001600020600001546004600086815260200190815260200160002060030160009054906101000a900473ffffffffffffffffffffffffffffffffffffffff166004600087815260200190815260200160002060010154604051610e9f95949392919061327e565b60405180910390a1600073ffffffffffffffffffffffffffffffffffffffff166004600083815260200190815260200160002060030160009054906101000a900473ffffffffffffffffffffffffffffffffffffffff1673ffffffffffffffffffffffffffffffffffffffff1614610f9657610f95600a6004600084815260200190815260200160002060010154610f379190613026565b6004600084815260200190815260200160002060010154610f589190613199565b826004600085815260200190815260200160002060040160009054906101000a900473ffffffffffffffffffffffffffffffffffffffff16612407565b5b600060046000838152602001908152602001600020600001819055506000600460008381526020019081526020016000206002018190555060006004600083815260200190815260200160002060040160006101000a81548173ffffffffffffffffffffffffffffffffffffffff021916908373ffffffffffffffffffffffffffffffffffffffff1602179055506000600460008381526020019081526020016000206001018190555060006004600083815260200190815260200160002060030160006101000a81548173ffffffffffffffffffffffffffffffffffffffff021916908373ffffffffffffffffffffffffffffffffffffffff16021790555050565b60036020528060005260406000206000915090505481565b60006002600083815260200190815260200160002090508181600001541461110e576040517f08c379a000000000000000000000000000000000000000000000000000000000815260040161110590612c8e565b60405180910390fd5b3373ffffffffffffffffffffffffffffffffffffffff168160030160009054906101000a900473ffffffffffffffffffffffffffffffffffffffff1673ffffffffffffffffffffffffffffffffffffffff1614156111a1576040517f08c379a000000000000000000000000000000000000000000000000000000000815260040161119890613343565b60405180910390fd5b8060030160149054906101000a900460ff16156111f3576040517f08c379a00000000000000000000000000000000000000000000000000000000081526004016111ea906133d5565b60405180910390fd5b8060030160159054906101000a900460ff1615611245576040517f08c379a000000000000000000000000000000000000000000000000000000000815260040161123c90613467565b60405180910390fd5b8060020154600360003373ffffffffffffffffffffffffffffffffffffffff1673ffffffffffffffffffffffffffffffffffffffff168152602001908152602001600020543461129591906130b1565b10156112d6576040517f08c379a00000000000000000000000000000000000000000000000000000000081526004016112cd906134f9565b60405180910390fd5b600560009054906101000a900473ffffffffffffffffffffffffffffffffffffffff1673ffffffffffffffffffffffffffffffffffffffff166323b872dd303384600101546040518463ffffffff1660e01b815260040161133993929190612b21565b600060405180830381600087803b15801561135357600080fd5b505af1158015611367573d6000803e3d6000fd5b5050505060018160030160146101000a81548160ff0219169083151502179055506113bb3482600101548360030160009054906101000a900473ffffffffffffffffffffffffffffffffffffffff16612407565b3481600201546113cb9190613199565b600360003373ffffffffffffffffffffffffffffffffffffffff1673ffffffffffffffffffffffffffffffffffffffff16815260200190815260200160002060008282546114199190613199565b925050819055507fd9157c065213ada613694e84b1e27fe2efd62d85c6b82bd6c842a4999491e72a8282600101543360405161145793929190613519565b60405180910390a15050565b60026020528060005260406000206000915090508060000154908060010154908060020154908060030160009054906101000a900473ffffffffffffffffffffffffffffffffffffffff16908060030160149054906101000a900460ff16908060030160159054906101000a900460ff16905086565b60046020528060005260406000206000915090508060000154908060010154908060020154908060030160009054906101000a900473ffffffffffffffffffffffffffffffffffffffff16908060040160009054906101000a900473ffffffffffffffffffffffffffffffffffffffff16905085565b3373ffffffffffffffffffffffffffffffffffffffff166004600083815260200190815260200160002060040160009054906101000a900473ffffffffffffffffffffffffffffffffffffffff1673ffffffffffffffffffffffffffffffffffffffff16146115f3576040517f08c379a00000000000000000000000000000000000000000000000000000000081526004016115ea906135c2565b60405180910390fd5b6004600082815260200190815260200160002060000154600460008381526020019081526020016000206001015410611661576040517f08c379a00000000000000000000000000000000000000000000000000000000081526004016116589061362e565b60405180910390fd5b600560009054906101000a900473ffffffffffffffffffffffffffffffffffffffff1673ffffffffffffffffffffffffffffffffffffffff166323b872dd3033846040518463ffffffff1660e01b81526004016116c093929190612b21565b600060405180830381600087803b1580156116da57600080fd5b505af11580156116ee573d6000803e3d6000fd5b50505050600060046000838152602001908152602001600020600001819055506000600460008381526020019081526020016000206002018190555060006004600083815260200190815260200160002060040160006101000a81548173ffffffffffffffffffffffffffffffffffffffff021916908373ffffffffffffffffffffffffffffffffffffffff1602179055507f9f338bd30f2b8df7becd5a8d2b41a9f9572ee4a9db023508e50c541285c8dc0e81336040516117b192919061364e565b60405180910390a150565b600073ffffffffffffffffffffffffffffffffffffffff166004600083815260200190815260200160002060040160009054906101000a900473ffffffffffffffffffffffffffffffffffffffff1673ffffffffffffffffffffffffffffffffffffffff161415611862576040517f08c379a000000000000000000000000000000000000000000000000000000000815260040161185990612ed9565b60405180910390fd5b426004600083815260200190815260200160002060020154116118ba576040517f08c379a00000000000000000000000000000000000000000000000000000000081526004016118b190612f45565b60405180910390fd5b6004600082815260200190815260200160002060030160009054906101000a900473ffffffffffffffffffffffffffffffffffffffff1673ffffffffffffffffffffffffffffffffffffffff163373ffffffffffffffffffffffffffffffffffffffff161461195e576040517f08c379a0000000000000000000000000000000000000000000000000000000008152600401611955906136e9565b60405180910390fd5b600a60046000838152602001908152602001600020600101546119819190613026565b60046000838152602001908152602001600020600101546119a29190613199565b600360003373ffffffffffffffffffffffffffffffffffffffff1673ffffffffffffffffffffffffffffffffffffffff1681526020019081526020016000208190555060006004600083815260200190815260200160002060030160006101000a81548173ffffffffffffffffffffffffffffffffffffffff021916908373ffffffffffffffffffffffffffffffffffffffff160217905550600060046000838152602001908152602001600020600101819055507ff72c9cb76aa633bc9310fa98738d474339fdf2f23dfac70ccbd65e593f6654df81604051611a8691906127c6565b60405180910390a150565b6000600360003373ffffffffffffffffffffffffffffffffffffffff1673ffffffffffffffffffffffffffffffffffffffff1681526020019081526020016000205411611b13576040517f08c379a0000000000000000000000000000000000000000000000000000000008152600401611b0a9061377b565b60405180910390fd5b3373ffffffffffffffffffffffffffffffffffffffff166108fc600360003373ffffffffffffffffffffffffffffffffffffffff1673ffffffffffffffffffffffffffffffffffffffff168152602001908152602001600020549081150290604051600060405180830381858888f19350505050158015611b98573d6000803e3d6000fd5b507f4f0554190111f93f8c2ccef2cc41473f187d7f29ff5a5c308ca41f9dfe4e989a33600360003373ffffffffffffffffffffffffffffffffffffffff1673ffffffffffffffffffffffffffffffffffffffff16815260200190815260200160002054604051611c0992919061379b565b60405180910390a16000600360003373ffffffffffffffffffffffffffffffffffffffff1673ffffffffffffffffffffffffffffffffffffffff16815260200190815260200160002081905550565b600560009054906101000a900473ffffffffffffffffffffffffffffffffffffffff1673ffffffffffffffffffffffffffffffffffffffff166323b872dd3330866040518463ffffffff1660e01b8152600401611cb793929190612b21565b600060405180830381600087803b158015611cd157600080fd5b505af1158015611ce5573d6000803e3d6000fd5b50505050816004600085815260200190815260200160002060000181905550610e1081611d129190613057565b42611d1d91906130b1565b6004600085815260200190815260200160002060020181905550336004600085815260200190815260200160002060040160006101000a81548173ffffffffffffffffffffffffffffffffffffffff021916908373ffffffffffffffffffffffffffffffffffffffff1602179055507fa060a06376aad79320fcbff6f10eea7cd5f064d831e6aac4d2a8d1a80fa04ca46004600085815260200190815260200160002060020154838533604051611dd794939291906137c4565b60405180910390a1505050565b60606000600560009054906101000a900473ffffffffffffffffffffffffffffffffffffffff1673ffffffffffffffffffffffffffffffffffffffff166318160ddd6040518163ffffffff1660e01b8152600401602060405180830381865afa158015611e55573d6000803e3d6000fd5b505050506040513d601f19601f82011682018060405250810190611e79919061381e565b905060008167ffffffffffffffff811115611e9757611e9661384b565b5b604051908082528060200260200182016040528015611ed057816020015b611ebd6126e1565b815260200190600190039081611eb55790505b50905060005b828110156120925760046000600560009054906101000a900473ffffffffffffffffffffffffffffffffffffffff1673ffffffffffffffffffffffffffffffffffffffff16634f6ccce7846040518263ffffffff1660e01b8152600401611f3d91906127c6565b602060405180830381865afa158015611f5a573d6000803e3d6000fd5b505050506040513d601f19601f82011682018060405250810190611f7e919061381e565b81526020019081526020016000206040518060a00160405290816000820154815260200160018201548152602001600282015481526020016003820160009054906101000a900473ffffffffffffffffffffffffffffffffffffffff1673ffffffffffffffffffffffffffffffffffffffff1673ffffffffffffffffffffffffffffffffffffffff1681526020016004820160009054906101000a900473ffffffffffffffffffffffffffffffffffffffff1673ffffffffffffffffffffffffffffffffffffffff1673ffffffffffffffffffffffffffffffffffffffff16815250508282815181106120745761207361387a565b5b6020026020010181905250808061208a90612b87565b915050611ed6565b50809250505090565b6000600260008381526020019081526020016000209050818160000154146120f8576040517f08c379a00000000000000000000000000000000000000000000000000000000081526004016120ef90612c8e565b60405180910390fd5b3373ffffffffffffffffffffffffffffffffffffffff168160030160009054906101000a900473ffffffffffffffffffffffffffffffffffffffff1673ffffffffffffffffffffffffffffffffffffffff161461218a576040517f08c379a00000000000000000000000000000000000000000000000000000000081526004016121819061391b565b60405180910390fd5b600015158160030160149054906101000a900460ff161515146121e2576040517f08c379a00000000000000000000000000000000000000000000000000000000081526004016121d9906139ad565b60405180910390fd5b600015158160030160159054906101000a900460ff1615151461223a576040517f08c379a000000000000000000000000000000000000000000000000000000000815260040161223190613a3f565b60405180910390fd5b600560009054906101000a900473ffffffffffffffffffffffffffffffffffffffff1673ffffffffffffffffffffffffffffffffffffffff166323b872dd303384600101546040518463ffffffff1660e01b815260040161229d93929190612b21565b600060405180830381600087803b1580156122b757600080fd5b505af11580156122cb573d6000803e3d6000fd5b5050505060018160030160156101000a81548160ff0219169083151502179055507f5b166b4d0498ff8c4719999cb6154c5d197e6f020f9fbfcf9d347f84576cfab78282600101543360405161232393929190613519565b60405180910390a15050565b600660009054906101000a900473ffffffffffffffffffffffffffffffffffffffff1673ffffffffffffffffffffffffffffffffffffffff163373ffffffffffffffffffffffffffffffffffffffff161461238957600080fd5b600073ffffffffffffffffffffffffffffffffffffffff168173ffffffffffffffffffffffffffffffffffffffff1614156123c357600080fd5b80600660006101000a81548173ffffffffffffffffffffffffffffffffffffffff021916908373ffffffffffffffffffffffffffffffffffffffff16021790555050565b6000831161241457600080fd5b6000600560009054906101000a900473ffffffffffffffffffffffffffffffffffffffff1673ffffffffffffffffffffffffffffffffffffffff1663e814cb71846040518263ffffffff1660e01b815260040161247191906127c6565b602060405180830381865afa15801561248e573d6000803e3d6000fd5b505050506040513d601f19601f820116820180604052508101906124b2919061381e565b90506000600560009054906101000a900473ffffffffffffffffffffffffffffffffffffffff1673ffffffffffffffffffffffffffffffffffffffff16634586b3a1856040518263ffffffff1660e01b815260040161251191906127c6565b602060405180830381865afa15801561252e573d6000803e3d6000fd5b505050506040513d601f19601f820116820180604052508101906125529190613a74565b9050612710600154866125659190613057565b61256f9190613026565b60036000600660009054906101000a900473ffffffffffffffffffffffffffffffffffffffff1673ffffffffffffffffffffffffffffffffffffffff1673ffffffffffffffffffffffffffffffffffffffff16815260200190815260200160002060008282546125df91906130b1565b9250508190555061271082866125f59190613057565b6125ff9190613026565b600360008373ffffffffffffffffffffffffffffffffffffffff1673ffffffffffffffffffffffffffffffffffffffff168152602001908152602001600020600082825461264d91906130b1565b925050819055506127108260015461266591906130b1565b866126709190613057565b61267a9190613026565b856126859190613199565b600360008573ffffffffffffffffffffffffffffffffffffffff1673ffffffffffffffffffffffffffffffffffffffff16815260200190815260200160002060008282546126d391906130b1565b925050819055505050505050565b6040518060a00160405280600081526020016000815260200160008152602001600073ffffffffffffffffffffffffffffffffffffffff168152602001600073ffffffffffffffffffffffffffffffffffffffff1681525090565b600080fd5b6000819050919050565b61275481612741565b811461275f57600080fd5b50565b6000813590506127718161274b565b92915050565b6000806040838503121561278e5761278d61273c565b5b600061279c85828601612762565b92505060206127ad85828601612762565b9150509250929050565b6127c081612741565b82525050565b60006020820190506127db60008301846127b7565b92915050565b6000602082840312156127f7576127f661273c565b5b600061280584828501612762565b91505092915050565b600073ffffffffffffffffffffffffffffffffffffffff82169050919050565b60006128398261280e565b9050919050565b6128498161282e565b811461285457600080fd5b50565b60008135905061286681612840565b92915050565b6000602082840312156128825761288161273c565b5b600061289084828501612857565b91505092915050565b6128a28161282e565b82525050565b60008115159050919050565b6128bd816128a8565b82525050565b600060c0820190506128d860008301896127b7565b6128e560208301886127b7565b6128f260408301876127b7565b6128ff6060830186612899565b61290c60808301856128b4565b61291960a08301846128b4565b979650505050505050565b600060a08201905061293960008301886127b7565b61294660208301876127b7565b61295360408301866127b7565b6129606060830185612899565b61296d6080830184612899565b9695505050505050565b6000806000606084860312156129905761298f61273c565b5b600061299e86828701612762565b93505060206129af86828701612762565b92505060406129c086828701612762565b9150509250925092565b600081519050919050565b600082825260208201905092915050565b6000819050602082019050919050565b6129ff81612741565b82525050565b612a0e8161282e565b82525050565b60a082016000820151612a2a60008501826129f6565b506020820151612a3d60208501826129f6565b506040820151612a5060408501826129f6565b506060820151612a636060850182612a05565b506080820151612a766080850182612a05565b50505050565b6000612a888383612a14565b60a08301905092915050565b6000602082019050919050565b6000612aac826129ca565b612ab681856129d5565b9350612ac1836129e6565b8060005b83811015612af2578151612ad98882612a7c565b9750612ae483612a94565b925050600181019050612ac5565b5085935050505092915050565b60006020820190508181036000830152612b198184612aa1565b905092915050565b6000606082019050612b366000830186612899565b612b436020830185612899565b612b5060408301846127b7565b949350505050565b7f4e487b7100000000000000000000000000000000000000000000000000000000600052601160045260246000fd5b6000612b9282612741565b91507fffffffffffffffffffffffffffffffffffffffffffffffffffffffffffffffff821415612bc557612bc4612b58565b5b600182019050919050565b600060c082019050612be560008301896127b7565b612bf260208301886127b7565b612bff6040830187612899565b612c0c60608301866127b7565b612c1960808301856128b4565b612c2660a08301846128b4565b979650505050505050565b600082825260208201905092915050565b7f546865206f66666572206d757374206578697374000000000000000000000000600082015250565b6000612c78601483612c31565b9150612c8382612c42565b602082019050919050565b60006020820190508181036000830152612ca781612c6b565b9050919050565b7f546865206f666665722063616e206f6e6c79206265207570646174656420627960008201527f20746865206f776e657200000000000000000000000000000000000000000000602082015250565b6000612d0a602a83612c31565b9150612d1582612cae565b604082019050919050565b60006020820190508181036000830152612d3981612cfd565b9050919050565b7f412066756c66696c6c6564206f666665722063616e6e6f74206265207570646160008201527f7465640000000000000000000000000000000000000000000000000000000000602082015250565b6000612d9c602383612c31565b9150612da782612d40565b604082019050919050565b60006020820190508181036000830152612dcb81612d8f565b9050919050565b7f416e206f666665722063616e6e6f74206265207570646174656420616674657260008201527f2063616e63656c65640000000000000000000000000000000000000000000000602082015250565b6000612e2e602983612c31565b9150612e3982612dd2565b604082019050919050565b60006020820190508181036000830152612e5d81612e21565b9050919050565b6000604082019050612e7960008301856127b7565b612e8660208301846127b7565b9392505050565b7f5468652061756374696f6e206d75737420657869737400000000000000000000600082015250565b6000612ec3601683612c31565b9150612ece82612e8d565b602082019050919050565b60006020820190508181036000830152612ef281612eb6565b9050919050565b7f41756374696f6e2068617320656e646564000000000000000000000000000000600082015250565b6000612f2f601183612c31565b9150612f3a82612ef9565b602082019050919050565b60006020820190508181036000830152612f5e81612f22565b9050919050565b7f546865206f776e6572206f66207468652061756374696f6e2063616e6e6f742060008201527f6269642069740000000000000000000000000000000000000000000000000000602082015250565b6000612fc1602683612c31565b9150612fcc82612f65565b604082019050919050565b60006020820190508181036000830152612ff081612fb4565b9050919050565b7f4e487b7100000000000000000000000000000000000000000000000000000000600052601260045260246000fd5b600061303182612741565b915061303c83612741565b92508261304c5761304b612ff7565b5b828204905092915050565b600061306282612741565b915061306d83612741565b9250817fffffffffffffffffffffffffffffffffffffffffffffffffffffffffffffffff04831182151516156130a6576130a5612b58565b5b828202905092915050565b60006130bc82612741565b91506130c783612741565b9250827fffffffffffffffffffffffffffffffffffffffffffffffffffffffffffffffff038211156130fc576130fb612b58565b5b828201905092915050565b7f5468652045544820616d6f756e742073686f756c64206265206d6f726520746860008201527f616e2031313025206f66204e4654206869676865737420626964205072696365602082015250565b6000613163604083612c31565b915061316e82613107565b604082019050919050565b6000602082019050818103600083015261319281613156565b9050919050565b60006131a482612741565b91506131af83612741565b9250828210156131c2576131c1612b58565b5b828203905092915050565b60006080820190506131e260008301876127b7565b6131ef60208301866127b7565b6131fc6040830185612899565b61320960608301846127b7565b95945050505050565b7f41756374696f6e2073686f756c6420626520656e646564000000000000000000600082015250565b6000613248601783612c31565b915061325382613212565b602082019050919050565b600060208201905081810360008301526132778161323b565b9050919050565b600060a08201905061329360008301886127b7565b6132a06020830187612899565b6132ad60408301866127b7565b6132ba6060830185612899565b6132c760808301846127b7565b9695505050505050565b7f546865206f776e6572206f6620746865206f666665722063616e6e6f7420666960008201527f6c6c206974000000000000000000000000000000000000000000000000000000602082015250565b600061332d602583612c31565b9150613338826132d1565b604082019050919050565b6000602082019050818103600083015261335c81613320565b9050919050565b7f416e206f666665722063616e6e6f742062652066756c66696c6c65642074776960008201527f6365000000000000000000000000000000000000000000000000000000000000602082015250565b60006133bf602283612c31565b91506133ca82613363565b604082019050919050565b600060208201905081810360008301526133ee816133b2565b9050919050565b7f412063616e63656c6c6564206f666665722063616e6e6f742062652066756c6660008201527f696c6c6564000000000000000000000000000000000000000000000000000000602082015250565b6000613451602583612c31565b915061345c826133f5565b604082019050919050565b6000602082019050818103600083015261348081613444565b9050919050565b7f5468652045544820616d6f756e742073686f756c64206d61746368207769746860008201527f20746865204e4654205072696365000000000000000000000000000000000000602082015250565b60006134e3602e83612c31565b91506134ee82613487565b604082019050919050565b60006020820190508181036000830152613512816134d6565b9050919050565b600060608201905061352e60008301866127b7565b61353b60208301856127b7565b6135486040830184612899565b949350505050565b7f546865206f6e6c79206f776e6572206f66207468652061756374696f6e20636160008201527f6e2063616e63656c206974000000000000000000000000000000000000000000602082015250565b60006135ac602b83612c31565b91506135b782613550565b604082019050919050565b600060208201905081810360008301526135db8161359f565b9050919050565b7f54686520626964206d757374206e6f7420657869737400000000000000000000600082015250565b6000613618601683612c31565b9150613623826135e2565b602082019050919050565b600060208201905081810360008301526136478161360b565b9050919050565b600060408201905061366360008301856127b7565b6136706020830184612899565b9392505050565b7f4f6e6c792068696768657374206269646465722063616e2063616e63656c207460008201527f6865206269640000000000000000000000000000000000000000000000000000602082015250565b60006136d3602683612c31565b91506136de82613677565b604082019050919050565b60006020820190508181036000830152613702816136c6565b9050919050565b7f54686973207573657220686173206e6f2066756e647320746f20626520636c6160008201527f696d656400000000000000000000000000000000000000000000000000000000602082015250565b6000613765602483612c31565b915061377082613709565b604082019050919050565b6000602082019050818103600083015261379481613758565b9050919050565b60006040820190506137b06000830185612899565b6137bd60208301846127b7565b9392505050565b60006080820190506137d960008301876127b7565b6137e660208301866127b7565b6137f360408301856127b7565b6138006060830184612899565b95945050505050565b6000815190506138188161274b565b92915050565b6000602082840312156138345761383361273c565b5b600061384284828501613809565b91505092915050565b7f4e487b7100000000000000000000000000000000000000000000000000000000600052604160045260246000fd5b7f4e487b7100000000000000000000000000000000000000000000000000000000600052603260045260246000fd5b7f546865206f666665722063616e206f6e6c792062652063616e63656c6564206260008201527f7920746865206f776e6572000000000000000000000000000000000000000000602082015250565b6000613905602b83612c31565b9150613910826138a9565b604082019050919050565b60006020820190508181036000830152613934816138f8565b9050919050565b7f412066756c66696c6c6564206f666665722063616e6e6f742062652063616e6360008201527f656c6c6564000000000000000000000000000000000000000000000000000000602082015250565b6000613997602583612c31565b91506139a28261393b565b604082019050919050565b600060208201905081810360008301526139c68161398a565b9050919050565b7f416e206f666665722063616e6e6f742062652063616e63656c6c65642074776960008201527f6365000000000000000000000000000000000000000000000000000000000000602082015250565b6000613a29602283612c31565b9150613a34826139cd565b604082019050919050565b60006020820190508181036000830152613a5881613a1c565b9050919050565b600081519050613a6e81612840565b92915050565b600060208284031215613a8a57613a8961273c565b5b6000613a9884828501613a5f565b9150509291505056fea264697066735822122071f37a3aaba1889ea25df60f3fb19ed8dc8ea4de28a5ac6317cc291b342e12c564736f6c634300080b0033",
  "immutableReferences": {},
  "source": "// SPDX-License-Identifier: MIT\r\npragma solidity ^0.8.0;\r\n\r\nimport \"./NFTCollection.sol\";\r\n\r\ncontract NFTMarketplace {\r\n    uint256 public offerCount;\r\n    uint256 marketFee = 250;\r\n    mapping(uint256 => _Offer) public offers;\r\n    mapping(address => uint256) public userFunds;\r\n    mapping(uint256 => Auction) public nftAuctions;\r\n    NFTCollection nftCollection;\r\n    address private _owner;\r\n\r\n    struct _Offer {\r\n        uint256 offerId;\r\n        uint256 id;\r\n        uint256 price;\r\n        address user;\r\n        bool fulfilled;\r\n        bool cancelled;\r\n    }\r\n\r\n    struct Auction {\r\n        //map token ID to\r\n        uint256 buyNowPrice;\r\n        uint256 nftHighestBid;\r\n        uint256 auctionEnd;\r\n        address nftHighestBidder;\r\n        address nftSeller;\r\n    }\r\n\r\n    event Offer(\r\n        uint256 offerId,\r\n        uint256 id,\r\n        address user,\r\n        uint256 price,\r\n        bool fulfilled,\r\n        bool cancelled\r\n    );\r\n\r\n    event NftAuctionCreated(\r\n        uint256 auctionEnd,\r\n        uint256 buyNowPrice,\r\n        uint256 tokenId,\r\n        address nftSeller\r\n    );\r\n\r\n    event NftAuctionCanceled(uint256 tokenId, address nftSeller);\r\n    event NftAuctionSettled(\r\n        uint256 tokenId,\r\n        address nftSeller,\r\n        uint256 buyNowPrice,\r\n        address winner,\r\n        uint256 price\r\n    );\r\n\r\n    event BidCreated(\r\n        uint256 tokenId,\r\n        uint256 nftHighestBid,\r\n        address nftHighestBidder,\r\n        uint256 auctionEnd\r\n    );\r\n\r\n    event BidCanceled(uint256 tokenId);\r\n\r\n    event OfferFilled(uint256 offerId, uint256 id, address newOwner);\r\n    event OfferUpdated(uint256 offerId, uint256 price);\r\n    event OfferCancelled(uint256 offerId, uint256 id, address owner);\r\n    event ClaimFunds(address user, uint256 amount);\r\n\r\n    constructor(address _nftCollection) {\r\n        nftCollection = NFTCollection(_nftCollection);\r\n        _owner = msg.sender;\r\n    }\r\n\r\n    modifier onlyOwner() {\r\n        require(msg.sender == _owner);\r\n        _;\r\n    }\r\n\r\n    function _marketTransfer(\r\n        uint256 _price,\r\n        uint256 _tokenId,\r\n        address _receiver\r\n    ) internal {\r\n        require(_price > 0);\r\n        uint256 royalty = nftCollection.royalty(_tokenId);\r\n        address inventor = nftCollection.inventor(_tokenId);\r\n        userFunds[_owner] += (_price * marketFee) / 10000;\r\n        userFunds[inventor] += (_price * royalty) / 10000;\r\n        userFunds[_receiver] +=\r\n            _price -\r\n            (_price * (marketFee + royalty)) /\r\n            10000;\r\n    }\r\n\r\n    function makeOffer(uint256 _id, uint256 _price) public {\r\n        nftCollection.transferFrom(msg.sender, address(this), _id);\r\n        offerCount++;\r\n        offers[offerCount] = _Offer(\r\n            offerCount,\r\n            _id,\r\n            _price,\r\n            msg.sender,\r\n            false,\r\n            false\r\n        );\r\n        emit Offer(offerCount, _id, msg.sender, _price, false, false);\r\n    }\r\n\r\n    function fillOffer(uint256 _offerId) public payable {\r\n        _Offer storage _offer = offers[_offerId];\r\n        require(_offer.offerId == _offerId, \"The offer must exist\");\r\n        require(\r\n            _offer.user != msg.sender,\r\n            \"The owner of the offer cannot fill it\"\r\n        );\r\n        require(!_offer.fulfilled, \"An offer cannot be fulfilled twice\");\r\n        require(!_offer.cancelled, \"A cancelled offer cannot be fulfilled\");\r\n\r\n        require(\r\n            msg.value + userFunds[msg.sender] >= _offer.price,\r\n            \"The ETH amount should match with the NFT Price\"\r\n        );\r\n        nftCollection.transferFrom(address(this), msg.sender, _offer.id);\r\n        _offer.fulfilled = true;\r\n        _marketTransfer(msg.value, _offer.id, _offer.user);\r\n        userFunds[msg.sender] -= _offer.price - msg.value;\r\n        emit OfferFilled(_offerId, _offer.id, msg.sender);\r\n    }\r\n\r\n    function cancelOffer(uint256 _offerId) public {\r\n        _Offer storage _offer = offers[_offerId];\r\n        require(_offer.offerId == _offerId, \"The offer must exist\");\r\n        require(\r\n            _offer.user == msg.sender,\r\n            \"The offer can only be canceled by the owner\"\r\n        );\r\n        require(\r\n            _offer.fulfilled == false,\r\n            \"A fulfilled offer cannot be cancelled\"\r\n        );\r\n        require(\r\n            _offer.cancelled == false,\r\n            \"An offer cannot be cancelled twice\"\r\n        );\r\n        nftCollection.transferFrom(address(this), msg.sender, _offer.id);\r\n        _offer.cancelled = true;\r\n        emit OfferCancelled(_offerId, _offer.id, msg.sender);\r\n    }\r\n\r\n    function updateOffer(uint256 _offerId, uint256 _price) public {\r\n        _Offer storage _offer = offers[_offerId];\r\n        require(_offer.offerId == _offerId, \"The offer must exist\");\r\n        require(\r\n            _offer.user == msg.sender,\r\n            \"The offer can only be updated by the owner\"\r\n        );\r\n        require(\r\n            _offer.fulfilled == false,\r\n            \"A fulfilled offer cannot be updated\"\r\n        );\r\n        require(\r\n            _offer.cancelled == false,\r\n            \"An offer cannot be updated after canceled\"\r\n        );\r\n\r\n        _offer.price = _price;\r\n        emit OfferUpdated(_offerId, _price);\r\n    }\r\n\r\n    function getAuctions() external view returns (Auction[] memory) {\r\n        uint256 total = nftCollection.totalSupply();\r\n        Auction[] memory result = new Auction[](total);\r\n        for (uint256 i = 0; i < total; i++) {\r\n            result[i] = nftAuctions[nftCollection.tokenByIndex(i)];\r\n        }\r\n        return result;\r\n    }\r\n\r\n    function makeAuction(\r\n        uint256 _tokenId,\r\n        uint256 _price,\r\n        uint256 period\r\n    ) public {\r\n        nftCollection.transferFrom(msg.sender, address(this), _tokenId);\r\n\r\n        nftAuctions[_tokenId].buyNowPrice = _price;\r\n        nftAuctions[_tokenId].auctionEnd = block.timestamp + period * 1 hours;\r\n        nftAuctions[_tokenId].nftSeller = msg.sender;\r\n\r\n        emit NftAuctionCreated(\r\n            nftAuctions[_tokenId].auctionEnd,\r\n            _price,\r\n            _tokenId,\r\n            msg.sender\r\n        );\r\n    }\r\n\r\n    function cancelAuction(uint256 _tokenId) public {\r\n        require(\r\n            nftAuctions[_tokenId].nftSeller == msg.sender,\r\n            \"The only owner of the auction can cancel it\"\r\n        );\r\n        require(\r\n            nftAuctions[_tokenId].nftHighestBid <\r\n                nftAuctions[_tokenId].buyNowPrice,\r\n            \"The bid must not exist\"\r\n        );\r\n        nftCollection.transferFrom(address(this), msg.sender, _tokenId);\r\n\r\n        nftAuctions[_tokenId].buyNowPrice = 0;\r\n        nftAuctions[_tokenId].auctionEnd = 0;\r\n        nftAuctions[_tokenId].nftSeller = address(0);\r\n\r\n        emit NftAuctionCanceled(_tokenId, msg.sender);\r\n    }\r\n\r\n    function settleAuction(uint256 _tokenId) public {\r\n        require(\r\n            nftAuctions[_tokenId].nftSeller != address(0),\r\n            \"The auction must exist\"\r\n        );\r\n        require(\r\n            nftAuctions[_tokenId].auctionEnd <= block.timestamp,\r\n            \"Auction should be ended\"\r\n        );\r\n\r\n        emit NftAuctionSettled(\r\n            _tokenId,\r\n            nftAuctions[_tokenId].nftSeller,\r\n            nftAuctions[_tokenId].buyNowPrice,\r\n            nftAuctions[_tokenId].nftHighestBidder,\r\n            nftAuctions[_tokenId].nftHighestBid\r\n        );\r\n\r\n        if (nftAuctions[_tokenId].nftHighestBidder != address(0)) {\r\n            _marketTransfer(\r\n                nftAuctions[_tokenId].nftHighestBid -\r\n                    nftAuctions[_tokenId].nftHighestBid /\r\n                    10,\r\n                _tokenId,\r\n                nftAuctions[_tokenId].nftSeller\r\n            );\r\n        }\r\n\r\n        nftAuctions[_tokenId].buyNowPrice = 0;\r\n        nftAuctions[_tokenId].auctionEnd = 0;\r\n        nftAuctions[_tokenId].nftSeller = address(0);\r\n        nftAuctions[_tokenId].nftHighestBid = 0;\r\n        nftAuctions[_tokenId].nftHighestBidder = address(0);\r\n    }\r\n\r\n    function makeBid(uint256 _tokenId) public payable {\r\n        require(\r\n            nftAuctions[_tokenId].nftSeller != address(0),\r\n            \"The auction must exist\"\r\n        );\r\n        require(\r\n            nftAuctions[_tokenId].auctionEnd > block.timestamp,\r\n            \"Auction has ended\"\r\n        );\r\n        require(\r\n            nftAuctions[_tokenId].nftSeller != msg.sender,\r\n            \"The owner of the auction cannot bid it\"\r\n        );\r\n        uint256 limit = nftAuctions[_tokenId].nftHighestBid;\r\n        if (limit > nftAuctions[_tokenId].buyNowPrice) {\r\n            if (limit / 10 > 0.01 ether) limit = (limit * 11) / 10;\r\n            else limit += 0.01 ether;\r\n        } else limit = nftAuctions[_tokenId].buyNowPrice;\r\n        require(\r\n            msg.value >= limit,\r\n            \"The ETH amount should be more than 110% of NFT highest bid Price\"\r\n        );\r\n\r\n        address _receiver = nftAuctions[_tokenId].nftHighestBidder;\r\n        if (_receiver == address(0)) {\r\n            _receiver = nftAuctions[_tokenId].nftSeller;\r\n            _marketTransfer(msg.value / 10, _tokenId, _receiver);\r\n        } else\r\n            userFunds[_receiver] +=\r\n                nftAuctions[_tokenId].nftHighestBid -\r\n                nftAuctions[_tokenId].nftHighestBid /\r\n                10 +\r\n                msg.value /\r\n                10;\r\n\r\n        nftAuctions[_tokenId].nftHighestBidder = msg.sender;\r\n        nftAuctions[_tokenId].nftHighestBid = msg.value;\r\n        if (nftAuctions[_tokenId].auctionEnd < block.timestamp + 10 minutes)\r\n            nftAuctions[_tokenId].auctionEnd = block.timestamp + 10 minutes;\r\n\r\n        emit BidCreated(\r\n            _tokenId,\r\n            nftAuctions[_tokenId].nftHighestBid,\r\n            msg.sender,\r\n            nftAuctions[_tokenId].auctionEnd\r\n        );\r\n    }\r\n\r\n    function cancelBid(uint256 _tokenId) public {\r\n        require(\r\n            nftAuctions[_tokenId].nftSeller != address(0),\r\n            \"The auction must exist\"\r\n        );\r\n        require(\r\n            nftAuctions[_tokenId].auctionEnd > block.timestamp,\r\n            \"Auction has ended\"\r\n        );\r\n        require(\r\n            msg.sender == nftAuctions[_tokenId].nftHighestBidder,\r\n            \"Only highest bidder can cancel the bid\"\r\n        );\r\n\r\n        userFunds[msg.sender] =\r\n            nftAuctions[_tokenId].nftHighestBid -\r\n            nftAuctions[_tokenId].nftHighestBid /\r\n            10;\r\n        nftAuctions[_tokenId].nftHighestBidder = address(0);\r\n        nftAuctions[_tokenId].nftHighestBid = 0;\r\n\r\n        emit BidCanceled(_tokenId);\r\n    }\r\n\r\n    function claimFunds() public {\r\n        require(\r\n            userFunds[msg.sender] > 0,\r\n            \"This user has no funds to be claimed\"\r\n        );\r\n        payable(msg.sender).transfer(userFunds[msg.sender]);\r\n        emit ClaimFunds(msg.sender, userFunds[msg.sender]);\r\n        userFunds[msg.sender] = 0;\r\n    }\r\n\r\n    function transferOwnership(address newOwner) public onlyOwner {\r\n        require(newOwner != address(0));\r\n        _owner = newOwner;\r\n    }\r\n\r\n    // Fallback: reverts if Ether is sent to this smart-contract by mistake\r\n    fallback() external {\r\n        revert();\r\n    }\r\n}\r\n",
  "sourcePath": "C:\\Users\\Tiger\\3D Objects\\nft-marketplace\\src\\contracts\\NFTMarketplace.sol",
  "compiler": {
    "name": "solc",
    "version": "0.8.11+commit.d7f03943.Emscripten.clang"
  },
  "schemaVersion": "3.4.3",
  "updatedAt": "2021-12-26T14:53:46.548Z",
  "networkType": "ethereum",
  "devdoc": {
    "kind": "dev",
    "methods": {},
    "version": 1
  },
  "userdoc": {
    "kind": "user",
    "methods": {},
    "version": 1
  }
}