{
  "contractName": "NFTMarketplace",
  "abi": [
    {
      "inputs": [
        {
          "internalType": "address",
          "name": "_nftCollection",
          "type": "address"
        }
      ],
      "stateMutability": "nonpayable",
      "type": "constructor"
    },
    {
      "anonymous": false,
      "inputs": [
        {
          "indexed": false,
          "internalType": "uint256",
          "name": "tokenId",
          "type": "uint256"
        }
      ],
      "name": "BidCanceled",
      "type": "event"
    },
    {
      "anonymous": false,
      "inputs": [
        {
          "indexed": false,
          "internalType": "uint256",
          "name": "tokenId",
          "type": "uint256"
        },
        {
          "indexed": false,
          "internalType": "uint256",
          "name": "nftHighestBid",
          "type": "uint256"
        },
        {
          "indexed": false,
          "internalType": "address",
          "name": "nftHighestBidder",
          "type": "address"
        },
        {
          "indexed": false,
          "internalType": "uint256",
          "name": "auctionEnd",
          "type": "uint256"
        }
      ],
      "name": "BidCreated",
      "type": "event"
    },
    {
      "anonymous": false,
      "inputs": [
        {
          "indexed": false,
          "internalType": "address",
          "name": "user",
          "type": "address"
        },
        {
          "indexed": false,
          "internalType": "uint256",
          "name": "amount",
          "type": "uint256"
        }
      ],
      "name": "ClaimFunds",
      "type": "event"
    },
    {
      "anonymous": false,
      "inputs": [
        {
          "indexed": false,
          "internalType": "uint256",
          "name": "tokenId",
          "type": "uint256"
        },
        {
          "indexed": false,
          "internalType": "address",
          "name": "nftSeller",
          "type": "address"
        }
      ],
      "name": "NftAuctionCanceled",
      "type": "event"
    },
    {
      "anonymous": false,
      "inputs": [
        {
          "indexed": false,
          "internalType": "uint256",
          "name": "auctionEnd",
          "type": "uint256"
        },
        {
          "indexed": false,
          "internalType": "uint256",
          "name": "buyNowPrice",
          "type": "uint256"
        },
        {
          "indexed": false,
          "internalType": "uint256",
          "name": "tokenId",
          "type": "uint256"
        },
        {
          "indexed": false,
          "internalType": "address",
          "name": "nftSeller",
          "type": "address"
        }
      ],
      "name": "NftAuctionCreated",
      "type": "event"
    },
    {
      "anonymous": false,
      "inputs": [
        {
          "indexed": false,
          "internalType": "uint256",
          "name": "tokenId",
          "type": "uint256"
        },
        {
          "indexed": false,
          "internalType": "address",
          "name": "nftSeller",
          "type": "address"
        },
        {
          "indexed": false,
          "internalType": "uint256",
          "name": "buyNowPrice",
          "type": "uint256"
        },
        {
          "indexed": false,
          "internalType": "address",
          "name": "winner",
          "type": "address"
        },
        {
          "indexed": false,
          "internalType": "uint256",
          "name": "price",
          "type": "uint256"
        }
      ],
      "name": "NftAuctionSettled",
      "type": "event"
    },
    {
      "anonymous": false,
      "inputs": [
        {
          "indexed": false,
          "internalType": "uint256",
          "name": "offerId",
          "type": "uint256"
        },
        {
          "indexed": false,
          "internalType": "uint256",
          "name": "id",
          "type": "uint256"
        },
        {
          "indexed": false,
          "internalType": "address",
          "name": "user",
          "type": "address"
        },
        {
          "indexed": false,
          "internalType": "uint256",
          "name": "price",
          "type": "uint256"
        },
        {
          "indexed": false,
          "internalType": "bool",
          "name": "fulfilled",
          "type": "bool"
        },
        {
          "indexed": false,
          "internalType": "bool",
          "name": "cancelled",
          "type": "bool"
        }
      ],
      "name": "Offer",
      "type": "event"
    },
    {
      "anonymous": false,
      "inputs": [
        {
          "indexed": false,
          "internalType": "uint256",
          "name": "offerId",
          "type": "uint256"
        },
        {
          "indexed": false,
          "internalType": "uint256",
          "name": "id",
          "type": "uint256"
        },
        {
          "indexed": false,
          "internalType": "address",
          "name": "owner",
          "type": "address"
        }
      ],
      "name": "OfferCancelled",
      "type": "event"
    },
    {
      "anonymous": false,
      "inputs": [
        {
          "indexed": false,
          "internalType": "uint256",
          "name": "offerId",
          "type": "uint256"
        },
        {
          "indexed": false,
          "internalType": "uint256",
          "name": "id",
          "type": "uint256"
        },
        {
          "indexed": false,
          "internalType": "address",
          "name": "newOwner",
          "type": "address"
        }
      ],
      "name": "OfferFilled",
      "type": "event"
    },
    {
      "stateMutability": "nonpayable",
      "type": "fallback"
    },
    {
      "inputs": [
        {
          "internalType": "uint256",
          "name": "",
          "type": "uint256"
        }
      ],
      "name": "nftAuctions",
      "outputs": [
        {
          "internalType": "uint256",
          "name": "buyNowPrice",
          "type": "uint256"
        },
        {
          "internalType": "uint256",
          "name": "nftHighestBid",
          "type": "uint256"
        },
        {
          "internalType": "uint256",
          "name": "auctionEnd",
          "type": "uint256"
        },
        {
          "internalType": "address",
          "name": "nftHighestBidder",
          "type": "address"
        },
        {
          "internalType": "address",
          "name": "nftSeller",
          "type": "address"
        }
      ],
      "stateMutability": "view",
      "type": "function",
      "constant": true
    },
    {
      "inputs": [],
      "name": "offerCount",
      "outputs": [
        {
          "internalType": "uint256",
          "name": "",
          "type": "uint256"
        }
      ],
      "stateMutability": "view",
      "type": "function",
      "constant": true
    },
    {
      "inputs": [
        {
          "internalType": "uint256",
          "name": "",
          "type": "uint256"
        }
      ],
      "name": "offers",
      "outputs": [
        {
          "internalType": "uint256",
          "name": "offerId",
          "type": "uint256"
        },
        {
          "internalType": "uint256",
          "name": "id",
          "type": "uint256"
        },
        {
          "internalType": "uint256",
          "name": "price",
          "type": "uint256"
        },
        {
          "internalType": "address",
          "name": "user",
          "type": "address"
        },
        {
          "internalType": "bool",
          "name": "fulfilled",
          "type": "bool"
        },
        {
          "internalType": "bool",
          "name": "cancelled",
          "type": "bool"
        }
      ],
      "stateMutability": "view",
      "type": "function",
      "constant": true
    },
    {
      "inputs": [
        {
          "internalType": "address",
          "name": "",
          "type": "address"
        }
      ],
      "name": "userFunds",
      "outputs": [
        {
          "internalType": "uint256",
          "name": "",
          "type": "uint256"
        }
      ],
      "stateMutability": "view",
      "type": "function",
      "constant": true
    },
    {
      "inputs": [
        {
          "internalType": "uint256",
          "name": "_id",
          "type": "uint256"
        },
        {
          "internalType": "uint256",
          "name": "_price",
          "type": "uint256"
        }
      ],
      "name": "makeOffer",
      "outputs": [],
      "stateMutability": "nonpayable",
      "type": "function"
    },
    {
      "inputs": [
        {
          "internalType": "uint256",
          "name": "_offerId",
          "type": "uint256"
        }
      ],
      "name": "fillOffer",
      "outputs": [],
      "stateMutability": "payable",
      "type": "function",
      "payable": true
    },
    {
      "inputs": [
        {
          "internalType": "uint256",
          "name": "_offerId",
          "type": "uint256"
        }
      ],
      "name": "cancelOffer",
      "outputs": [],
      "stateMutability": "nonpayable",
      "type": "function"
    },
    {
      "inputs": [
        {
          "internalType": "uint256",
          "name": "_offerId",
          "type": "uint256"
        },
        {
          "internalType": "uint256",
          "name": "_price",
          "type": "uint256"
        }
      ],
      "name": "updateOffer",
      "outputs": [],
      "stateMutability": "nonpayable",
      "type": "function"
    },
    {
      "inputs": [
        {
          "internalType": "uint256",
          "name": "_tokenId",
          "type": "uint256"
        },
        {
          "internalType": "uint256",
          "name": "_price",
          "type": "uint256"
        },
        {
          "internalType": "uint256",
          "name": "period",
          "type": "uint256"
        }
      ],
      "name": "makeAuction",
      "outputs": [],
      "stateMutability": "nonpayable",
      "type": "function"
    },
    {
      "inputs": [
        {
          "internalType": "uint256",
          "name": "_tokenId",
          "type": "uint256"
        }
      ],
      "name": "cancelAuction",
      "outputs": [],
      "stateMutability": "nonpayable",
      "type": "function"
    },
    {
      "inputs": [
        {
          "internalType": "uint256",
          "name": "_tokenId",
          "type": "uint256"
        }
      ],
      "name": "settleAuction",
      "outputs": [],
      "stateMutability": "nonpayable",
      "type": "function"
    },
    {
      "inputs": [
        {
          "internalType": "uint256",
          "name": "_tokenId",
          "type": "uint256"
        }
      ],
      "name": "makeBid",
      "outputs": [],
      "stateMutability": "payable",
      "type": "function",
      "payable": true
    },
    {
      "inputs": [
        {
          "internalType": "uint256",
          "name": "_tokenId",
          "type": "uint256"
        }
      ],
      "name": "cancelBid",
      "outputs": [],
      "stateMutability": "nonpayable",
      "type": "function"
    },
    {
      "inputs": [],
      "name": "claimFunds",
      "outputs": [],
      "stateMutability": "nonpayable",
      "type": "function"
    },
    {
      "inputs": [
        {
          "internalType": "address",
          "name": "newOwner",
          "type": "address"
        }
      ],
      "name": "transferOwnership",
      "outputs": [],
      "stateMutability": "nonpayable",
      "type": "function"
    }
  ],
  "bytecode": "0x608060405260fa6001553480156200001657600080fd5b506040516200361c3803806200361c83398181016040528101906200003c91906200012f565b80600560006101000a81548173ffffffffffffffffffffffffffffffffffffffff021916908373ffffffffffffffffffffffffffffffffffffffff16021790555033600660006101000a81548173ffffffffffffffffffffffffffffffffffffffff021916908373ffffffffffffffffffffffffffffffffffffffff1602179055505062000161565b600080fd5b600073ffffffffffffffffffffffffffffffffffffffff82169050919050565b6000620000f782620000ca565b9050919050565b6200010981620000ea565b81146200011557600080fd5b50565b6000815190506200012981620000fe565b92915050565b600060208284031215620001485762000147620000c5565b5b6000620001588482850162000118565b91505092915050565b6134ab80620001716000396000f3fe6080604052600436106100ec5760003560e01c80638a72ea6a1161008a578063ac30777311610059578063ac307773146102ef578063d04d5d7214610306578063ef706adf1461032f578063f2fde38b14610358576100ed565b80638a72ea6a1461021a57806393cde51a1461025c57806396b5a7551461029d5780639703ef35146102c6576100ed565b8063175b2304116100c6578063175b23041461017c5780632e993611146101985780638387c6e1146101c157806385dba861146101fe576100ed565b806305b7cdd3146100ff5780630b7b925b146101285780631115c24d14610151576100ed565b5b3480156100f957600080fd5b50600080fd5b34801561010b57600080fd5b50610126600480360381019061012191906123bb565b610381565b005b34801561013457600080fd5b5061014f600480360381019061014a91906123bb565b610578565b005b34801561015d57600080fd5b50610166610713565b604051610173919061240a565b60405180910390f35b61019660048036038101906101919190612425565b610719565b005b3480156101a457600080fd5b506101bf60048036038101906101ba9190612425565b610c27565b005b3480156101cd57600080fd5b506101e860048036038101906101e391906124b0565b610fee565b6040516101f5919061240a565b60405180910390f35b61021860048036038101906102139190612425565b611006565b005b34801561022657600080fd5b50610241600480360381019061023c9190612425565b6113b8565b60405161025396959493929190612507565b60405180910390f35b34801561026857600080fd5b50610283600480360381019061027e9190612425565b61142e565b604051610294959493929190612568565b60405180910390f35b3480156102a957600080fd5b506102c460048036038101906102bf9190612425565b6114a4565b005b3480156102d257600080fd5b506102ed60048036038101906102e89190612425565b611712565b005b3480156102fb57600080fd5b506103046119e7565b005b34801561031257600080fd5b5061032d600480360381019061032891906125bb565b611bae565b005b34801561033b57600080fd5b5061035660048036038101906103519190612425565b611d3a565b005b34801561036457600080fd5b5061037f600480360381019061037a91906124b0565b611fce565b005b600560009054906101000a900473ffffffffffffffffffffffffffffffffffffffff1673ffffffffffffffffffffffffffffffffffffffff166323b872dd3330856040518463ffffffff1660e01b81526004016103e09392919061260e565b600060405180830381600087803b1580156103fa57600080fd5b505af115801561040e573d6000803e3d6000fd5b5050505060008081548092919061042490612674565b91905055506040518060c0016040528060005481526020018381526020018281526020013373ffffffffffffffffffffffffffffffffffffffff16815260200160001515815260200160001515815250600260008054815260200190815260200160002060008201518160000155602082015181600101556040820151816002015560608201518160030160006101000a81548173ffffffffffffffffffffffffffffffffffffffff021916908373ffffffffffffffffffffffffffffffffffffffff16021790555060808201518160030160146101000a81548160ff02191690831515021790555060a08201518160030160156101000a81548160ff0219169083151502179055509050507f93e711896d4ef527d199d7e101922e20f918cbb248a0fb0977c52fda24aa1f1d60005483338460008060405161056c969594939291906126bd565b60405180910390a15050565b6000600260008481526020019081526020016000209050828160000154146105d5576040517f08c379a00000000000000000000000000000000000000000000000000000000081526004016105cc9061277b565b60405180910390fd5b3373ffffffffffffffffffffffffffffffffffffffff168160030160009054906101000a900473ffffffffffffffffffffffffffffffffffffffff1673ffffffffffffffffffffffffffffffffffffffff1614610667576040517f08c379a000000000000000000000000000000000000000000000000000000000815260040161065e9061280d565b60405180910390fd5b600015158160030160149054906101000a900460ff161515146106bf576040517f08c379a00000000000000000000000000000000000000000000000000000000081526004016106b69061289f565b60405180910390fd5b8181600201819055507f93e711896d4ef527d199d7e101922e20f918cbb248a0fb0977c52fda24aa1f1d8382600101543385600080604051610706969594939291906126bd565b60405180910390a1505050565b60005481565b600073ffffffffffffffffffffffffffffffffffffffff166004600083815260200190815260200160002060040160009054906101000a900473ffffffffffffffffffffffffffffffffffffffff1673ffffffffffffffffffffffffffffffffffffffff1614156107bf576040517f08c379a00000000000000000000000000000000000000000000000000000000081526004016107b69061290b565b60405180910390fd5b42600460008381526020019081526020016000206002015411610817576040517f08c379a000000000000000000000000000000000000000000000000000000000815260040161080e90612977565b60405180910390fd5b3373ffffffffffffffffffffffffffffffffffffffff166004600083815260200190815260200160002060040160009054906101000a900473ffffffffffffffffffffffffffffffffffffffff1673ffffffffffffffffffffffffffffffffffffffff1614156108bc576040517f08c379a00000000000000000000000000000000000000000000000000000000081526004016108b390612a09565b60405180910390fd5b600060046000838152602001908152602001600020600101549050600460008381526020019081526020016000206000015481101561094b57662386f26fc10000600a8261090a9190612a58565b111561093057600a600b8261091f9190612a89565b6109299190612a58565b9050610946565b662386f26fc10000816109439190612ae3565b90505b610965565b600460008381526020019081526020016000206000015490505b803410156109a8576040517f08c379a000000000000000000000000000000000000000000000000000000000815260040161099f90612bab565b60405180910390fd5b60006004600084815260200190815260200160002060030160009054906101000a900473ffffffffffffffffffffffffffffffffffffffff169050600073ffffffffffffffffffffffffffffffffffffffff168173ffffffffffffffffffffffffffffffffffffffff161415610a56576004600084815260200190815260200160002060040160009054906101000a900473ffffffffffffffffffffffffffffffffffffffff169050610ade565b600a6004600085815260200190815260200160002060010154610a799190612a58565b6004600085815260200190815260200160002060010154610a9a9190612bcb565b600360008373ffffffffffffffffffffffffffffffffffffffff1673ffffffffffffffffffffffffffffffffffffffff168152602001908152602001600020819055505b610af5600a34610aee9190612a58565b84836120a6565b336004600085815260200190815260200160002060030160006101000a81548173ffffffffffffffffffffffffffffffffffffffff021916908373ffffffffffffffffffffffffffffffffffffffff16021790555034600460008581526020019081526020016000206001018190555061025842610b739190612ae3565b60046000858152602001908152602001600020600201541015610bb95761025842610b9e9190612ae3565b60046000858152602001908152602001600020600201819055505b7f6d2b783673dbbf046f2e5a1f3c92ce62c29a0f5385f2b1f0eaf19019ef28cb55836004600086815260200190815260200160002060010154336004600088815260200190815260200160002060020154604051610c1a9493929190612bff565b60405180910390a1505050565b600073ffffffffffffffffffffffffffffffffffffffff166004600083815260200190815260200160002060040160009054906101000a900473ffffffffffffffffffffffffffffffffffffffff1673ffffffffffffffffffffffffffffffffffffffff161415610ccd576040517f08c379a0000000000000000000000000000000000000000000000000000000008152600401610cc49061290b565b60405180910390fd5b42600460008381526020019081526020016000206002015411610d25576040517f08c379a0000000000000000000000000000000000000000000000000000000008152600401610d1c90612c90565b60405180910390fd5b7fad0fc073c0346c2850f535b636bd929b71ae81fa3fdd2c79445b0b84ba612d4d816004600084815260200190815260200160002060040160009054906101000a900473ffffffffffffffffffffffffffffffffffffffff1660046000858152602001908152602001600020600001546004600086815260200190815260200160002060030160009054906101000a900473ffffffffffffffffffffffffffffffffffffffff166004600087815260200190815260200160002060010154604051610df4959493929190612cb0565b60405180910390a1600073ffffffffffffffffffffffffffffffffffffffff166004600083815260200190815260200160002060030160009054906101000a900473ffffffffffffffffffffffffffffffffffffffff1673ffffffffffffffffffffffffffffffffffffffff1614610eeb57610eea600a6004600084815260200190815260200160002060010154610e8c9190612a58565b6004600084815260200190815260200160002060010154610ead9190612bcb565b826004600085815260200190815260200160002060040160009054906101000a900473ffffffffffffffffffffffffffffffffffffffff166120a6565b5b600060046000838152602001908152602001600020600001819055506000600460008381526020019081526020016000206002018190555060006004600083815260200190815260200160002060040160006101000a81548173ffffffffffffffffffffffffffffffffffffffff021916908373ffffffffffffffffffffffffffffffffffffffff1602179055506000600460008381526020019081526020016000206001018190555060006004600083815260200190815260200160002060030160006101000a81548173ffffffffffffffffffffffffffffffffffffffff021916908373ffffffffffffffffffffffffffffffffffffffff16021790555050565b60036020528060005260406000206000915090505481565b600060026000838152602001908152602001600020905081816000015414611063576040517f08c379a000000000000000000000000000000000000000000000000000000000815260040161105a9061277b565b60405180910390fd5b3373ffffffffffffffffffffffffffffffffffffffff168160030160009054906101000a900473ffffffffffffffffffffffffffffffffffffffff1673ffffffffffffffffffffffffffffffffffffffff1614156110f6576040517f08c379a00000000000000000000000000000000000000000000000000000000081526004016110ed90612d75565b60405180910390fd5b8060030160149054906101000a900460ff1615611148576040517f08c379a000000000000000000000000000000000000000000000000000000000815260040161113f90612e07565b60405180910390fd5b8060030160159054906101000a900460ff161561119a576040517f08c379a000000000000000000000000000000000000000000000000000000000815260040161119190612e99565b60405180910390fd5b8060020154600360003373ffffffffffffffffffffffffffffffffffffffff1673ffffffffffffffffffffffffffffffffffffffff16815260200190815260200160002054346111ea9190612ae3565b101561122b576040517f08c379a000000000000000000000000000000000000000000000000000000000815260040161122290612f2b565b60405180910390fd5b600560009054906101000a900473ffffffffffffffffffffffffffffffffffffffff1673ffffffffffffffffffffffffffffffffffffffff166323b872dd303384600101546040518463ffffffff1660e01b815260040161128e9392919061260e565b600060405180830381600087803b1580156112a857600080fd5b505af11580156112bc573d6000803e3d6000fd5b5050505060018160030160146101000a81548160ff0219169083151502179055506113103482600101548360030160009054906101000a900473ffffffffffffffffffffffffffffffffffffffff166120a6565b3481600201546113209190612bcb565b600360003373ffffffffffffffffffffffffffffffffffffffff1673ffffffffffffffffffffffffffffffffffffffff168152602001908152602001600020600082825461136e9190612bcb565b925050819055507fd9157c065213ada613694e84b1e27fe2efd62d85c6b82bd6c842a4999491e72a828260010154336040516113ac93929190612f4b565b60405180910390a15050565b60026020528060005260406000206000915090508060000154908060010154908060020154908060030160009054906101000a900473ffffffffffffffffffffffffffffffffffffffff16908060030160149054906101000a900460ff16908060030160159054906101000a900460ff16905086565b60046020528060005260406000206000915090508060000154908060010154908060020154908060030160009054906101000a900473ffffffffffffffffffffffffffffffffffffffff16908060040160009054906101000a900473ffffffffffffffffffffffffffffffffffffffff16905085565b3373ffffffffffffffffffffffffffffffffffffffff166004600083815260200190815260200160002060040160009054906101000a900473ffffffffffffffffffffffffffffffffffffffff1673ffffffffffffffffffffffffffffffffffffffff161415611549576040517f08c379a000000000000000000000000000000000000000000000000000000000815260040161154090612ff4565b60405180910390fd5b60046000828152602001908152602001600020600001546004600083815260200190815260200160002060010154106115b7576040517f08c379a00000000000000000000000000000000000000000000000000000000081526004016115ae90613060565b60405180910390fd5b600560009054906101000a900473ffffffffffffffffffffffffffffffffffffffff1673ffffffffffffffffffffffffffffffffffffffff166323b872dd3033846040518463ffffffff1660e01b81526004016116169392919061260e565b600060405180830381600087803b15801561163057600080fd5b505af1158015611644573d6000803e3d6000fd5b50505050600060046000838152602001908152602001600020600001819055506000600460008381526020019081526020016000206002018190555060006004600083815260200190815260200160002060040160006101000a81548173ffffffffffffffffffffffffffffffffffffffff021916908373ffffffffffffffffffffffffffffffffffffffff1602179055507f9f338bd30f2b8df7becd5a8d2b41a9f9572ee4a9db023508e50c541285c8dc0e8133604051611707929190613080565b60405180910390a150565b600073ffffffffffffffffffffffffffffffffffffffff166004600083815260200190815260200160002060040160009054906101000a900473ffffffffffffffffffffffffffffffffffffffff1673ffffffffffffffffffffffffffffffffffffffff1614156117b8576040517f08c379a00000000000000000000000000000000000000000000000000000000081526004016117af9061290b565b60405180910390fd5b42600460008381526020019081526020016000206002015411611810576040517f08c379a000000000000000000000000000000000000000000000000000000000815260040161180790612977565b60405180910390fd5b6004600082815260200190815260200160002060030160009054906101000a900473ffffffffffffffffffffffffffffffffffffffff1673ffffffffffffffffffffffffffffffffffffffff163373ffffffffffffffffffffffffffffffffffffffff16146118b4576040517f08c379a00000000000000000000000000000000000000000000000000000000081526004016118ab9061311b565b60405180910390fd5b600a60046000838152602001908152602001600020600101546118d79190612a58565b60046000838152602001908152602001600020600101546118f89190612bcb565b600360003373ffffffffffffffffffffffffffffffffffffffff1673ffffffffffffffffffffffffffffffffffffffff1681526020019081526020016000208190555060006004600083815260200190815260200160002060030160006101000a81548173ffffffffffffffffffffffffffffffffffffffff021916908373ffffffffffffffffffffffffffffffffffffffff160217905550600060046000838152602001908152602001600020600101819055507ff72c9cb76aa633bc9310fa98738d474339fdf2f23dfac70ccbd65e593f6654df816040516119dc919061240a565b60405180910390a150565b6000600360003373ffffffffffffffffffffffffffffffffffffffff1673ffffffffffffffffffffffffffffffffffffffff1681526020019081526020016000205411611a69576040517f08c379a0000000000000000000000000000000000000000000000000000000008152600401611a60906131ad565b60405180910390fd5b3373ffffffffffffffffffffffffffffffffffffffff166108fc600360003373ffffffffffffffffffffffffffffffffffffffff1673ffffffffffffffffffffffffffffffffffffffff168152602001908152602001600020549081150290604051600060405180830381858888f19350505050158015611aee573d6000803e3d6000fd5b507f4f0554190111f93f8c2ccef2cc41473f187d7f29ff5a5c308ca41f9dfe4e989a33600360003373ffffffffffffffffffffffffffffffffffffffff1673ffffffffffffffffffffffffffffffffffffffff16815260200190815260200160002054604051611b5f9291906131cd565b60405180910390a16000600360003373ffffffffffffffffffffffffffffffffffffffff1673ffffffffffffffffffffffffffffffffffffffff16815260200190815260200160002081905550565b600560009054906101000a900473ffffffffffffffffffffffffffffffffffffffff1673ffffffffffffffffffffffffffffffffffffffff166323b872dd3330866040518463ffffffff1660e01b8152600401611c0d9392919061260e565b600060405180830381600087803b158015611c2757600080fd5b505af1158015611c3b573d6000803e3d6000fd5b50505050816004600085815260200190815260200160002060000181905550610e1081611c689190612a89565b42611c739190612ae3565b6004600085815260200190815260200160002060020181905550336004600085815260200190815260200160002060040160006101000a81548173ffffffffffffffffffffffffffffffffffffffff021916908373ffffffffffffffffffffffffffffffffffffffff1602179055507fa060a06376aad79320fcbff6f10eea7cd5f064d831e6aac4d2a8d1a80fa04ca46004600085815260200190815260200160002060020154838533604051611d2d94939291906131f6565b60405180910390a1505050565b600060026000838152602001908152602001600020905081816000015414611d97576040517f08c379a0000000000000000000000000000000000000000000000000000000008152600401611d8e9061277b565b60405180910390fd5b3373ffffffffffffffffffffffffffffffffffffffff168160030160009054906101000a900473ffffffffffffffffffffffffffffffffffffffff1673ffffffffffffffffffffffffffffffffffffffff1614611e29576040517f08c379a0000000000000000000000000000000000000000000000000000000008152600401611e20906132ad565b60405180910390fd5b600015158160030160149054906101000a900460ff16151514611e81576040517f08c379a0000000000000000000000000000000000000000000000000000000008152600401611e789061333f565b60405180910390fd5b600015158160030160159054906101000a900460ff16151514611ed9576040517f08c379a0000000000000000000000000000000000000000000000000000000008152600401611ed0906133d1565b60405180910390fd5b600560009054906101000a900473ffffffffffffffffffffffffffffffffffffffff1673ffffffffffffffffffffffffffffffffffffffff166323b872dd303384600101546040518463ffffffff1660e01b8152600401611f3c9392919061260e565b600060405180830381600087803b158015611f5657600080fd5b505af1158015611f6a573d6000803e3d6000fd5b5050505060018160030160156101000a81548160ff0219169083151502179055507f5b166b4d0498ff8c4719999cb6154c5d197e6f020f9fbfcf9d347f84576cfab782826001015433604051611fc293929190612f4b565b60405180910390a15050565b600660009054906101000a900473ffffffffffffffffffffffffffffffffffffffff1673ffffffffffffffffffffffffffffffffffffffff163373ffffffffffffffffffffffffffffffffffffffff161461202857600080fd5b600073ffffffffffffffffffffffffffffffffffffffff168173ffffffffffffffffffffffffffffffffffffffff16141561206257600080fd5b80600660006101000a81548173ffffffffffffffffffffffffffffffffffffffff021916908373ffffffffffffffffffffffffffffffffffffffff16021790555050565b600083116120b357600080fd5b6000600560009054906101000a900473ffffffffffffffffffffffffffffffffffffffff1673ffffffffffffffffffffffffffffffffffffffff1663e814cb71846040518263ffffffff1660e01b8152600401612110919061240a565b602060405180830381865afa15801561212d573d6000803e3d6000fd5b505050506040513d601f19601f820116820180604052508101906121519190613406565b90506000600560009054906101000a900473ffffffffffffffffffffffffffffffffffffffff1673ffffffffffffffffffffffffffffffffffffffff16634586b3a1856040518263ffffffff1660e01b81526004016121b0919061240a565b602060405180830381865afa1580156121cd573d6000803e3d6000fd5b505050506040513d601f19601f820116820180604052508101906121f19190613448565b9050612710600154866122049190612a89565b61220e9190612a58565b60036000600660009054906101000a900473ffffffffffffffffffffffffffffffffffffffff1673ffffffffffffffffffffffffffffffffffffffff1673ffffffffffffffffffffffffffffffffffffffff168152602001908152602001600020600082825461227e9190612ae3565b9250508190555061271082866122949190612a89565b61229e9190612a58565b600360008373ffffffffffffffffffffffffffffffffffffffff1673ffffffffffffffffffffffffffffffffffffffff16815260200190815260200160002060008282546122ec9190612ae3565b92505081905550612710826001546123049190612ae3565b8661230f9190612a89565b6123199190612a58565b856123249190612bcb565b600360008573ffffffffffffffffffffffffffffffffffffffff1673ffffffffffffffffffffffffffffffffffffffff16815260200190815260200160002060008282546123729190612ae3565b925050819055505050505050565b600080fd5b6000819050919050565b61239881612385565b81146123a357600080fd5b50565b6000813590506123b58161238f565b92915050565b600080604083850312156123d2576123d1612380565b5b60006123e0858286016123a6565b92505060206123f1858286016123a6565b9150509250929050565b61240481612385565b82525050565b600060208201905061241f60008301846123fb565b92915050565b60006020828403121561243b5761243a612380565b5b6000612449848285016123a6565b91505092915050565b600073ffffffffffffffffffffffffffffffffffffffff82169050919050565b600061247d82612452565b9050919050565b61248d81612472565b811461249857600080fd5b50565b6000813590506124aa81612484565b92915050565b6000602082840312156124c6576124c5612380565b5b60006124d48482850161249b565b91505092915050565b6124e681612472565b82525050565b60008115159050919050565b612501816124ec565b82525050565b600060c08201905061251c60008301896123fb565b61252960208301886123fb565b61253660408301876123fb565b61254360608301866124dd565b61255060808301856124f8565b61255d60a08301846124f8565b979650505050505050565b600060a08201905061257d60008301886123fb565b61258a60208301876123fb565b61259760408301866123fb565b6125a460608301856124dd565b6125b160808301846124dd565b9695505050505050565b6000806000606084860312156125d4576125d3612380565b5b60006125e2868287016123a6565b93505060206125f3868287016123a6565b9250506040612604868287016123a6565b9150509250925092565b600060608201905061262360008301866124dd565b61263060208301856124dd565b61263d60408301846123fb565b949350505050565b7f4e487b7100000000000000000000000000000000000000000000000000000000600052601160045260246000fd5b600061267f82612385565b91507fffffffffffffffffffffffffffffffffffffffffffffffffffffffffffffffff8214156126b2576126b1612645565b5b600182019050919050565b600060c0820190506126d260008301896123fb565b6126df60208301886123fb565b6126ec60408301876124dd565b6126f960608301866123fb565b61270660808301856124f8565b61271360a08301846124f8565b979650505050505050565b600082825260208201905092915050565b7f546865206f66666572206d757374206578697374000000000000000000000000600082015250565b600061276560148361271e565b91506127708261272f565b602082019050919050565b6000602082019050818103600083015261279481612758565b9050919050565b7f546865206f666665722063616e206f6e6c79206265207570646174656420627960008201527f20746865206f776e657200000000000000000000000000000000000000000000602082015250565b60006127f7602a8361271e565b91506128028261279b565b604082019050919050565b60006020820190508181036000830152612826816127ea565b9050919050565b7f412066756c66696c6c6564206f666665722063616e6e6f74206265207570646160008201527f7465640000000000000000000000000000000000000000000000000000000000602082015250565b600061288960238361271e565b91506128948261282d565b604082019050919050565b600060208201905081810360008301526128b88161287c565b9050919050565b7f5468652061756374696f6e206d75737420657869737400000000000000000000600082015250565b60006128f560168361271e565b9150612900826128bf565b602082019050919050565b60006020820190508181036000830152612924816128e8565b9050919050565b7f41756374696f6e2068617320656e646564000000000000000000000000000000600082015250565b600061296160118361271e565b915061296c8261292b565b602082019050919050565b6000602082019050818103600083015261299081612954565b9050919050565b7f546865206f776e6572206f66207468652061756374696f6e2063616e6e6f742060008201527f6269642069740000000000000000000000000000000000000000000000000000602082015250565b60006129f360268361271e565b91506129fe82612997565b604082019050919050565b60006020820190508181036000830152612a22816129e6565b9050919050565b7f4e487b7100000000000000000000000000000000000000000000000000000000600052601260045260246000fd5b6000612a6382612385565b9150612a6e83612385565b925082612a7e57612a7d612a29565b5b828204905092915050565b6000612a9482612385565b9150612a9f83612385565b9250817fffffffffffffffffffffffffffffffffffffffffffffffffffffffffffffffff0483118215151615612ad857612ad7612645565b5b828202905092915050565b6000612aee82612385565b9150612af983612385565b9250827fffffffffffffffffffffffffffffffffffffffffffffffffffffffffffffffff03821115612b2e57612b2d612645565b5b828201905092915050565b7f5468652045544820616d6f756e742073686f756c64206265206d6f726520746860008201527f616e2031313025206f66204e4654206869676865737420626964205072696365602082015250565b6000612b9560408361271e565b9150612ba082612b39565b604082019050919050565b60006020820190508181036000830152612bc481612b88565b9050919050565b6000612bd682612385565b9150612be183612385565b925082821015612bf457612bf3612645565b5b828203905092915050565b6000608082019050612c1460008301876123fb565b612c2160208301866123fb565b612c2e60408301856124dd565b612c3b60608301846123fb565b95945050505050565b7f41756374696f6e2073686f756c6420626520656e646564000000000000000000600082015250565b6000612c7a60178361271e565b9150612c8582612c44565b602082019050919050565b60006020820190508181036000830152612ca981612c6d565b9050919050565b600060a082019050612cc560008301886123fb565b612cd260208301876124dd565b612cdf60408301866123fb565b612cec60608301856124dd565b612cf960808301846123fb565b9695505050505050565b7f546865206f776e6572206f6620746865206f666665722063616e6e6f7420666960008201527f6c6c206974000000000000000000000000000000000000000000000000000000602082015250565b6000612d5f60258361271e565b9150612d6a82612d03565b604082019050919050565b60006020820190508181036000830152612d8e81612d52565b9050919050565b7f416e206f666665722063616e6e6f742062652066756c66696c6c65642074776960008201527f6365000000000000000000000000000000000000000000000000000000000000602082015250565b6000612df160228361271e565b9150612dfc82612d95565b604082019050919050565b60006020820190508181036000830152612e2081612de4565b9050919050565b7f412063616e63656c6c6564206f666665722063616e6e6f742062652066756c6660008201527f696c6c6564000000000000000000000000000000000000000000000000000000602082015250565b6000612e8360258361271e565b9150612e8e82612e27565b604082019050919050565b60006020820190508181036000830152612eb281612e76565b9050919050565b7f5468652045544820616d6f756e742073686f756c64206d61746368207769746860008201527f20746865204e4654205072696365000000000000000000000000000000000000602082015250565b6000612f15602e8361271e565b9150612f2082612eb9565b604082019050919050565b60006020820190508181036000830152612f4481612f08565b9050919050565b6000606082019050612f6060008301866123fb565b612f6d60208301856123fb565b612f7a60408301846124dd565b949350505050565b7f546865206f6e6c79206f776e6572206f66207468652061756374696f6e20636160008201527f6e2063616e63656c206974000000000000000000000000000000000000000000602082015250565b6000612fde602b8361271e565b9150612fe982612f82565b604082019050919050565b6000602082019050818103600083015261300d81612fd1565b9050919050565b7f54686520626964206d757374206e6f7420657869737400000000000000000000600082015250565b600061304a60168361271e565b915061305582613014565b602082019050919050565b600060208201905081810360008301526130798161303d565b9050919050565b600060408201905061309560008301856123fb565b6130a260208301846124dd565b9392505050565b7f4f6e6c792068696768657374206269646465722063616e2063616e63656c207460008201527f6865206269640000000000000000000000000000000000000000000000000000602082015250565b600061310560268361271e565b9150613110826130a9565b604082019050919050565b60006020820190508181036000830152613134816130f8565b9050919050565b7f54686973207573657220686173206e6f2066756e647320746f20626520636c6160008201527f696d656400000000000000000000000000000000000000000000000000000000602082015250565b600061319760248361271e565b91506131a28261313b565b604082019050919050565b600060208201905081810360008301526131c68161318a565b9050919050565b60006040820190506131e260008301856124dd565b6131ef60208301846123fb565b9392505050565b600060808201905061320b60008301876123fb565b61321860208301866123fb565b61322560408301856123fb565b61323260608301846124dd565b95945050505050565b7f546865206f666665722063616e206f6e6c792062652063616e63656c6564206260008201527f7920746865206f776e6572000000000000000000000000000000000000000000602082015250565b6000613297602b8361271e565b91506132a28261323b565b604082019050919050565b600060208201905081810360008301526132c68161328a565b9050919050565b7f412066756c66696c6c6564206f666665722063616e6e6f742062652063616e6360008201527f656c6c6564000000000000000000000000000000000000000000000000000000602082015250565b600061332960258361271e565b9150613334826132cd565b604082019050919050565b600060208201905081810360008301526133588161331c565b9050919050565b7f416e206f666665722063616e6e6f742062652063616e63656c6c65642074776960008201527f6365000000000000000000000000000000000000000000000000000000000000602082015250565b60006133bb60228361271e565b91506133c68261335f565b604082019050919050565b600060208201905081810360008301526133ea816133ae565b9050919050565b6000815190506134008161238f565b92915050565b60006020828403121561341c5761341b612380565b5b600061342a848285016133f1565b91505092915050565b60008151905061344281612484565b92915050565b60006020828403121561345e5761345d612380565b5b600061346c84828501613433565b9150509291505056fea2646970667358221220e75371eb2763ab7579f9da2d22e842cc8ba2bac1d6f66ceb29a64f1d2e17256a64736f6c634300080b0033",
  "immutableReferences": {},
  "source": "// SPDX-License-Identifier: MIT\r\npragma solidity ^0.8.0;\r\n\r\nimport \"./NFTCollection.sol\";\r\n\r\ncontract NFTMarketplace {\r\n    uint256 public offerCount;\r\n    uint256 marketFee = 250;\r\n    mapping(uint256 => _Offer) public offers;\r\n    mapping(address => uint256) public userFunds;\r\n    mapping(uint256 => Auction) public nftAuctions;\r\n    NFTCollection nftCollection;\r\n    address private _owner;\r\n\r\n    struct _Offer {\r\n        uint256 offerId;\r\n        uint256 id;\r\n        uint256 price;\r\n        address user;\r\n        bool fulfilled;\r\n        bool cancelled;\r\n    }\r\n\r\n    struct Auction {\r\n        //map token ID to\r\n        uint256 buyNowPrice;\r\n        uint256 nftHighestBid;\r\n        uint256 auctionEnd;\r\n        address nftHighestBidder;\r\n        address nftSeller;\r\n    }\r\n\r\n    event Offer(\r\n        uint256 offerId,\r\n        uint256 id,\r\n        address user,\r\n        uint256 price,\r\n        bool fulfilled,\r\n        bool cancelled\r\n    );\r\n\r\n    event NftAuctionCreated(\r\n        uint256 auctionEnd,\r\n        uint256 buyNowPrice,\r\n        uint256 tokenId,\r\n        address nftSeller\r\n    );\r\n\r\n    event NftAuctionCanceled(uint256 tokenId, address nftSeller);\r\n    event NftAuctionSettled(\r\n        uint256 tokenId,\r\n        address nftSeller,\r\n        uint256 buyNowPrice,\r\n        address winner,\r\n        uint256 price\r\n    );\r\n\r\n    event BidCreated(\r\n        uint256 tokenId,\r\n        uint256 nftHighestBid,\r\n        address nftHighestBidder,\r\n        uint256 auctionEnd\r\n    );\r\n\r\n    event BidCanceled(uint256 tokenId);\r\n\r\n    event OfferFilled(uint256 offerId, uint256 id, address newOwner);\r\n    // event OfferUpdated(uint256 offerId, uint256 price);\r\n    event OfferCancelled(uint256 offerId, uint256 id, address owner);\r\n    event ClaimFunds(address user, uint256 amount);\r\n\r\n    constructor(address _nftCollection) {\r\n        nftCollection = NFTCollection(_nftCollection);\r\n        _owner = msg.sender;\r\n    }\r\n\r\n    modifier onlyOwner() {\r\n        require(msg.sender == _owner);\r\n        _;\r\n    }\r\n\r\n    function _marketTransfer(\r\n        uint256 _price,\r\n        uint256 _tokenId,\r\n        address _receiver\r\n    ) internal {\r\n        require(_price > 0);\r\n        uint256 royalty = nftCollection.royalty(_tokenId);\r\n        address inventor = nftCollection.inventor(_tokenId);\r\n        userFunds[_owner] += (_price * marketFee) / 10000;\r\n        userFunds[inventor] += (_price * royalty) / 10000;\r\n        userFunds[_receiver] +=\r\n            _price -\r\n            (_price * (marketFee + royalty)) /\r\n            10000;\r\n    }\r\n\r\n    function makeOffer(uint256 _id, uint256 _price) public {\r\n        nftCollection.transferFrom(msg.sender, address(this), _id);\r\n        offerCount++;\r\n        offers[offerCount] = _Offer(\r\n            offerCount,\r\n            _id,\r\n            _price,\r\n            msg.sender,\r\n            false,\r\n            false\r\n        );\r\n        emit Offer(offerCount, _id, msg.sender, _price, false, false);\r\n    }\r\n\r\n    function fillOffer(uint256 _offerId) public payable {\r\n        _Offer storage _offer = offers[_offerId];\r\n        require(_offer.offerId == _offerId, \"The offer must exist\");\r\n        require(\r\n            _offer.user != msg.sender,\r\n            \"The owner of the offer cannot fill it\"\r\n        );\r\n        require(!_offer.fulfilled, \"An offer cannot be fulfilled twice\");\r\n        require(!_offer.cancelled, \"A cancelled offer cannot be fulfilled\");\r\n\r\n        require(\r\n            msg.value + userFunds[msg.sender] >= _offer.price,\r\n            \"The ETH amount should match with the NFT Price\"\r\n        );\r\n        nftCollection.transferFrom(address(this), msg.sender, _offer.id);\r\n        _offer.fulfilled = true;\r\n        _marketTransfer(msg.value, _offer.id, _offer.user);\r\n        userFunds[msg.sender] -= _offer.price - msg.value;\r\n        emit OfferFilled(_offerId, _offer.id, msg.sender);\r\n    }\r\n\r\n    function cancelOffer(uint256 _offerId) public {\r\n        _Offer storage _offer = offers[_offerId];\r\n        require(_offer.offerId == _offerId, \"The offer must exist\");\r\n        require(\r\n            _offer.user == msg.sender,\r\n            \"The offer can only be canceled by the owner\"\r\n        );\r\n        require(\r\n            _offer.fulfilled == false,\r\n            \"A fulfilled offer cannot be cancelled\"\r\n        );\r\n        require(\r\n            _offer.cancelled == false,\r\n            \"An offer cannot be cancelled twice\"\r\n        );\r\n        nftCollection.transferFrom(address(this), msg.sender, _offer.id);\r\n        _offer.cancelled = true;\r\n        emit OfferCancelled(_offerId, _offer.id, msg.sender);\r\n    }\r\n\r\n    function updateOffer(uint256 _offerId, uint256 _price) public {\r\n        _Offer storage _offer = offers[_offerId];\r\n        require(_offer.offerId == _offerId, \"The offer must exist\");\r\n        require(\r\n            _offer.user == msg.sender,\r\n            \"The offer can only be updated by the owner\"\r\n        );\r\n        require(\r\n            _offer.fulfilled == false,\r\n            \"A fulfilled offer cannot be updated\"\r\n        );\r\n\r\n        _offer.price = _price;\r\n        emit Offer(_offerId, _offer.id, msg.sender, _price, false, false);\r\n    }\r\n\r\n    function makeAuction(\r\n        uint256 _tokenId,\r\n        uint256 _price,\r\n        uint256 period\r\n    ) public {\r\n        nftCollection.transferFrom(msg.sender, address(this), _tokenId);\r\n\r\n        nftAuctions[_tokenId].buyNowPrice = _price;\r\n        nftAuctions[_tokenId].auctionEnd = block.timestamp + period * 1 hours;\r\n        nftAuctions[_tokenId].nftSeller = msg.sender;\r\n\r\n        emit NftAuctionCreated(\r\n            nftAuctions[_tokenId].auctionEnd,\r\n            _price,\r\n            _tokenId,\r\n            msg.sender\r\n        );\r\n    }\r\n\r\n    function cancelAuction(uint256 _tokenId) public {\r\n        require(\r\n            nftAuctions[_tokenId].nftSeller != msg.sender,\r\n            \"The only owner of the auction can cancel it\"\r\n        );\r\n        require(\r\n            nftAuctions[_tokenId].nftHighestBid <\r\n                nftAuctions[_tokenId].buyNowPrice,\r\n            \"The bid must not exist\"\r\n        );\r\n        nftCollection.transferFrom(address(this), msg.sender, _tokenId);\r\n\r\n        nftAuctions[_tokenId].buyNowPrice = 0;\r\n        nftAuctions[_tokenId].auctionEnd = 0;\r\n        nftAuctions[_tokenId].nftSeller = address(0);\r\n\r\n        emit NftAuctionCanceled(_tokenId, msg.sender);\r\n    }\r\n\r\n    function settleAuction(uint256 _tokenId) public {\r\n        require(\r\n            nftAuctions[_tokenId].nftSeller != address(0),\r\n            \"The auction must exist\"\r\n        );\r\n        require(\r\n            nftAuctions[_tokenId].auctionEnd > block.timestamp,\r\n            \"Auction should be ended\"\r\n        );\r\n\r\n        emit NftAuctionSettled(\r\n            _tokenId,\r\n            nftAuctions[_tokenId].nftSeller,\r\n            nftAuctions[_tokenId].buyNowPrice,\r\n            nftAuctions[_tokenId].nftHighestBidder,\r\n            nftAuctions[_tokenId].nftHighestBid\r\n        );\r\n\r\n        if (nftAuctions[_tokenId].nftHighestBidder != address(0)) {\r\n            _marketTransfer(\r\n                nftAuctions[_tokenId].nftHighestBid -\r\n                    nftAuctions[_tokenId].nftHighestBid /\r\n                    10,\r\n                _tokenId,\r\n                nftAuctions[_tokenId].nftSeller\r\n            );\r\n        }\r\n\r\n        nftAuctions[_tokenId].buyNowPrice = 0;\r\n        nftAuctions[_tokenId].auctionEnd = 0;\r\n        nftAuctions[_tokenId].nftSeller = address(0);\r\n        nftAuctions[_tokenId].nftHighestBid = 0;\r\n        nftAuctions[_tokenId].nftHighestBidder = address(0);\r\n    }\r\n\r\n    function makeBid(uint256 _tokenId) public payable {\r\n        require(\r\n            nftAuctions[_tokenId].nftSeller != address(0),\r\n            \"The auction must exist\"\r\n        );\r\n        require(\r\n            nftAuctions[_tokenId].auctionEnd > block.timestamp,\r\n            \"Auction has ended\"\r\n        );\r\n        require(\r\n            nftAuctions[_tokenId].nftSeller != msg.sender,\r\n            \"The owner of the auction cannot bid it\"\r\n        );\r\n        uint256 limit = nftAuctions[_tokenId].nftHighestBid;\r\n        if (limit < nftAuctions[_tokenId].buyNowPrice) {\r\n            if (limit / 10 > 0.01 ether) limit = (limit * 11) / 10;\r\n            else limit += 0.01 ether;\r\n        } else limit = nftAuctions[_tokenId].buyNowPrice;\r\n        require(\r\n            msg.value >= limit,\r\n            \"The ETH amount should be more than 110% of NFT highest bid Price\"\r\n        );\r\n\r\n        address _receiver = nftAuctions[_tokenId].nftHighestBidder;\r\n        if (_receiver == address(0))\r\n            _receiver = nftAuctions[_tokenId].nftSeller;\r\n        else\r\n            userFunds[_receiver] =\r\n                nftAuctions[_tokenId].nftHighestBid -\r\n                nftAuctions[_tokenId].nftHighestBid /\r\n                10;\r\n        _marketTransfer(msg.value / 10, _tokenId, _receiver);\r\n\r\n        nftAuctions[_tokenId].nftHighestBidder = msg.sender;\r\n        nftAuctions[_tokenId].nftHighestBid = uint256(msg.value);\r\n        if (nftAuctions[_tokenId].auctionEnd < block.timestamp + 10 minutes)\r\n            nftAuctions[_tokenId].auctionEnd = block.timestamp + 10 minutes;\r\n\r\n        emit BidCreated(\r\n            _tokenId,\r\n            nftAuctions[_tokenId].nftHighestBid,\r\n            msg.sender,\r\n            nftAuctions[_tokenId].auctionEnd\r\n        );\r\n    }\r\n\r\n    function cancelBid(uint256 _tokenId) public {\r\n        require(\r\n            nftAuctions[_tokenId].nftSeller != address(0),\r\n            \"The auction must exist\"\r\n        );\r\n        require(\r\n            nftAuctions[_tokenId].auctionEnd > block.timestamp,\r\n            \"Auction has ended\"\r\n        );\r\n        require(\r\n            msg.sender == nftAuctions[_tokenId].nftHighestBidder,\r\n            \"Only highest bidder can cancel the bid\"\r\n        );\r\n\r\n        userFunds[msg.sender] =\r\n            nftAuctions[_tokenId].nftHighestBid -\r\n            nftAuctions[_tokenId].nftHighestBid /\r\n            10;\r\n        nftAuctions[_tokenId].nftHighestBidder = address(0);\r\n        nftAuctions[_tokenId].nftHighestBid = 0;\r\n\r\n        emit BidCanceled(_tokenId);\r\n    }\r\n\r\n    function claimFunds() public {\r\n        require(\r\n            userFunds[msg.sender] > 0,\r\n            \"This user has no funds to be claimed\"\r\n        );\r\n        payable(msg.sender).transfer(userFunds[msg.sender]);\r\n        emit ClaimFunds(msg.sender, userFunds[msg.sender]);\r\n        userFunds[msg.sender] = 0;\r\n    }\r\n\r\n    function transferOwnership(address newOwner) public onlyOwner {\r\n        require(newOwner != address(0));\r\n        _owner = newOwner;\r\n    }\r\n\r\n    // Fallback: reverts if Ether is sent to this smart-contract by mistake\r\n    fallback() external {\r\n        revert();\r\n    }\r\n}\r\n",
  "sourcePath": "C:\\Users\\Tiger\\3D Objects\\nft-marketplace\\src\\contracts\\NFTMarketplace.sol",
  "compiler": {
    "name": "solc",
    "version": "0.8.11+commit.d7f03943.Emscripten.clang"
  },
  "schemaVersion": "3.4.3",
  "updatedAt": "2021-12-24T07:39:48.792Z",
  "networkType": "ethereum",
  "devdoc": {
    "kind": "dev",
    "methods": {},
    "version": 1
  },
  "userdoc": {
    "kind": "user",
    "methods": {},
    "version": 1
  }
}