{
  "address": "0xc95Ee1935330E37Bda597663c23D4356a6ec9362",
  "abi": [
    {
      "inputs": [
        {
          "internalType": "address",
          "name": "_nftCollection",
          "type": "address"
        }
      ],
      "stateMutability": "nonpayable",
      "type": "constructor"
    },
    {
      "anonymous": false,
      "inputs": [
        {
          "indexed": false,
          "internalType": "uint256",
          "name": "tokenId",
          "type": "uint256"
        }
      ],
      "name": "BidCanceled",
      "type": "event"
    },
    {
      "anonymous": false,
      "inputs": [
        {
          "indexed": false,
          "internalType": "uint256",
          "name": "tokenId",
          "type": "uint256"
        },
        {
          "indexed": false,
          "internalType": "uint256",
          "name": "nftHighestBid",
          "type": "uint256"
        },
        {
          "indexed": false,
          "internalType": "address",
          "name": "nftHighestBidder",
          "type": "address"
        },
        {
          "indexed": false,
          "internalType": "uint256",
          "name": "auctionEnd",
          "type": "uint256"
        }
      ],
      "name": "BidCreated",
      "type": "event"
    },
    {
      "anonymous": false,
      "inputs": [
        {
          "indexed": false,
          "internalType": "address",
          "name": "user",
          "type": "address"
        },
        {
          "indexed": false,
          "internalType": "uint256",
          "name": "amount",
          "type": "uint256"
        }
      ],
      "name": "ClaimFunds",
      "type": "event"
    },
    {
      "anonymous": false,
      "inputs": [
        {
          "indexed": false,
          "internalType": "uint256",
          "name": "tokenId",
          "type": "uint256"
        },
        {
          "indexed": false,
          "internalType": "address",
          "name": "nftSeller",
          "type": "address"
        }
      ],
      "name": "NftAuctionCanceled",
      "type": "event"
    },
    {
      "anonymous": false,
      "inputs": [
        {
          "indexed": false,
          "internalType": "uint256",
          "name": "auctionEnd",
          "type": "uint256"
        },
        {
          "indexed": false,
          "internalType": "uint256",
          "name": "buyNowPrice",
          "type": "uint256"
        },
        {
          "indexed": false,
          "internalType": "uint256",
          "name": "tokenId",
          "type": "uint256"
        },
        {
          "indexed": false,
          "internalType": "address",
          "name": "nftSeller",
          "type": "address"
        }
      ],
      "name": "NftAuctionCreated",
      "type": "event"
    },
    {
      "anonymous": false,
      "inputs": [
        {
          "indexed": false,
          "internalType": "uint256",
          "name": "tokenId",
          "type": "uint256"
        },
        {
          "indexed": false,
          "internalType": "address",
          "name": "nftSeller",
          "type": "address"
        },
        {
          "indexed": false,
          "internalType": "uint256",
          "name": "buyNowPrice",
          "type": "uint256"
        },
        {
          "indexed": false,
          "internalType": "address",
          "name": "winner",
          "type": "address"
        },
        {
          "indexed": false,
          "internalType": "uint256",
          "name": "price",
          "type": "uint256"
        }
      ],
      "name": "NftAuctionSettled",
      "type": "event"
    },
    {
      "anonymous": false,
      "inputs": [
        {
          "indexed": false,
          "internalType": "uint256",
          "name": "offerId",
          "type": "uint256"
        },
        {
          "indexed": false,
          "internalType": "uint256",
          "name": "id",
          "type": "uint256"
        },
        {
          "indexed": false,
          "internalType": "address",
          "name": "user",
          "type": "address"
        },
        {
          "indexed": false,
          "internalType": "uint256",
          "name": "price",
          "type": "uint256"
        },
        {
          "indexed": false,
          "internalType": "bool",
          "name": "fulfilled",
          "type": "bool"
        },
        {
          "indexed": false,
          "internalType": "bool",
          "name": "cancelled",
          "type": "bool"
        }
      ],
      "name": "Offer",
      "type": "event"
    },
    {
      "anonymous": false,
      "inputs": [
        {
          "indexed": false,
          "internalType": "uint256",
          "name": "offerId",
          "type": "uint256"
        },
        {
          "indexed": false,
          "internalType": "uint256",
          "name": "id",
          "type": "uint256"
        },
        {
          "indexed": false,
          "internalType": "address",
          "name": "owner",
          "type": "address"
        }
      ],
      "name": "OfferCancelled",
      "type": "event"
    },
    {
      "anonymous": false,
      "inputs": [
        {
          "indexed": false,
          "internalType": "uint256",
          "name": "offerId",
          "type": "uint256"
        },
        {
          "indexed": false,
          "internalType": "uint256",
          "name": "id",
          "type": "uint256"
        },
        {
          "indexed": false,
          "internalType": "address",
          "name": "newOwner",
          "type": "address"
        }
      ],
      "name": "OfferFilled",
      "type": "event"
    },
    {
      "anonymous": false,
      "inputs": [
        {
          "indexed": false,
          "internalType": "uint256",
          "name": "offerId",
          "type": "uint256"
        },
        {
          "indexed": false,
          "internalType": "uint256",
          "name": "price",
          "type": "uint256"
        }
      ],
      "name": "OfferUpdated",
      "type": "event"
    },
    {
      "stateMutability": "nonpayable",
      "type": "fallback"
    },
    {
      "inputs": [
        {
          "internalType": "uint256",
          "name": "_tokenId",
          "type": "uint256"
        }
      ],
      "name": "cancelAuction",
      "outputs": [],
      "stateMutability": "nonpayable",
      "type": "function"
    },
    {
      "inputs": [
        {
          "internalType": "uint256",
          "name": "_tokenId",
          "type": "uint256"
        }
      ],
      "name": "cancelBid",
      "outputs": [],
      "stateMutability": "nonpayable",
      "type": "function"
    },
    {
      "inputs": [
        {
          "internalType": "uint256",
          "name": "_offerId",
          "type": "uint256"
        }
      ],
      "name": "cancelOffer",
      "outputs": [],
      "stateMutability": "nonpayable",
      "type": "function"
    },
    {
      "inputs": [],
      "name": "claimFunds",
      "outputs": [],
      "stateMutability": "nonpayable",
      "type": "function"
    },
    {
      "inputs": [
        {
          "internalType": "uint256",
          "name": "",
          "type": "uint256"
        }
      ],
      "name": "donations",
      "outputs": [
        {
          "internalType": "uint256",
          "name": "",
          "type": "uint256"
        }
      ],
      "stateMutability": "view",
      "type": "function"
    },
    {
      "inputs": [
        {
          "internalType": "uint256",
          "name": "_offerId",
          "type": "uint256"
        }
      ],
      "name": "fillOffer",
      "outputs": [],
      "stateMutability": "payable",
      "type": "function"
    },
    {
      "inputs": [],
      "name": "getAuctions",
      "outputs": [
        {
          "components": [
            {
              "internalType": "uint256",
              "name": "buyNowPrice",
              "type": "uint256"
            },
            {
              "internalType": "uint256",
              "name": "nftHighestBid",
              "type": "uint256"
            },
            {
              "internalType": "uint256",
              "name": "auctionEnd",
              "type": "uint256"
            },
            {
              "internalType": "address",
              "name": "nftHighestBidder",
              "type": "address"
            },
            {
              "internalType": "address",
              "name": "nftSeller",
              "type": "address"
            }
          ],
          "internalType": "struct NFTMarketplace.Auction[]",
          "name": "",
          "type": "tuple[]"
        },
        {
          "internalType": "uint256[]",
          "name": "",
          "type": "uint256[]"
        }
      ],
      "stateMutability": "view",
      "type": "function"
    },
    {
      "inputs": [
        {
          "internalType": "uint256",
          "name": "_tokenId",
          "type": "uint256"
        },
        {
          "internalType": "uint256",
          "name": "_price",
          "type": "uint256"
        },
        {
          "internalType": "uint256",
          "name": "period",
          "type": "uint256"
        }
      ],
      "name": "makeAuction",
      "outputs": [],
      "stateMutability": "nonpayable",
      "type": "function"
    },
    {
      "inputs": [
        {
          "internalType": "uint256",
          "name": "_tokenId",
          "type": "uint256"
        }
      ],
      "name": "makeBid",
      "outputs": [],
      "stateMutability": "payable",
      "type": "function"
    },
    {
      "inputs": [
        {
          "internalType": "uint256",
          "name": "_id",
          "type": "uint256"
        },
        {
          "internalType": "uint256",
          "name": "_price",
          "type": "uint256"
        }
      ],
      "name": "makeOffer",
      "outputs": [],
      "stateMutability": "nonpayable",
      "type": "function"
    },
    {
      "inputs": [
        {
          "internalType": "uint256",
          "name": "",
          "type": "uint256"
        }
      ],
      "name": "nftAuctions",
      "outputs": [
        {
          "internalType": "uint256",
          "name": "buyNowPrice",
          "type": "uint256"
        },
        {
          "internalType": "uint256",
          "name": "nftHighestBid",
          "type": "uint256"
        },
        {
          "internalType": "uint256",
          "name": "auctionEnd",
          "type": "uint256"
        },
        {
          "internalType": "address",
          "name": "nftHighestBidder",
          "type": "address"
        },
        {
          "internalType": "address",
          "name": "nftSeller",
          "type": "address"
        }
      ],
      "stateMutability": "view",
      "type": "function"
    },
    {
      "inputs": [],
      "name": "offerCount",
      "outputs": [
        {
          "internalType": "uint256",
          "name": "",
          "type": "uint256"
        }
      ],
      "stateMutability": "view",
      "type": "function"
    },
    {
      "inputs": [
        {
          "internalType": "uint256",
          "name": "",
          "type": "uint256"
        }
      ],
      "name": "offers",
      "outputs": [
        {
          "internalType": "uint256",
          "name": "offerId",
          "type": "uint256"
        },
        {
          "internalType": "uint256",
          "name": "id",
          "type": "uint256"
        },
        {
          "internalType": "uint256",
          "name": "price",
          "type": "uint256"
        },
        {
          "internalType": "address",
          "name": "user",
          "type": "address"
        },
        {
          "internalType": "bool",
          "name": "fulfilled",
          "type": "bool"
        },
        {
          "internalType": "bool",
          "name": "cancelled",
          "type": "bool"
        }
      ],
      "stateMutability": "view",
      "type": "function"
    },
    {
      "inputs": [
        {
          "internalType": "uint256",
          "name": "_tokenId",
          "type": "uint256"
        }
      ],
      "name": "settleAuction",
      "outputs": [],
      "stateMutability": "nonpayable",
      "type": "function"
    },
    {
      "inputs": [
        {
          "internalType": "address",
          "name": "newOwner",
          "type": "address"
        }
      ],
      "name": "transferOwnership",
      "outputs": [],
      "stateMutability": "nonpayable",
      "type": "function"
    },
    {
      "inputs": [
        {
          "internalType": "uint256",
          "name": "_fee",
          "type": "uint256"
        }
      ],
      "name": "updateDonationLimit",
      "outputs": [],
      "stateMutability": "nonpayable",
      "type": "function"
    },
    {
      "inputs": [
        {
          "internalType": "uint256",
          "name": "_fee",
          "type": "uint256"
        }
      ],
      "name": "updateMarketFee",
      "outputs": [],
      "stateMutability": "nonpayable",
      "type": "function"
    },
    {
      "inputs": [
        {
          "internalType": "uint256",
          "name": "_offerId",
          "type": "uint256"
        },
        {
          "internalType": "uint256",
          "name": "_price",
          "type": "uint256"
        }
      ],
      "name": "updateOffer",
      "outputs": [],
      "stateMutability": "nonpayable",
      "type": "function"
    },
    {
      "inputs": [
        {
          "internalType": "address",
          "name": "",
          "type": "address"
        }
      ],
      "name": "userFunds",
      "outputs": [
        {
          "internalType": "uint256",
          "name": "",
          "type": "uint256"
        }
      ],
      "stateMutability": "view",
      "type": "function"
    }
  ],
  "transactionHash": "0xe706a3c4c7a375cde2f158cc0db29b9070e78837a890bf6a5d0e43eff7ddd111",
  "args": [
    "0x2CC3574249B2De2a840444B3322Ac1F151cd56c5"
  ],
  "solcInputHash": "515226c9b01302cdafbba88e77be63eb",
  "bytecode": "0x608060405260fa6001556611c37937e0800060025534801561002057600080fd5b5060405162002421380380620024218339810160408190526100419161006f565b600780546001600160a01b039092166001600160a01b0319928316179055600880549091163317905561009d565b600060208284031215610080578081fd5b81516001600160a01b0381168114610096578182fd5b9392505050565b61237480620000ad6000396000f3fe6080604052600436106101145760003560e01c806393cde51a116100a0578063d04d5d7211610064578063d04d5d72146102f1578063d7c0691914610311578063ef706adf14610334578063f2fde38b14610354578063f8626af81461037457610114565b806393cde51a1461024b57806396b5a7551461027c5780639703ef351461029c5780639b484379146102bc578063ac307773146102dc57610114565b80632e993611116100e75780632e993611146101a657806356f5af8d146101c65780638387c6e1146101e657806385dba861146102065780638a72ea6a1461021957610114565b806305b7cdd3146101265780630b7b925b146101485780631115c24d14610168578063175b230414610193575b34801561012057600080fd5b50600080fd5b34801561013257600080fd5b506101466101413660046119d7565b610394565b005b34801561015457600080fd5b506101466101633660046119d7565b6104fd565b34801561017457600080fd5b5061017d6105d2565b60405161018a919061212b565b60405180910390f35b6101466101a13660046119a7565b6105d8565b3480156101b257600080fd5b506101466101c13660046119a7565b6108a3565b3480156101d257600080fd5b506101466101e13660046119a7565b610a36565b3480156101f257600080fd5b5061017d610201366004611968565b610a79565b6101466102143660046119a7565b610a8b565b34801561022557600080fd5b506102396102343660046119a7565b610c85565b60405161018a96959493929190612252565b34801561025757600080fd5b5061026b6102663660046119a7565b610ccd565b60405161018a959493929190612223565b34801561028857600080fd5b506101466102973660046119a7565b610d08565b3480156102a857600080fd5b506101466102b73660046119a7565b610e42565b3480156102c857600080fd5b506101466102d73660046119a7565b610f80565b3480156102e857600080fd5b50610146610fbe565b3480156102fd57600080fd5b5061014661030c3660046119f8565b61107d565b34801561031d57600080fd5b5061032661116a565b60405161018a929190611a9a565b34801561034057600080fd5b5061014661034f3660046119a7565b611439565b34801561036057600080fd5b5061014661036f366004611968565b6115a1565b34801561038057600080fd5b5061017d61038f3660046119a7565b6115ed565b6007546040516323b872dd60e01b81526001600160a01b03909116906323b872dd906103c890339030908790600401611a5d565b600060405180830381600087803b1580156103e257600080fd5b505af11580156103f6573d6000803e3d6000fd5b505060008054925090508061040a836122f5565b90915550506040805160c08101825260008054808352602080840187815284860187815233606087018181526080880187815260a089018881529688526003958690528988209851895593516001890155915160028801559051959092018054915193511515600160a81b0260ff60a81b19941515600160a01b0260ff60a01b196001600160a01b03989098166001600160a01b031990941693909317969096169190911792909216939093179055805492517f93e711896d4ef527d199d7e101922e20f918cbb248a0fb0977c52fda24aa1f1d936104f1939092879287919081906121ca565b60405180910390a15050565b6000828152600360205260409020805483146105345760405162461bcd60e51b815260040161052b90612015565b60405180910390fd5b60038101546001600160a01b031633146105605760405162461bcd60e51b815260040161052b90611f89565b6003810154600160a01b900460ff161561058c5760405162461bcd60e51b815260040161052b90611bb0565b600281018290556040517f63259830931e406791f7755ad50d816251e755d53951772775a94f2bf0e54fde906105c59085908590612179565b60405180910390a1505050565b60005481565b6000818152600560205260409020600401546001600160a01b031661060f5760405162461bcd60e51b815260040161052b90611cec565b600081815260056020526040902060020154421061063f5760405162461bcd60e51b815260040161052b90611c39565b6000818152600560205260409020600401546001600160a01b03163314156106795760405162461bcd60e51b815260040161052b90611bf3565b6000818152600560205260409020600181015490548111156106e557662386f26fc100006106a8600a8361229f565b11156106cc57600a6106bb82600b6122bf565b6106c5919061229f565b90506106e0565b6106dd662386f26fc1000082612287565b90505b6106f6565b506000818152600560205260409020545b803410156107165760405162461bcd60e51b815260040161052b90611d67565b6000828152600560205260409020600301546001600160a01b03168061076c57506000828152600560205260409020600401546001600160a01b0316610767610760600a3461229f565b84836115ff565b6107e9565b610777600a3461229f565b60008481526005602052604090206001015461079590600a9061229f565b6000858152600560205260409020600101546107b191906122de565b6107bb9190612287565b6001600160a01b038216600090815260046020526040812080549091906107e3908490612287565b90915550505b60008381526005602052604090206003810180546001600160a01b031916331790553460019091015561081e42610258612287565b60008481526005602052604090206002015410156108555761084242610258612287565b6000848152600560205260409020600201555b60008381526005602052604090819020600181015460029091015491517f6d2b783673dbbf046f2e5a1f3c92ce62c29a0f5385f2b1f0eaf19019ef28cb55926105c5928792909133916121a6565b6000818152600560205260409020600401546001600160a01b03166108da5760405162461bcd60e51b815260040161052b90611cec565b60008181526005602052604090206002015442101561090b5760405162461bcd60e51b815260040161052b906120f4565b6000818152600560205260409081902060048101548154600383015460019093015493517fad0fc073c0346c2850f535b636bd929b71ae81fa3fdd2c79445b0b84ba612d4d9461096d9487946001600160a01b0390811694939116919061214b565b60405180910390a16000818152600560205260409020600301546001600160a01b0316156109f5576000818152600560205260409020600101546109f5906109b790600a9061229f565b6000838152600560205260409020600101546109d391906122de565b60008381526005602052604090206004015483906001600160a01b03166115ff565b6000908152600560205260408120818155600281018290556004810180546001600160a01b0319908116909155600182019290925560030180549091169055565b6008546001600160a01b03163314610a4d57600080fd5b662386f26fc10000811115610a745760405162461bcd60e51b815260040161052b90612097565b600255565b60046020526000908152604090205481565b600081815260036020526040902080548214610ab95760405162461bcd60e51b815260040161052b90612015565b60038101546001600160a01b0316331415610ae65760405162461bcd60e51b815260040161052b90611b26565b6003810154600160a01b900460ff1615610b125760405162461bcd60e51b815260040161052b90611dc5565b6003810154600160a81b900460ff1615610b3e5760405162461bcd60e51b815260040161052b90611b6b565b600281015433600090815260046020526040902054610b5d9034612287565b1015610b7b5760405162461bcd60e51b815260040161052b90611f2c565b60075460018201546040516323b872dd60e01b81526001600160a01b03909216916323b872dd91610bb29130913391600401611a5d565b600060405180830381600087803b158015610bcc57600080fd5b505af1158015610be0573d6000803e3d6000fd5b50505060038201805460ff60a01b1916600160a01b179081905560028301546001840154610c19935090916001600160a01b03166115ff565b348160020154610c2991906122de565b3360009081526004602052604081208054909190610c489084906122de565b909155505060018101546040517fd9157c065213ada613694e84b1e27fe2efd62d85c6b82bd6c842a4999491e72a916104f1918591903390612187565b60036020819052600091825260409091208054600182015460028301549290930154909291906001600160a01b0381169060ff600160a01b8204811691600160a81b90041686565b600560205260009081526040902080546001820154600283015460038401546004909401549293919290916001600160a01b03908116911685565b6000818152600560205260409020600401546001600160a01b03163314610d415760405162461bcd60e51b815260040161052b90611e07565b6000818152600560205260409020805460019091015410610d745760405162461bcd60e51b815260040161052b90611c70565b6007546040516323b872dd60e01b81526001600160a01b03909116906323b872dd90610da890309033908690600401611a5d565b600060405180830381600087803b158015610dc257600080fd5b505af1158015610dd6573d6000803e3d6000fd5b5050506000828152600560205260408082208281556002810192909255600490910180546001600160a01b0319169055517f9f338bd30f2b8df7becd5a8d2b41a9f9572ee4a9db023508e50c541285c8dc0e9150610e379083903390612134565b60405180910390a150565b6000818152600560205260409020600401546001600160a01b0316610e795760405162461bcd60e51b815260040161052b90611cec565b6000818152600560205260409020600201544210610ea95760405162461bcd60e51b815260040161052b90611c39565b6000818152600560205260409020600301546001600160a01b03163314610ee25760405162461bcd60e51b815260040161052b90611e52565b600081815260056020526040902060010154610f0090600a9061229f565b600082815260056020526040902060010154610f1c91906122de565b33600090815260046020908152604080832093909355838252600590528181206003810180546001600160a01b031916905560010155517ff72c9cb76aa633bc9310fa98738d474339fdf2f23dfac70ccbd65e593f6654df90610e3790839061212b565b6008546001600160a01b03163314610f9757600080fd5b6103e8811115610fb95760405162461bcd60e51b815260040161052b90611e98565b600155565b33600090815260046020526040902054610fea5760405162461bcd60e51b815260040161052b90611d23565b3360008181526004602052604080822054905181156108fc0292818181858888f19350505050158015611021573d6000803e3d6000fd5b5033600081815260046020526040908190205490517f4f0554190111f93f8c2ccef2cc41473f187d7f29ff5a5c308ca41f9dfe4e989a92611063929091611a81565b60405180910390a133600090815260046020526040812055565b6007546040516323b872dd60e01b81526001600160a01b03909116906323b872dd906110b190339030908890600401611a5d565b600060405180830381600087803b1580156110cb57600080fd5b505af11580156110df573d6000803e3d6000fd5b50505060008481526005602052604090208390555061110081610e106122bf565b61110a9042612287565b600084815260056020526040908190206002810183905560040180546001600160a01b0319163390811790915590517fa060a06376aad79320fcbff6f10eea7cd5f064d831e6aac4d2a8d1a80fa04ca4926105c5929091869188916121ff565b6060806000600760009054906101000a90046001600160a01b03166001600160a01b03166318160ddd6040518163ffffffff1660e01b815260040160206040518083038186803b1580156111bd57600080fd5b505afa1580156111d1573d6000803e3d6000fd5b505050506040513d601f19601f820116820180604052508101906111f591906119bf565b905060008167ffffffffffffffff81111561122057634e487b7160e01b600052604160045260246000fd5b60405190808252806020026020018201604052801561125957816020015b611246611927565b81526020019060019003908161123e5790505b50905060008267ffffffffffffffff81111561128557634e487b7160e01b600052604160045260246000fd5b6040519080825280602002602001820160405280156112ae578160200160208202803683370190505b50905060005b8381101561142e57600754604051634f6ccce760e01b81526001600160a01b0390911690634f6ccce7906112ec90849060040161212b565b60206040518083038186803b15801561130457600080fd5b505afa158015611318573d6000803e3d6000fd5b505050506040513d601f19601f8201168201806040525081019061133c91906119bf565b82828151811061135c57634e487b7160e01b600052603260045260246000fd5b6020026020010181815250506005600083838151811061138c57634e487b7160e01b600052603260045260246000fd5b6020908102919091018101518252818101929092526040908101600020815160a0810183528154815260018201549381019390935260028101549183019190915260038101546001600160a01b039081166060840152600490910154166080820152835184908390811061141057634e487b7160e01b600052603260045260246000fd5b60200260200101819052508080611426906122f5565b9150506112b4565b509093509150509091565b6000818152600360205260409020805482146114675760405162461bcd60e51b815260040161052b90612015565b60038101546001600160a01b031633146114935760405162461bcd60e51b815260040161052b9061204c565b6003810154600160a01b900460ff16156114bf5760405162461bcd60e51b815260040161052b90611ca7565b6003810154600160a81b900460ff16156114eb5760405162461bcd60e51b815260040161052b90611fd3565b60075460018201546040516323b872dd60e01b81526001600160a01b03909216916323b872dd916115229130913391600401611a5d565b600060405180830381600087803b15801561153c57600080fd5b505af1158015611550573d6000803e3d6000fd5b50505060038201805460ff60a81b1916600160a81b1790555060018101546040517f5b166b4d0498ff8c4719999cb6154c5d197e6f020f9fbfcf9d347f84576cfab7916104f1918591903390612187565b6008546001600160a01b031633146115b857600080fd5b6001600160a01b0381166115cb57600080fd5b600880546001600160a01b0319166001600160a01b0392909216919091179055565b60066020526000908152604090205481565b6000831161161f5760405162461bcd60e51b815260040161052b90611ef5565b60075460405163e814cb7160e01b81526000916001600160a01b03169063e814cb719061165090869060040161212b565b60206040518083038186803b15801561166857600080fd5b505afa15801561167c573d6000803e3d6000fd5b505050506040513d601f19601f820116820180604052508101906116a091906119bf565b600754604051634586b3a160e01b81529192506000916001600160a01b0390911690634586b3a1906116d690879060040161212b565b60206040518083038186803b1580156116ee57600080fd5b505afa158015611702573d6000803e3d6000fd5b505050506040513d601f19601f82011682018060405250810190611726919061198b565b90506127106001548661173991906122bf565b611743919061229f565b6008546001600160a01b03166000908152600460205260408120805490919061176d908490612287565b909155506000905061271061178284886122bf565b61178c919061229f565b9050600060648460066000898152602001908152602001600020546002546117b491906122de565b6117be91906122bf565b6117c8919061229f565b905081811061184357836117dd8360646122bf565b6117e7919061229f565b60008781526006602052604081208054909190611805908490612287565b90915550506008546001600160a01b031660009081526004602052604081208054849290611834908490612287565b90915550600092506118949050565b61184d81836122de565b6008546001600160a01b031660009081526004602052604081208054929450839290919061187c908490612287565b90915550506002546000878152600660205260409020555b6001600160a01b038316600090815260046020526040812080548492906118bc908490612287565b9091555050600154612710906118d3908690612287565b6118dd90896122bf565b6118e7919061229f565b6118f190886122de565b6001600160a01b03861660009081526004602052604081208054909190611919908490612287565b909155505050505050505050565b6040518060a0016040528060008152602001600081526020016000815260200160006001600160a01b0316815260200160006001600160a01b031681525090565b600060208284031215611979578081fd5b813561198481612326565b9392505050565b60006020828403121561199c578081fd5b815161198481612326565b6000602082840312156119b8578081fd5b5035919050565b6000602082840312156119d0578081fd5b5051919050565b600080604083850312156119e9578081fd5b50508035926020909101359150565b600080600060608486031215611a0c578081fd5b505081359360208301359350604090920135919050565b6000815180845260208085019450808401835b83811015611a5257815187529582019590820190600101611a36565b509495945050505050565b6001600160a01b039384168152919092166020820152604081019190915260600190565b6001600160a01b03929092168252602082015260400190565b6040808252835182820181905260009190606090818501906020808901865b83811015611b075781518051865283810151848701528781015188870152868101516001600160a01b0390811688880152608091820151169086015260a09094019390820190600101611ab9565b50508683039087015250611b1b8187611a23565b979650505050505050565b60208082526025908201527f546865206f776e6572206f6620746865206f666665722063616e6e6f742066696040820152641b1b081a5d60da1b606082015260800190565b60208082526025908201527f412063616e63656c6c6564206f666665722063616e6e6f742062652066756c666040820152641a5b1b195960da1b606082015260800190565b60208082526023908201527f412066756c66696c6c6564206f666665722063616e6e6f7420626520757064616040820152621d195960ea1b606082015260800190565b60208082526026908201527f546865206f776e6572206f66207468652061756374696f6e2063616e6e6f7420604082015265189a59081a5d60d21b606082015260800190565b60208082526011908201527f41756374696f6e2068617320656e646564000000000000000000000000000000604082015260600190565b60208082526016908201527f54686520626964206d757374206e6f7420657869737400000000000000000000604082015260600190565b60208082526025908201527f412066756c66696c6c6564206f666665722063616e6e6f742062652063616e63604082015264195b1b195960da1b606082015260800190565b60208082526016908201527f5468652061756374696f6e206d75737420657869737400000000000000000000604082015260600190565b60208082526024908201527f54686973207573657220686173206e6f2066756e647320746f20626520636c616040820152631a5b595960e21b606082015260800190565b602080825260409082018190527f5468652045544820616d6f756e742073686f756c64206265206d6f7265207468908201527f616e2031313025206f66204e4654206869676865737420626964205072696365606082015260800190565b60208082526022908201527f416e206f666665722063616e6e6f742062652066756c66696c6c656420747769604082015261636560f01b606082015260800190565b6020808252602b908201527f546865206f6e6c79206f776e6572206f66207468652061756374696f6e20636160408201526a1b8818d85b98d95b081a5d60aa1b606082015260800190565b60208082526026908201527f4f6e6c792068696768657374206269646465722063616e2063616e63656c20746040820152651a1948189a5960d21b606082015260800190565b6020808252602e908201527f4d61726b6574706c616365206665652063616e206e6f7420657863656564203160408201527f3025206f72206e65676174697665000000000000000000000000000000000000606082015260800190565b60208082526012908201527f4e6f2066756e6420746f2070726f636573730000000000000000000000000000604082015260600190565b6020808252602e908201527f5468652045544820616d6f756e742073686f756c64206d61746368207769746860408201527f20746865204e4654205072696365000000000000000000000000000000000000606082015260800190565b6020808252602a908201527f546865206f666665722063616e206f6e6c792062652075706461746564206279604082015269103a34329037bbb732b960b11b606082015260800190565b60208082526022908201527f416e206f666665722063616e6e6f742062652063616e63656c6c656420747769604082015261636560f01b606082015260800190565b60208082526014908201527f546865206f66666572206d757374206578697374000000000000000000000000604082015260600190565b6020808252602b908201527f546865206f666665722063616e206f6e6c792062652063616e63656c6564206260408201526a3c903a34329037bbb732b960a91b606082015260800190565b60208082526038908201527f446f6e6174696f6e206665652063616e206e6f742065786365656420302e303160408201527f657468657220706572203125206f72206e656761746976650000000000000000606082015260800190565b60208082526017908201527f41756374696f6e2073686f756c6420626520656e646564000000000000000000604082015260600190565b90815260200190565b9182526001600160a01b0316602082015260400190565b9485526001600160a01b03938416602086015260408501929092529091166060830152608082015260a00190565b918252602082015260400190565b92835260208301919091526001600160a01b0316604082015260600190565b93845260208401929092526001600160a01b03166040830152606082015260800190565b95865260208601949094526001600160a01b03929092166040850152606084015215156080830152151560a082015260c00190565b938452602084019290925260408301526001600160a01b0316606082015260800190565b948552602085019390935260408401919091526001600160a01b03908116606084015216608082015260a00190565b958652602086019490945260408501929092526001600160a01b0316606084015215156080830152151560a082015260c00190565b6000821982111561229a5761229a612310565b500190565b6000826122ba57634e487b7160e01b81526012600452602481fd5b500490565b60008160001904831182151516156122d9576122d9612310565b500290565b6000828210156122f0576122f0612310565b500390565b600060001982141561230957612309612310565b5060010190565b634e487b7160e01b600052601160045260246000fd5b6001600160a01b038116811461233b57600080fd5b5056fea2646970667358221220d46980918eb3a4b8b03907d88c1e28a612607736597ca0d138a646643851a7cb64736f6c63430008000033",
  "devdoc": {
    "kind": "dev",
    "methods": {},
    "version": 1
  },
  "userdoc": {
    "kind": "user",
    "methods": {},
    "version": 1
  },
  "storageLayout": {
    "storage": [
      {
        "astId": 2109,
        "contract": "contracts/NFTMarketplace.sol:NFTMarketplace",
        "label": "offerCount",
        "offset": 0,
        "slot": "0",
        "type": "t_uint256"
      },
      {
        "astId": 2112,
        "contract": "contracts/NFTMarketplace.sol:NFTMarketplace",
        "label": "marketFee",
        "offset": 0,
        "slot": "1",
        "type": "t_uint256"
      },
      {
        "astId": 2115,
        "contract": "contracts/NFTMarketplace.sol:NFTMarketplace",
        "label": "donationLimit",
        "offset": 0,
        "slot": "2",
        "type": "t_uint256"
      },
      {
        "astId": 2120,
        "contract": "contracts/NFTMarketplace.sol:NFTMarketplace",
        "label": "offers",
        "offset": 0,
        "slot": "3",
        "type": "t_mapping(t_uint256,t_struct(_Offer)2151_storage)"
      },
      {
        "astId": 2124,
        "contract": "contracts/NFTMarketplace.sol:NFTMarketplace",
        "label": "userFunds",
        "offset": 0,
        "slot": "4",
        "type": "t_mapping(t_address,t_uint256)"
      },
      {
        "astId": 2129,
        "contract": "contracts/NFTMarketplace.sol:NFTMarketplace",
        "label": "nftAuctions",
        "offset": 0,
        "slot": "5",
        "type": "t_mapping(t_uint256,t_struct(Auction)2162_storage)"
      },
      {
        "astId": 2133,
        "contract": "contracts/NFTMarketplace.sol:NFTMarketplace",
        "label": "donations",
        "offset": 0,
        "slot": "6",
        "type": "t_mapping(t_uint256,t_uint256)"
      },
      {
        "astId": 2136,
        "contract": "contracts/NFTMarketplace.sol:NFTMarketplace",
        "label": "nftCollection",
        "offset": 0,
        "slot": "7",
        "type": "t_contract(NFTCollection)2104"
      },
      {
        "astId": 2138,
        "contract": "contracts/NFTMarketplace.sol:NFTMarketplace",
        "label": "_owner",
        "offset": 0,
        "slot": "8",
        "type": "t_address"
      }
    ],
    "types": {
      "t_address": {
        "encoding": "inplace",
        "label": "address",
        "numberOfBytes": "20"
      },
      "t_bool": {
        "encoding": "inplace",
        "label": "bool",
        "numberOfBytes": "1"
      },
      "t_contract(NFTCollection)2104": {
        "encoding": "inplace",
        "label": "contract NFTCollection",
        "numberOfBytes": "20"
      },
      "t_mapping(t_address,t_uint256)": {
        "encoding": "mapping",
        "key": "t_address",
        "label": "mapping(address => uint256)",
        "numberOfBytes": "32",
        "value": "t_uint256"
      },
      "t_mapping(t_uint256,t_struct(Auction)2162_storage)": {
        "encoding": "mapping",
        "key": "t_uint256",
        "label": "mapping(uint256 => struct NFTMarketplace.Auction)",
        "numberOfBytes": "32",
        "value": "t_struct(Auction)2162_storage"
      },
      "t_mapping(t_uint256,t_struct(_Offer)2151_storage)": {
        "encoding": "mapping",
        "key": "t_uint256",
        "label": "mapping(uint256 => struct NFTMarketplace._Offer)",
        "numberOfBytes": "32",
        "value": "t_struct(_Offer)2151_storage"
      },
      "t_mapping(t_uint256,t_uint256)": {
        "encoding": "mapping",
        "key": "t_uint256",
        "label": "mapping(uint256 => uint256)",
        "numberOfBytes": "32",
        "value": "t_uint256"
      },
      "t_struct(Auction)2162_storage": {
        "encoding": "inplace",
        "label": "struct NFTMarketplace.Auction",
        "members": [
          {
            "astId": 2153,
            "contract": "contracts/NFTMarketplace.sol:NFTMarketplace",
            "label": "buyNowPrice",
            "offset": 0,
            "slot": "0",
            "type": "t_uint256"
          },
          {
            "astId": 2155,
            "contract": "contracts/NFTMarketplace.sol:NFTMarketplace",
            "label": "nftHighestBid",
            "offset": 0,
            "slot": "1",
            "type": "t_uint256"
          },
          {
            "astId": 2157,
            "contract": "contracts/NFTMarketplace.sol:NFTMarketplace",
            "label": "auctionEnd",
            "offset": 0,
            "slot": "2",
            "type": "t_uint256"
          },
          {
            "astId": 2159,
            "contract": "contracts/NFTMarketplace.sol:NFTMarketplace",
            "label": "nftHighestBidder",
            "offset": 0,
            "slot": "3",
            "type": "t_address"
          },
          {
            "astId": 2161,
            "contract": "contracts/NFTMarketplace.sol:NFTMarketplace",
            "label": "nftSeller",
            "offset": 0,
            "slot": "4",
            "type": "t_address"
          }
        ],
        "numberOfBytes": "160"
      },
      "t_struct(_Offer)2151_storage": {
        "encoding": "inplace",
        "label": "struct NFTMarketplace._Offer",
        "members": [
          {
            "astId": 2140,
            "contract": "contracts/NFTMarketplace.sol:NFTMarketplace",
            "label": "offerId",
            "offset": 0,
            "slot": "0",
            "type": "t_uint256"
          },
          {
            "astId": 2142,
            "contract": "contracts/NFTMarketplace.sol:NFTMarketplace",
            "label": "id",
            "offset": 0,
            "slot": "1",
            "type": "t_uint256"
          },
          {
            "astId": 2144,
            "contract": "contracts/NFTMarketplace.sol:NFTMarketplace",
            "label": "price",
            "offset": 0,
            "slot": "2",
            "type": "t_uint256"
          },
          {
            "astId": 2146,
            "contract": "contracts/NFTMarketplace.sol:NFTMarketplace",
            "label": "user",
            "offset": 0,
            "slot": "3",
            "type": "t_address"
          },
          {
            "astId": 2148,
            "contract": "contracts/NFTMarketplace.sol:NFTMarketplace",
            "label": "fulfilled",
            "offset": 20,
            "slot": "3",
            "type": "t_bool"
          },
          {
            "astId": 2150,
            "contract": "contracts/NFTMarketplace.sol:NFTMarketplace",
            "label": "cancelled",
            "offset": 21,
            "slot": "3",
            "type": "t_bool"
          }
        ],
        "numberOfBytes": "128"
      },
      "t_uint256": {
        "encoding": "inplace",
        "label": "uint256",
        "numberOfBytes": "32"
      }
    }
  }
}