{
  "contractName": "NFTMarketplace",
  "abi": [
    {
      "inputs": [
        {
          "internalType": "address",
          "name": "_nftCollection",
          "type": "address"
        }
      ],
      "stateMutability": "nonpayable",
      "type": "constructor"
    },
    {
      "anonymous": false,
      "inputs": [
        {
          "indexed": false,
          "internalType": "uint256",
          "name": "tokenId",
          "type": "uint256"
        }
      ],
      "name": "BidCanceled",
      "type": "event"
    },
    {
      "anonymous": false,
      "inputs": [
        {
          "indexed": false,
          "internalType": "uint256",
          "name": "tokenId",
          "type": "uint256"
        },
        {
          "indexed": false,
          "internalType": "uint256",
          "name": "nftHighestBid",
          "type": "uint256"
        },
        {
          "indexed": false,
          "internalType": "address",
          "name": "nftHighestBidder",
          "type": "address"
        },
        {
          "indexed": false,
          "internalType": "uint256",
          "name": "auctionEnd",
          "type": "uint256"
        }
      ],
      "name": "BidCreated",
      "type": "event"
    },
    {
      "anonymous": false,
      "inputs": [
        {
          "indexed": false,
          "internalType": "address",
          "name": "user",
          "type": "address"
        },
        {
          "indexed": false,
          "internalType": "uint256",
          "name": "amount",
          "type": "uint256"
        }
      ],
      "name": "ClaimFunds",
      "type": "event"
    },
    {
      "anonymous": false,
      "inputs": [
        {
          "indexed": false,
          "internalType": "uint256",
          "name": "tokenId",
          "type": "uint256"
        },
        {
          "indexed": false,
          "internalType": "address",
          "name": "nftSeller",
          "type": "address"
        }
      ],
      "name": "NftAuctionCanceled",
      "type": "event"
    },
    {
      "anonymous": false,
      "inputs": [
        {
          "indexed": false,
          "internalType": "uint256",
          "name": "auctionEnd",
          "type": "uint256"
        },
        {
          "indexed": false,
          "internalType": "uint256",
          "name": "buyNowPrice",
          "type": "uint256"
        },
        {
          "indexed": false,
          "internalType": "uint256",
          "name": "tokenId",
          "type": "uint256"
        },
        {
          "indexed": false,
          "internalType": "address",
          "name": "nftSeller",
          "type": "address"
        }
      ],
      "name": "NftAuctionCreated",
      "type": "event"
    },
    {
      "anonymous": false,
      "inputs": [
        {
          "indexed": false,
          "internalType": "uint256",
          "name": "tokenId",
          "type": "uint256"
        },
        {
          "indexed": false,
          "internalType": "address",
          "name": "nftSeller",
          "type": "address"
        },
        {
          "indexed": false,
          "internalType": "uint256",
          "name": "buyNowPrice",
          "type": "uint256"
        },
        {
          "indexed": false,
          "internalType": "address",
          "name": "winner",
          "type": "address"
        },
        {
          "indexed": false,
          "internalType": "uint256",
          "name": "price",
          "type": "uint256"
        }
      ],
      "name": "NftAuctionSettled",
      "type": "event"
    },
    {
      "anonymous": false,
      "inputs": [
        {
          "indexed": false,
          "internalType": "uint256",
          "name": "offerId",
          "type": "uint256"
        },
        {
          "indexed": false,
          "internalType": "uint256",
          "name": "id",
          "type": "uint256"
        },
        {
          "indexed": false,
          "internalType": "address",
          "name": "user",
          "type": "address"
        },
        {
          "indexed": false,
          "internalType": "uint256",
          "name": "price",
          "type": "uint256"
        },
        {
          "indexed": false,
          "internalType": "bool",
          "name": "fulfilled",
          "type": "bool"
        },
        {
          "indexed": false,
          "internalType": "bool",
          "name": "cancelled",
          "type": "bool"
        }
      ],
      "name": "Offer",
      "type": "event"
    },
    {
      "anonymous": false,
      "inputs": [
        {
          "indexed": false,
          "internalType": "uint256",
          "name": "offerId",
          "type": "uint256"
        },
        {
          "indexed": false,
          "internalType": "uint256",
          "name": "id",
          "type": "uint256"
        },
        {
          "indexed": false,
          "internalType": "address",
          "name": "owner",
          "type": "address"
        }
      ],
      "name": "OfferCancelled",
      "type": "event"
    },
    {
      "anonymous": false,
      "inputs": [
        {
          "indexed": false,
          "internalType": "uint256",
          "name": "offerId",
          "type": "uint256"
        },
        {
          "indexed": false,
          "internalType": "uint256",
          "name": "id",
          "type": "uint256"
        },
        {
          "indexed": false,
          "internalType": "address",
          "name": "newOwner",
          "type": "address"
        }
      ],
      "name": "OfferFilled",
      "type": "event"
    },
    {
      "anonymous": false,
      "inputs": [
        {
          "indexed": false,
          "internalType": "uint256",
          "name": "offerId",
          "type": "uint256"
        },
        {
          "indexed": false,
          "internalType": "uint256",
          "name": "price",
          "type": "uint256"
        }
      ],
      "name": "OfferUpdated",
      "type": "event"
    },
    {
      "stateMutability": "nonpayable",
      "type": "fallback"
    },
    {
      "inputs": [
        {
          "internalType": "uint256",
          "name": "",
          "type": "uint256"
        }
      ],
      "name": "nftAuctions",
      "outputs": [
        {
          "internalType": "uint256",
          "name": "buyNowPrice",
          "type": "uint256"
        },
        {
          "internalType": "uint256",
          "name": "nftHighestBid",
          "type": "uint256"
        },
        {
          "internalType": "uint256",
          "name": "auctionEnd",
          "type": "uint256"
        },
        {
          "internalType": "address",
          "name": "nftHighestBidder",
          "type": "address"
        },
        {
          "internalType": "address",
          "name": "nftSeller",
          "type": "address"
        }
      ],
      "stateMutability": "view",
      "type": "function",
      "constant": true
    },
    {
      "inputs": [],
      "name": "offerCount",
      "outputs": [
        {
          "internalType": "uint256",
          "name": "",
          "type": "uint256"
        }
      ],
      "stateMutability": "view",
      "type": "function",
      "constant": true
    },
    {
      "inputs": [
        {
          "internalType": "uint256",
          "name": "",
          "type": "uint256"
        }
      ],
      "name": "offers",
      "outputs": [
        {
          "internalType": "uint256",
          "name": "offerId",
          "type": "uint256"
        },
        {
          "internalType": "uint256",
          "name": "id",
          "type": "uint256"
        },
        {
          "internalType": "uint256",
          "name": "price",
          "type": "uint256"
        },
        {
          "internalType": "address",
          "name": "user",
          "type": "address"
        },
        {
          "internalType": "bool",
          "name": "fulfilled",
          "type": "bool"
        },
        {
          "internalType": "bool",
          "name": "cancelled",
          "type": "bool"
        }
      ],
      "stateMutability": "view",
      "type": "function",
      "constant": true
    },
    {
      "inputs": [
        {
          "internalType": "address",
          "name": "",
          "type": "address"
        }
      ],
      "name": "userFunds",
      "outputs": [
        {
          "internalType": "uint256",
          "name": "",
          "type": "uint256"
        }
      ],
      "stateMutability": "view",
      "type": "function",
      "constant": true
    },
    {
      "inputs": [
        {
          "internalType": "uint256",
          "name": "_id",
          "type": "uint256"
        },
        {
          "internalType": "uint256",
          "name": "_price",
          "type": "uint256"
        }
      ],
      "name": "makeOffer",
      "outputs": [],
      "stateMutability": "nonpayable",
      "type": "function"
    },
    {
      "inputs": [
        {
          "internalType": "uint256",
          "name": "_offerId",
          "type": "uint256"
        }
      ],
      "name": "fillOffer",
      "outputs": [],
      "stateMutability": "payable",
      "type": "function",
      "payable": true
    },
    {
      "inputs": [
        {
          "internalType": "uint256",
          "name": "_offerId",
          "type": "uint256"
        }
      ],
      "name": "cancelOffer",
      "outputs": [],
      "stateMutability": "nonpayable",
      "type": "function"
    },
    {
      "inputs": [
        {
          "internalType": "uint256",
          "name": "_offerId",
          "type": "uint256"
        },
        {
          "internalType": "uint256",
          "name": "_price",
          "type": "uint256"
        }
      ],
      "name": "updateOffer",
      "outputs": [],
      "stateMutability": "nonpayable",
      "type": "function"
    },
    {
      "inputs": [
        {
          "internalType": "uint256",
          "name": "_tokenId",
          "type": "uint256"
        },
        {
          "internalType": "uint256",
          "name": "_price",
          "type": "uint256"
        },
        {
          "internalType": "uint256",
          "name": "period",
          "type": "uint256"
        }
      ],
      "name": "makeAuction",
      "outputs": [],
      "stateMutability": "nonpayable",
      "type": "function"
    },
    {
      "inputs": [
        {
          "internalType": "uint256",
          "name": "_tokenId",
          "type": "uint256"
        }
      ],
      "name": "cancelAuction",
      "outputs": [],
      "stateMutability": "nonpayable",
      "type": "function"
    },
    {
      "inputs": [
        {
          "internalType": "uint256",
          "name": "_tokenId",
          "type": "uint256"
        }
      ],
      "name": "settleAuction",
      "outputs": [],
      "stateMutability": "nonpayable",
      "type": "function"
    },
    {
      "inputs": [
        {
          "internalType": "uint256",
          "name": "_tokenId",
          "type": "uint256"
        }
      ],
      "name": "makeBid",
      "outputs": [],
      "stateMutability": "payable",
      "type": "function",
      "payable": true
    },
    {
      "inputs": [
        {
          "internalType": "uint256",
          "name": "_tokenId",
          "type": "uint256"
        }
      ],
      "name": "cancelBid",
      "outputs": [],
      "stateMutability": "nonpayable",
      "type": "function"
    },
    {
      "inputs": [],
      "name": "claimFunds",
      "outputs": [],
      "stateMutability": "nonpayable",
      "type": "function"
    },
    {
      "inputs": [
        {
          "internalType": "address",
          "name": "newOwner",
          "type": "address"
        }
      ],
      "name": "transferOwnership",
      "outputs": [],
      "stateMutability": "nonpayable",
      "type": "function"
    }
  ],
  "bytecode": "0x608060405260fa6001553480156200001657600080fd5b50604051620037253803806200372583398181016040528101906200003c91906200012f565b80600560006101000a81548173ffffffffffffffffffffffffffffffffffffffff021916908373ffffffffffffffffffffffffffffffffffffffff16021790555033600660006101000a81548173ffffffffffffffffffffffffffffffffffffffff021916908373ffffffffffffffffffffffffffffffffffffffff1602179055505062000161565b600080fd5b600073ffffffffffffffffffffffffffffffffffffffff82169050919050565b6000620000f782620000ca565b9050919050565b6200010981620000ea565b81146200011557600080fd5b50565b6000815190506200012981620000fe565b92915050565b600060208284031215620001485762000147620000c5565b5b6000620001588482850162000118565b91505092915050565b6135b480620001716000396000f3fe6080604052600436106100ec5760003560e01c80638a72ea6a1161008a578063ac30777311610059578063ac307773146102ef578063d04d5d7214610306578063ef706adf1461032f578063f2fde38b14610358576100ed565b80638a72ea6a1461021a57806393cde51a1461025c57806396b5a7551461029d5780639703ef35146102c6576100ed565b8063175b2304116100c6578063175b23041461017c5780632e993611146101985780638387c6e1146101c157806385dba861146101fe576100ed565b806305b7cdd3146100ff5780630b7b925b146101285780631115c24d14610151576100ed565b5b3480156100f957600080fd5b50600080fd5b34801561010b57600080fd5b506101266004803603810190610121919061242f565b610381565b005b34801561013457600080fd5b5061014f600480360381019061014a919061242f565b610578565b005b34801561015d57600080fd5b5061016661075e565b604051610173919061247e565b60405180910390f35b61019660048036038101906101919190612499565b610764565b005b3480156101a457600080fd5b506101bf60048036038101906101ba9190612499565b610c9b565b005b3480156101cd57600080fd5b506101e860048036038101906101e39190612524565b611063565b6040516101f5919061247e565b60405180910390f35b61021860048036038101906102139190612499565b61107b565b005b34801561022657600080fd5b50610241600480360381019061023c9190612499565b61142d565b6040516102539695949392919061257b565b60405180910390f35b34801561026857600080fd5b50610283600480360381019061027e9190612499565b6114a3565b6040516102949594939291906125dc565b60405180910390f35b3480156102a957600080fd5b506102c460048036038101906102bf9190612499565b611519565b005b3480156102d257600080fd5b506102ed60048036038101906102e89190612499565b611786565b005b3480156102fb57600080fd5b50610304611a5b565b005b34801561031257600080fd5b5061032d6004803603810190610328919061262f565b611c22565b005b34801561033b57600080fd5b5061035660048036038101906103519190612499565b611dae565b005b34801561036457600080fd5b5061037f600480360381019061037a9190612524565b612042565b005b600560009054906101000a900473ffffffffffffffffffffffffffffffffffffffff1673ffffffffffffffffffffffffffffffffffffffff166323b872dd3330856040518463ffffffff1660e01b81526004016103e093929190612682565b600060405180830381600087803b1580156103fa57600080fd5b505af115801561040e573d6000803e3d6000fd5b50505050600080815480929190610424906126e8565b91905055506040518060c0016040528060005481526020018381526020018281526020013373ffffffffffffffffffffffffffffffffffffffff16815260200160001515815260200160001515815250600260008054815260200190815260200160002060008201518160000155602082015181600101556040820151816002015560608201518160030160006101000a81548173ffffffffffffffffffffffffffffffffffffffff021916908373ffffffffffffffffffffffffffffffffffffffff16021790555060808201518160030160146101000a81548160ff02191690831515021790555060a08201518160030160156101000a81548160ff0219169083151502179055509050507f93e711896d4ef527d199d7e101922e20f918cbb248a0fb0977c52fda24aa1f1d60005483338460008060405161056c96959493929190612731565b60405180910390a15050565b6000600260008481526020019081526020016000209050828160000154146105d5576040517f08c379a00000000000000000000000000000000000000000000000000000000081526004016105cc906127ef565b60405180910390fd5b3373ffffffffffffffffffffffffffffffffffffffff168160030160009054906101000a900473ffffffffffffffffffffffffffffffffffffffff1673ffffffffffffffffffffffffffffffffffffffff1614610667576040517f08c379a000000000000000000000000000000000000000000000000000000000815260040161065e90612881565b60405180910390fd5b600015158160030160149054906101000a900460ff161515146106bf576040517f08c379a00000000000000000000000000000000000000000000000000000000081526004016106b690612913565b60405180910390fd5b600015158160030160159054906101000a900460ff16151514610717576040517f08c379a000000000000000000000000000000000000000000000000000000000815260040161070e9061297f565b60405180910390fd5b8181600201819055507f63259830931e406791f7755ad50d816251e755d53951772775a94f2bf0e54fde838360405161075192919061299f565b60405180910390a1505050565b60005481565b600073ffffffffffffffffffffffffffffffffffffffff166004600083815260200190815260200160002060040160009054906101000a900473ffffffffffffffffffffffffffffffffffffffff1673ffffffffffffffffffffffffffffffffffffffff16141561080a576040517f08c379a000000000000000000000000000000000000000000000000000000000815260040161080190612a14565b60405180910390fd5b42600460008381526020019081526020016000206002015411610862576040517f08c379a000000000000000000000000000000000000000000000000000000000815260040161085990612a80565b60405180910390fd5b3373ffffffffffffffffffffffffffffffffffffffff166004600083815260200190815260200160002060040160009054906101000a900473ffffffffffffffffffffffffffffffffffffffff1673ffffffffffffffffffffffffffffffffffffffff161415610907576040517f08c379a00000000000000000000000000000000000000000000000000000000081526004016108fe90612b12565b60405180910390fd5b600060046000838152602001908152602001600020600101549050600460008381526020019081526020016000206000015481111561099657662386f26fc10000600a826109559190612b61565b111561097b57600a600b8261096a9190612b92565b6109749190612b61565b9050610991565b662386f26fc100008161098e9190612bec565b90505b6109b0565b600460008381526020019081526020016000206000015490505b803410156109f3576040517f08c379a00000000000000000000000000000000000000000000000000000000081526004016109ea90612cb4565b60405180910390fd5b60006004600084815260200190815260200160002060030160009054906101000a900473ffffffffffffffffffffffffffffffffffffffff169050600073ffffffffffffffffffffffffffffffffffffffff168173ffffffffffffffffffffffffffffffffffffffff161415610ab8576004600084815260200190815260200160002060040160009054906101000a900473ffffffffffffffffffffffffffffffffffffffff169050610ab3600a34610aac9190612b61565b848361211a565b610b69565b600a34610ac59190612b61565b600a6004600086815260200190815260200160002060010154610ae89190612b61565b6004600086815260200190815260200160002060010154610b099190612cd4565b610b139190612bec565b600360008373ffffffffffffffffffffffffffffffffffffffff1673ffffffffffffffffffffffffffffffffffffffff1681526020019081526020016000206000828254610b619190612bec565b925050819055505b336004600085815260200190815260200160002060030160006101000a81548173ffffffffffffffffffffffffffffffffffffffff021916908373ffffffffffffffffffffffffffffffffffffffff16021790555034600460008581526020019081526020016000206001018190555061025842610be79190612bec565b60046000858152602001908152602001600020600201541015610c2d5761025842610c129190612bec565b60046000858152602001908152602001600020600201819055505b7f6d2b783673dbbf046f2e5a1f3c92ce62c29a0f5385f2b1f0eaf19019ef28cb55836004600086815260200190815260200160002060010154336004600088815260200190815260200160002060020154604051610c8e9493929190612d08565b60405180910390a1505050565b600073ffffffffffffffffffffffffffffffffffffffff166004600083815260200190815260200160002060040160009054906101000a900473ffffffffffffffffffffffffffffffffffffffff1673ffffffffffffffffffffffffffffffffffffffff161415610d41576040517f08c379a0000000000000000000000000000000000000000000000000000000008152600401610d3890612a14565b60405180910390fd5b4260046000838152602001908152602001600020600201541115610d9a576040517f08c379a0000000000000000000000000000000000000000000000000000000008152600401610d9190612d99565b60405180910390fd5b7fad0fc073c0346c2850f535b636bd929b71ae81fa3fdd2c79445b0b84ba612d4d816004600084815260200190815260200160002060040160009054906101000a900473ffffffffffffffffffffffffffffffffffffffff1660046000858152602001908152602001600020600001546004600086815260200190815260200160002060030160009054906101000a900473ffffffffffffffffffffffffffffffffffffffff166004600087815260200190815260200160002060010154604051610e69959493929190612db9565b60405180910390a1600073ffffffffffffffffffffffffffffffffffffffff166004600083815260200190815260200160002060030160009054906101000a900473ffffffffffffffffffffffffffffffffffffffff1673ffffffffffffffffffffffffffffffffffffffff1614610f6057610f5f600a6004600084815260200190815260200160002060010154610f019190612b61565b6004600084815260200190815260200160002060010154610f229190612cd4565b826004600085815260200190815260200160002060040160009054906101000a900473ffffffffffffffffffffffffffffffffffffffff1661211a565b5b600060046000838152602001908152602001600020600001819055506000600460008381526020019081526020016000206002018190555060006004600083815260200190815260200160002060040160006101000a81548173ffffffffffffffffffffffffffffffffffffffff021916908373ffffffffffffffffffffffffffffffffffffffff1602179055506000600460008381526020019081526020016000206001018190555060006004600083815260200190815260200160002060030160006101000a81548173ffffffffffffffffffffffffffffffffffffffff021916908373ffffffffffffffffffffffffffffffffffffffff16021790555050565b60036020528060005260406000206000915090505481565b6000600260008381526020019081526020016000209050818160000154146110d8576040517f08c379a00000000000000000000000000000000000000000000000000000000081526004016110cf906127ef565b60405180910390fd5b3373ffffffffffffffffffffffffffffffffffffffff168160030160009054906101000a900473ffffffffffffffffffffffffffffffffffffffff1673ffffffffffffffffffffffffffffffffffffffff16141561116b576040517f08c379a000000000000000000000000000000000000000000000000000000000815260040161116290612e7e565b60405180910390fd5b8060030160149054906101000a900460ff16156111bd576040517f08c379a00000000000000000000000000000000000000000000000000000000081526004016111b490612f10565b60405180910390fd5b8060030160159054906101000a900460ff161561120f576040517f08c379a000000000000000000000000000000000000000000000000000000000815260040161120690612fa2565b60405180910390fd5b8060020154600360003373ffffffffffffffffffffffffffffffffffffffff1673ffffffffffffffffffffffffffffffffffffffff168152602001908152602001600020543461125f9190612bec565b10156112a0576040517f08c379a000000000000000000000000000000000000000000000000000000000815260040161129790613034565b60405180910390fd5b600560009054906101000a900473ffffffffffffffffffffffffffffffffffffffff1673ffffffffffffffffffffffffffffffffffffffff166323b872dd303384600101546040518463ffffffff1660e01b815260040161130393929190612682565b600060405180830381600087803b15801561131d57600080fd5b505af1158015611331573d6000803e3d6000fd5b5050505060018160030160146101000a81548160ff0219169083151502179055506113853482600101548360030160009054906101000a900473ffffffffffffffffffffffffffffffffffffffff1661211a565b3481600201546113959190612cd4565b600360003373ffffffffffffffffffffffffffffffffffffffff1673ffffffffffffffffffffffffffffffffffffffff16815260200190815260200160002060008282546113e39190612cd4565b925050819055507fd9157c065213ada613694e84b1e27fe2efd62d85c6b82bd6c842a4999491e72a8282600101543360405161142193929190613054565b60405180910390a15050565b60026020528060005260406000206000915090508060000154908060010154908060020154908060030160009054906101000a900473ffffffffffffffffffffffffffffffffffffffff16908060030160149054906101000a900460ff16908060030160159054906101000a900460ff16905086565b60046020528060005260406000206000915090508060000154908060010154908060020154908060030160009054906101000a900473ffffffffffffffffffffffffffffffffffffffff16908060040160009054906101000a900473ffffffffffffffffffffffffffffffffffffffff16905085565b3373ffffffffffffffffffffffffffffffffffffffff166004600083815260200190815260200160002060040160009054906101000a900473ffffffffffffffffffffffffffffffffffffffff1673ffffffffffffffffffffffffffffffffffffffff16146115bd576040517f08c379a00000000000000000000000000000000000000000000000000000000081526004016115b4906130fd565b60405180910390fd5b600460008281526020019081526020016000206000015460046000838152602001908152602001600020600101541061162b576040517f08c379a000000000000000000000000000000000000000000000000000000000815260040161162290613169565b60405180910390fd5b600560009054906101000a900473ffffffffffffffffffffffffffffffffffffffff1673ffffffffffffffffffffffffffffffffffffffff166323b872dd3033846040518463ffffffff1660e01b815260040161168a93929190612682565b600060405180830381600087803b1580156116a457600080fd5b505af11580156116b8573d6000803e3d6000fd5b50505050600060046000838152602001908152602001600020600001819055506000600460008381526020019081526020016000206002018190555060006004600083815260200190815260200160002060040160006101000a81548173ffffffffffffffffffffffffffffffffffffffff021916908373ffffffffffffffffffffffffffffffffffffffff1602179055507f9f338bd30f2b8df7becd5a8d2b41a9f9572ee4a9db023508e50c541285c8dc0e813360405161177b929190613189565b60405180910390a150565b600073ffffffffffffffffffffffffffffffffffffffff166004600083815260200190815260200160002060040160009054906101000a900473ffffffffffffffffffffffffffffffffffffffff1673ffffffffffffffffffffffffffffffffffffffff16141561182c576040517f08c379a000000000000000000000000000000000000000000000000000000000815260040161182390612a14565b60405180910390fd5b42600460008381526020019081526020016000206002015411611884576040517f08c379a000000000000000000000000000000000000000000000000000000000815260040161187b90612a80565b60405180910390fd5b6004600082815260200190815260200160002060030160009054906101000a900473ffffffffffffffffffffffffffffffffffffffff1673ffffffffffffffffffffffffffffffffffffffff163373ffffffffffffffffffffffffffffffffffffffff1614611928576040517f08c379a000000000000000000000000000000000000000000000000000000000815260040161191f90613224565b60405180910390fd5b600a600460008381526020019081526020016000206001015461194b9190612b61565b600460008381526020019081526020016000206001015461196c9190612cd4565b600360003373ffffffffffffffffffffffffffffffffffffffff1673ffffffffffffffffffffffffffffffffffffffff1681526020019081526020016000208190555060006004600083815260200190815260200160002060030160006101000a81548173ffffffffffffffffffffffffffffffffffffffff021916908373ffffffffffffffffffffffffffffffffffffffff160217905550600060046000838152602001908152602001600020600101819055507ff72c9cb76aa633bc9310fa98738d474339fdf2f23dfac70ccbd65e593f6654df81604051611a50919061247e565b60405180910390a150565b6000600360003373ffffffffffffffffffffffffffffffffffffffff1673ffffffffffffffffffffffffffffffffffffffff1681526020019081526020016000205411611add576040517f08c379a0000000000000000000000000000000000000000000000000000000008152600401611ad4906132b6565b60405180910390fd5b3373ffffffffffffffffffffffffffffffffffffffff166108fc600360003373ffffffffffffffffffffffffffffffffffffffff1673ffffffffffffffffffffffffffffffffffffffff168152602001908152602001600020549081150290604051600060405180830381858888f19350505050158015611b62573d6000803e3d6000fd5b507f4f0554190111f93f8c2ccef2cc41473f187d7f29ff5a5c308ca41f9dfe4e989a33600360003373ffffffffffffffffffffffffffffffffffffffff1673ffffffffffffffffffffffffffffffffffffffff16815260200190815260200160002054604051611bd39291906132d6565b60405180910390a16000600360003373ffffffffffffffffffffffffffffffffffffffff1673ffffffffffffffffffffffffffffffffffffffff16815260200190815260200160002081905550565b600560009054906101000a900473ffffffffffffffffffffffffffffffffffffffff1673ffffffffffffffffffffffffffffffffffffffff166323b872dd3330866040518463ffffffff1660e01b8152600401611c8193929190612682565b600060405180830381600087803b158015611c9b57600080fd5b505af1158015611caf573d6000803e3d6000fd5b50505050816004600085815260200190815260200160002060000181905550610e1081611cdc9190612b92565b42611ce79190612bec565b6004600085815260200190815260200160002060020181905550336004600085815260200190815260200160002060040160006101000a81548173ffffffffffffffffffffffffffffffffffffffff021916908373ffffffffffffffffffffffffffffffffffffffff1602179055507fa060a06376aad79320fcbff6f10eea7cd5f064d831e6aac4d2a8d1a80fa04ca46004600085815260200190815260200160002060020154838533604051611da194939291906132ff565b60405180910390a1505050565b600060026000838152602001908152602001600020905081816000015414611e0b576040517f08c379a0000000000000000000000000000000000000000000000000000000008152600401611e02906127ef565b60405180910390fd5b3373ffffffffffffffffffffffffffffffffffffffff168160030160009054906101000a900473ffffffffffffffffffffffffffffffffffffffff1673ffffffffffffffffffffffffffffffffffffffff1614611e9d576040517f08c379a0000000000000000000000000000000000000000000000000000000008152600401611e94906133b6565b60405180910390fd5b600015158160030160149054906101000a900460ff16151514611ef5576040517f08c379a0000000000000000000000000000000000000000000000000000000008152600401611eec90613448565b60405180910390fd5b600015158160030160159054906101000a900460ff16151514611f4d576040517f08c379a0000000000000000000000000000000000000000000000000000000008152600401611f44906134da565b60405180910390fd5b600560009054906101000a900473ffffffffffffffffffffffffffffffffffffffff1673ffffffffffffffffffffffffffffffffffffffff166323b872dd303384600101546040518463ffffffff1660e01b8152600401611fb093929190612682565b600060405180830381600087803b158015611fca57600080fd5b505af1158015611fde573d6000803e3d6000fd5b5050505060018160030160156101000a81548160ff0219169083151502179055507f5b166b4d0498ff8c4719999cb6154c5d197e6f020f9fbfcf9d347f84576cfab78282600101543360405161203693929190613054565b60405180910390a15050565b600660009054906101000a900473ffffffffffffffffffffffffffffffffffffffff1673ffffffffffffffffffffffffffffffffffffffff163373ffffffffffffffffffffffffffffffffffffffff161461209c57600080fd5b600073ffffffffffffffffffffffffffffffffffffffff168173ffffffffffffffffffffffffffffffffffffffff1614156120d657600080fd5b80600660006101000a81548173ffffffffffffffffffffffffffffffffffffffff021916908373ffffffffffffffffffffffffffffffffffffffff16021790555050565b6000831161212757600080fd5b6000600560009054906101000a900473ffffffffffffffffffffffffffffffffffffffff1673ffffffffffffffffffffffffffffffffffffffff1663e814cb71846040518263ffffffff1660e01b8152600401612184919061247e565b602060405180830381865afa1580156121a1573d6000803e3d6000fd5b505050506040513d601f19601f820116820180604052508101906121c5919061350f565b90506000600560009054906101000a900473ffffffffffffffffffffffffffffffffffffffff1673ffffffffffffffffffffffffffffffffffffffff16634586b3a1856040518263ffffffff1660e01b8152600401612224919061247e565b602060405180830381865afa158015612241573d6000803e3d6000fd5b505050506040513d601f19601f820116820180604052508101906122659190613551565b9050612710600154866122789190612b92565b6122829190612b61565b60036000600660009054906101000a900473ffffffffffffffffffffffffffffffffffffffff1673ffffffffffffffffffffffffffffffffffffffff1673ffffffffffffffffffffffffffffffffffffffff16815260200190815260200160002060008282546122f29190612bec565b9250508190555061271082866123089190612b92565b6123129190612b61565b600360008373ffffffffffffffffffffffffffffffffffffffff1673ffffffffffffffffffffffffffffffffffffffff16815260200190815260200160002060008282546123609190612bec565b92505081905550612710826001546123789190612bec565b866123839190612b92565b61238d9190612b61565b856123989190612cd4565b600360008573ffffffffffffffffffffffffffffffffffffffff1673ffffffffffffffffffffffffffffffffffffffff16815260200190815260200160002060008282546123e69190612bec565b925050819055505050505050565b600080fd5b6000819050919050565b61240c816123f9565b811461241757600080fd5b50565b60008135905061242981612403565b92915050565b60008060408385031215612446576124456123f4565b5b60006124548582860161241a565b92505060206124658582860161241a565b9150509250929050565b612478816123f9565b82525050565b6000602082019050612493600083018461246f565b92915050565b6000602082840312156124af576124ae6123f4565b5b60006124bd8482850161241a565b91505092915050565b600073ffffffffffffffffffffffffffffffffffffffff82169050919050565b60006124f1826124c6565b9050919050565b612501816124e6565b811461250c57600080fd5b50565b60008135905061251e816124f8565b92915050565b60006020828403121561253a576125396123f4565b5b60006125488482850161250f565b91505092915050565b61255a816124e6565b82525050565b60008115159050919050565b61257581612560565b82525050565b600060c082019050612590600083018961246f565b61259d602083018861246f565b6125aa604083018761246f565b6125b76060830186612551565b6125c4608083018561256c565b6125d160a083018461256c565b979650505050505050565b600060a0820190506125f1600083018861246f565b6125fe602083018761246f565b61260b604083018661246f565b6126186060830185612551565b6126256080830184612551565b9695505050505050565b600080600060608486031215612648576126476123f4565b5b60006126568682870161241a565b93505060206126678682870161241a565b92505060406126788682870161241a565b9150509250925092565b60006060820190506126976000830186612551565b6126a46020830185612551565b6126b1604083018461246f565b949350505050565b7f4e487b7100000000000000000000000000000000000000000000000000000000600052601160045260246000fd5b60006126f3826123f9565b91507fffffffffffffffffffffffffffffffffffffffffffffffffffffffffffffffff821415612726576127256126b9565b5b600182019050919050565b600060c082019050612746600083018961246f565b612753602083018861246f565b6127606040830187612551565b61276d606083018661246f565b61277a608083018561256c565b61278760a083018461256c565b979650505050505050565b600082825260208201905092915050565b7f546865206f66666572206d757374206578697374000000000000000000000000600082015250565b60006127d9601483612792565b91506127e4826127a3565b602082019050919050565b60006020820190508181036000830152612808816127cc565b9050919050565b7f546865206f666665722063616e206f6e6c79206265207570646174656420627960008201527f20746865206f776e657200000000000000000000000000000000000000000000602082015250565b600061286b602a83612792565b91506128768261280f565b604082019050919050565b6000602082019050818103600083015261289a8161285e565b9050919050565b7f412066756c66696c6c6564206f666665722063616e6e6f74206265207570646160008201527f7465640000000000000000000000000000000000000000000000000000000000602082015250565b60006128fd602383612792565b9150612908826128a1565b604082019050919050565b6000602082019050818103600083015261292c816128f0565b9050919050565b7f416e206f666665722063616e6e6f742062652075706461746564000000000000600082015250565b6000612969601a83612792565b915061297482612933565b602082019050919050565b600060208201905081810360008301526129988161295c565b9050919050565b60006040820190506129b4600083018561246f565b6129c1602083018461246f565b9392505050565b7f5468652061756374696f6e206d75737420657869737400000000000000000000600082015250565b60006129fe601683612792565b9150612a09826129c8565b602082019050919050565b60006020820190508181036000830152612a2d816129f1565b9050919050565b7f41756374696f6e2068617320656e646564000000000000000000000000000000600082015250565b6000612a6a601183612792565b9150612a7582612a34565b602082019050919050565b60006020820190508181036000830152612a9981612a5d565b9050919050565b7f546865206f776e6572206f66207468652061756374696f6e2063616e6e6f742060008201527f6269642069740000000000000000000000000000000000000000000000000000602082015250565b6000612afc602683612792565b9150612b0782612aa0565b604082019050919050565b60006020820190508181036000830152612b2b81612aef565b9050919050565b7f4e487b7100000000000000000000000000000000000000000000000000000000600052601260045260246000fd5b6000612b6c826123f9565b9150612b77836123f9565b925082612b8757612b86612b32565b5b828204905092915050565b6000612b9d826123f9565b9150612ba8836123f9565b9250817fffffffffffffffffffffffffffffffffffffffffffffffffffffffffffffffff0483118215151615612be157612be06126b9565b5b828202905092915050565b6000612bf7826123f9565b9150612c02836123f9565b9250827fffffffffffffffffffffffffffffffffffffffffffffffffffffffffffffffff03821115612c3757612c366126b9565b5b828201905092915050565b7f5468652045544820616d6f756e742073686f756c64206265206d6f726520746860008201527f616e2031313025206f66204e4654206869676865737420626964205072696365602082015250565b6000612c9e604083612792565b9150612ca982612c42565b604082019050919050565b60006020820190508181036000830152612ccd81612c91565b9050919050565b6000612cdf826123f9565b9150612cea836123f9565b925082821015612cfd57612cfc6126b9565b5b828203905092915050565b6000608082019050612d1d600083018761246f565b612d2a602083018661246f565b612d376040830185612551565b612d44606083018461246f565b95945050505050565b7f41756374696f6e2073686f756c6420626520656e646564000000000000000000600082015250565b6000612d83601783612792565b9150612d8e82612d4d565b602082019050919050565b60006020820190508181036000830152612db281612d76565b9050919050565b600060a082019050612dce600083018861246f565b612ddb6020830187612551565b612de8604083018661246f565b612df56060830185612551565b612e02608083018461246f565b9695505050505050565b7f546865206f776e6572206f6620746865206f666665722063616e6e6f7420666960008201527f6c6c206974000000000000000000000000000000000000000000000000000000602082015250565b6000612e68602583612792565b9150612e7382612e0c565b604082019050919050565b60006020820190508181036000830152612e9781612e5b565b9050919050565b7f416e206f666665722063616e6e6f742062652066756c66696c6c65642074776960008201527f6365000000000000000000000000000000000000000000000000000000000000602082015250565b6000612efa602283612792565b9150612f0582612e9e565b604082019050919050565b60006020820190508181036000830152612f2981612eed565b9050919050565b7f412063616e63656c6c6564206f666665722063616e6e6f742062652066756c6660008201527f696c6c6564000000000000000000000000000000000000000000000000000000602082015250565b6000612f8c602583612792565b9150612f9782612f30565b604082019050919050565b60006020820190508181036000830152612fbb81612f7f565b9050919050565b7f5468652045544820616d6f756e742073686f756c64206d61746368207769746860008201527f20746865204e4654205072696365000000000000000000000000000000000000602082015250565b600061301e602e83612792565b915061302982612fc2565b604082019050919050565b6000602082019050818103600083015261304d81613011565b9050919050565b6000606082019050613069600083018661246f565b613076602083018561246f565b6130836040830184612551565b949350505050565b7f546865206f6e6c79206f776e6572206f66207468652061756374696f6e20636160008201527f6e2063616e63656c206974000000000000000000000000000000000000000000602082015250565b60006130e7602b83612792565b91506130f28261308b565b604082019050919050565b60006020820190508181036000830152613116816130da565b9050919050565b7f54686520626964206d757374206e6f7420657869737400000000000000000000600082015250565b6000613153601683612792565b915061315e8261311d565b602082019050919050565b6000602082019050818103600083015261318281613146565b9050919050565b600060408201905061319e600083018561246f565b6131ab6020830184612551565b9392505050565b7f4f6e6c792068696768657374206269646465722063616e2063616e63656c207460008201527f6865206269640000000000000000000000000000000000000000000000000000602082015250565b600061320e602683612792565b9150613219826131b2565b604082019050919050565b6000602082019050818103600083015261323d81613201565b9050919050565b7f54686973207573657220686173206e6f2066756e647320746f20626520636c6160008201527f696d656400000000000000000000000000000000000000000000000000000000602082015250565b60006132a0602483612792565b91506132ab82613244565b604082019050919050565b600060208201905081810360008301526132cf81613293565b9050919050565b60006040820190506132eb6000830185612551565b6132f8602083018461246f565b9392505050565b6000608082019050613314600083018761246f565b613321602083018661246f565b61332e604083018561246f565b61333b6060830184612551565b95945050505050565b7f546865206f666665722063616e206f6e6c792062652063616e63656c6564206260008201527f7920746865206f776e6572000000000000000000000000000000000000000000602082015250565b60006133a0602b83612792565b91506133ab82613344565b604082019050919050565b600060208201905081810360008301526133cf81613393565b9050919050565b7f412066756c66696c6c6564206f666665722063616e6e6f742062652063616e6360008201527f656c6c6564000000000000000000000000000000000000000000000000000000602082015250565b6000613432602583612792565b915061343d826133d6565b604082019050919050565b6000602082019050818103600083015261346181613425565b9050919050565b7f416e206f666665722063616e6e6f742062652063616e63656c6c65642074776960008201527f6365000000000000000000000000000000000000000000000000000000000000602082015250565b60006134c4602283612792565b91506134cf82613468565b604082019050919050565b600060208201905081810360008301526134f3816134b7565b9050919050565b60008151905061350981612403565b92915050565b600060208284031215613525576135246123f4565b5b6000613533848285016134fa565b91505092915050565b60008151905061354b816124f8565b92915050565b600060208284031215613567576135666123f4565b5b60006135758482850161353c565b9150509291505056fea26469706673582212202a5d2e8ecd96cf73beb93748a4f8169bd2b0b607ed140c112bf904e432ee863064736f6c634300080b0033",
  "immutableReferences": {},
  "source": "// SPDX-License-Identifier: MIT\r\npragma solidity ^0.8.0;\r\n\r\nimport \"./NFTCollection.sol\";\r\n\r\ncontract NFTMarketplace {\r\n    uint256 public offerCount;\r\n    uint256 marketFee = 250;\r\n    mapping(uint256 => _Offer) public offers;\r\n    mapping(address => uint256) public userFunds;\r\n    mapping(uint256 => Auction) public nftAuctions;\r\n    NFTCollection nftCollection;\r\n    address private _owner;\r\n\r\n    struct _Offer {\r\n        uint256 offerId;\r\n        uint256 id;\r\n        uint256 price;\r\n        address user;\r\n        bool fulfilled;\r\n        bool cancelled;\r\n    }\r\n\r\n    struct Auction {\r\n        //map token ID to\r\n        uint256 buyNowPrice;\r\n        uint256 nftHighestBid;\r\n        uint256 auctionEnd;\r\n        address nftHighestBidder;\r\n        address nftSeller;\r\n    }\r\n\r\n    event Offer(\r\n        uint256 offerId,\r\n        uint256 id,\r\n        address user,\r\n        uint256 price,\r\n        bool fulfilled,\r\n        bool cancelled\r\n    );\r\n\r\n    event NftAuctionCreated(\r\n        uint256 auctionEnd,\r\n        uint256 buyNowPrice,\r\n        uint256 tokenId,\r\n        address nftSeller\r\n    );\r\n\r\n    event NftAuctionCanceled(uint256 tokenId, address nftSeller);\r\n    event NftAuctionSettled(\r\n        uint256 tokenId,\r\n        address nftSeller,\r\n        uint256 buyNowPrice,\r\n        address winner,\r\n        uint256 price\r\n    );\r\n\r\n    event BidCreated(\r\n        uint256 tokenId,\r\n        uint256 nftHighestBid,\r\n        address nftHighestBidder,\r\n        uint256 auctionEnd\r\n    );\r\n\r\n    event BidCanceled(uint256 tokenId);\r\n\r\n    event OfferFilled(uint256 offerId, uint256 id, address newOwner);\r\n    event OfferUpdated(uint256 offerId, uint256 price);\r\n    event OfferCancelled(uint256 offerId, uint256 id, address owner);\r\n    event ClaimFunds(address user, uint256 amount);\r\n\r\n    constructor(address _nftCollection) {\r\n        nftCollection = NFTCollection(_nftCollection);\r\n        _owner = msg.sender;\r\n    }\r\n\r\n    modifier onlyOwner() {\r\n        require(msg.sender == _owner);\r\n        _;\r\n    }\r\n\r\n    function _marketTransfer(\r\n        uint256 _price,\r\n        uint256 _tokenId,\r\n        address _receiver\r\n    ) internal {\r\n        require(_price > 0);\r\n        uint256 royalty = nftCollection.royalty(_tokenId);\r\n        address inventor = nftCollection.inventor(_tokenId);\r\n        userFunds[_owner] += (_price * marketFee) / 10000;\r\n        userFunds[inventor] += (_price * royalty) / 10000;\r\n        userFunds[_receiver] +=\r\n            _price -\r\n            (_price * (marketFee + royalty)) /\r\n            10000;\r\n    }\r\n\r\n    function makeOffer(uint256 _id, uint256 _price) public {\r\n        nftCollection.transferFrom(msg.sender, address(this), _id);\r\n        offerCount++;\r\n        offers[offerCount] = _Offer(\r\n            offerCount,\r\n            _id,\r\n            _price,\r\n            msg.sender,\r\n            false,\r\n            false\r\n        );\r\n        emit Offer(offerCount, _id, msg.sender, _price, false, false);\r\n    }\r\n\r\n    function fillOffer(uint256 _offerId) public payable {\r\n        _Offer storage _offer = offers[_offerId];\r\n        require(_offer.offerId == _offerId, \"The offer must exist\");\r\n        require(\r\n            _offer.user != msg.sender,\r\n            \"The owner of the offer cannot fill it\"\r\n        );\r\n        require(!_offer.fulfilled, \"An offer cannot be fulfilled twice\");\r\n        require(!_offer.cancelled, \"A cancelled offer cannot be fulfilled\");\r\n\r\n        require(\r\n            msg.value + userFunds[msg.sender] >= _offer.price,\r\n            \"The ETH amount should match with the NFT Price\"\r\n        );\r\n        nftCollection.transferFrom(address(this), msg.sender, _offer.id);\r\n        _offer.fulfilled = true;\r\n        _marketTransfer(msg.value, _offer.id, _offer.user);\r\n        userFunds[msg.sender] -= _offer.price - msg.value;\r\n        emit OfferFilled(_offerId, _offer.id, msg.sender);\r\n    }\r\n\r\n    function cancelOffer(uint256 _offerId) public {\r\n        _Offer storage _offer = offers[_offerId];\r\n        require(_offer.offerId == _offerId, \"The offer must exist\");\r\n        require(\r\n            _offer.user == msg.sender,\r\n            \"The offer can only be canceled by the owner\"\r\n        );\r\n        require(\r\n            _offer.fulfilled == false,\r\n            \"A fulfilled offer cannot be cancelled\"\r\n        );\r\n        require(\r\n            _offer.cancelled == false,\r\n            \"An offer cannot be cancelled twice\"\r\n        );\r\n        nftCollection.transferFrom(address(this), msg.sender, _offer.id);\r\n        _offer.cancelled = true;\r\n        emit OfferCancelled(_offerId, _offer.id, msg.sender);\r\n    }\r\n\r\n    function updateOffer(uint256 _offerId, uint256 _price) public {\r\n        _Offer storage _offer = offers[_offerId];\r\n        require(_offer.offerId == _offerId, \"The offer must exist\");\r\n        require(\r\n            _offer.user == msg.sender,\r\n            \"The offer can only be updated by the owner\"\r\n        );\r\n        require(\r\n            _offer.fulfilled == false,\r\n            \"A fulfilled offer cannot be updated\"\r\n        );\r\n        require(_offer.cancelled == false, \"An offer cannot be updated\");\r\n        _offer.price = _price;\r\n        emit OfferUpdated(_offerId, _price);\r\n    }\r\n\r\n    function makeAuction(\r\n        uint256 _tokenId,\r\n        uint256 _price,\r\n        uint256 period\r\n    ) public {\r\n        nftCollection.transferFrom(msg.sender, address(this), _tokenId);\r\n\r\n        nftAuctions[_tokenId].buyNowPrice = _price;\r\n        nftAuctions[_tokenId].auctionEnd = block.timestamp + period * 1 hours;\r\n        nftAuctions[_tokenId].nftSeller = msg.sender;\r\n\r\n        emit NftAuctionCreated(\r\n            nftAuctions[_tokenId].auctionEnd,\r\n            _price,\r\n            _tokenId,\r\n            msg.sender\r\n        );\r\n    }\r\n\r\n    function cancelAuction(uint256 _tokenId) public {\r\n        require(\r\n            nftAuctions[_tokenId].nftSeller == msg.sender,\r\n            \"The only owner of the auction can cancel it\"\r\n        );\r\n        require(\r\n            nftAuctions[_tokenId].nftHighestBid <\r\n                nftAuctions[_tokenId].buyNowPrice,\r\n            \"The bid must not exist\"\r\n        );\r\n        nftCollection.transferFrom(address(this), msg.sender, _tokenId);\r\n\r\n        nftAuctions[_tokenId].buyNowPrice = 0;\r\n        nftAuctions[_tokenId].auctionEnd = 0;\r\n        nftAuctions[_tokenId].nftSeller = address(0);\r\n\r\n        emit NftAuctionCanceled(_tokenId, msg.sender);\r\n    }\r\n\r\n    function settleAuction(uint256 _tokenId) public {\r\n        require(\r\n            nftAuctions[_tokenId].nftSeller != address(0),\r\n            \"The auction must exist\"\r\n        );\r\n        require(\r\n            nftAuctions[_tokenId].auctionEnd <= block.timestamp,\r\n            \"Auction should be ended\"\r\n        );\r\n\r\n        emit NftAuctionSettled(\r\n            _tokenId,\r\n            nftAuctions[_tokenId].nftSeller,\r\n            nftAuctions[_tokenId].buyNowPrice,\r\n            nftAuctions[_tokenId].nftHighestBidder,\r\n            nftAuctions[_tokenId].nftHighestBid\r\n        );\r\n\r\n        if (nftAuctions[_tokenId].nftHighestBidder != address(0)) {\r\n            _marketTransfer(\r\n                nftAuctions[_tokenId].nftHighestBid -\r\n                    nftAuctions[_tokenId].nftHighestBid /\r\n                    10,\r\n                _tokenId,\r\n                nftAuctions[_tokenId].nftSeller\r\n            );\r\n        }\r\n\r\n        nftAuctions[_tokenId].buyNowPrice = 0;\r\n        nftAuctions[_tokenId].auctionEnd = 0;\r\n        nftAuctions[_tokenId].nftSeller = address(0);\r\n        nftAuctions[_tokenId].nftHighestBid = 0;\r\n        nftAuctions[_tokenId].nftHighestBidder = address(0);\r\n    }\r\n\r\n    function makeBid(uint256 _tokenId) public payable {\r\n        require(\r\n            nftAuctions[_tokenId].nftSeller != address(0),\r\n            \"The auction must exist\"\r\n        );\r\n        require(\r\n            nftAuctions[_tokenId].auctionEnd > block.timestamp,\r\n            \"Auction has ended\"\r\n        );\r\n        require(\r\n            nftAuctions[_tokenId].nftSeller != msg.sender,\r\n            \"The owner of the auction cannot bid it\"\r\n        );\r\n        uint256 limit = nftAuctions[_tokenId].nftHighestBid;\r\n        if (limit > nftAuctions[_tokenId].buyNowPrice) {\r\n            if (limit / 10 > 0.01 ether) limit = (limit * 11) / 10;\r\n            else limit += 0.01 ether;\r\n        } else limit = nftAuctions[_tokenId].buyNowPrice;\r\n        require(\r\n            msg.value >= limit,\r\n            \"The ETH amount should be more than 110% of NFT highest bid Price\"\r\n        );\r\n\r\n        address _receiver = nftAuctions[_tokenId].nftHighestBidder;\r\n        if (_receiver == address(0)) {\r\n            _receiver = nftAuctions[_tokenId].nftSeller;\r\n            _marketTransfer(msg.value / 10, _tokenId, _receiver);\r\n        } else\r\n            userFunds[_receiver] +=\r\n                nftAuctions[_tokenId].nftHighestBid -\r\n                nftAuctions[_tokenId].nftHighestBid /\r\n                10 +\r\n                msg.value /\r\n                10;\r\n\r\n        nftAuctions[_tokenId].nftHighestBidder = msg.sender;\r\n        nftAuctions[_tokenId].nftHighestBid = msg.value;\r\n        if (nftAuctions[_tokenId].auctionEnd < block.timestamp + 10 minutes)\r\n            nftAuctions[_tokenId].auctionEnd = block.timestamp + 10 minutes;\r\n\r\n        emit BidCreated(\r\n            _tokenId,\r\n            nftAuctions[_tokenId].nftHighestBid,\r\n            msg.sender,\r\n            nftAuctions[_tokenId].auctionEnd\r\n        );\r\n    }\r\n\r\n    function cancelBid(uint256 _tokenId) public {\r\n        require(\r\n            nftAuctions[_tokenId].nftSeller != address(0),\r\n            \"The auction must exist\"\r\n        );\r\n        require(\r\n            nftAuctions[_tokenId].auctionEnd > block.timestamp,\r\n            \"Auction has ended\"\r\n        );\r\n        require(\r\n            msg.sender == nftAuctions[_tokenId].nftHighestBidder,\r\n            \"Only highest bidder can cancel the bid\"\r\n        );\r\n\r\n        userFunds[msg.sender] =\r\n            nftAuctions[_tokenId].nftHighestBid -\r\n            nftAuctions[_tokenId].nftHighestBid /\r\n            10;\r\n        nftAuctions[_tokenId].nftHighestBidder = address(0);\r\n        nftAuctions[_tokenId].nftHighestBid = 0;\r\n\r\n        emit BidCanceled(_tokenId);\r\n    }\r\n\r\n    function claimFunds() public {\r\n        require(\r\n            userFunds[msg.sender] > 0,\r\n            \"This user has no funds to be claimed\"\r\n        );\r\n        payable(msg.sender).transfer(userFunds[msg.sender]);\r\n        emit ClaimFunds(msg.sender, userFunds[msg.sender]);\r\n        userFunds[msg.sender] = 0;\r\n    }\r\n\r\n    function transferOwnership(address newOwner) public onlyOwner {\r\n        require(newOwner != address(0));\r\n        _owner = newOwner;\r\n    }\r\n\r\n    // Fallback: reverts if Ether is sent to this smart-contract by mistake\r\n    fallback() external {\r\n        revert();\r\n    }\r\n}\r\n",
  "sourcePath": "C:\\Users\\Tiger\\3D Objects\\nft-marketplace\\src\\contracts\\NFTMarketplace.sol",
  "compiler": {
    "name": "solc",
    "version": "0.8.11+commit.d7f03943.Emscripten.clang"
  },
  "schemaVersion": "3.4.3",
  "updatedAt": "2021-12-26T12:44:41.351Z",
  "networkType": "ethereum",
  "devdoc": {
    "kind": "dev",
    "methods": {},
    "version": 1
  },
  "userdoc": {
    "kind": "user",
    "methods": {},
    "version": 1
  }
}