{
  "contractName": "NFTMarketplace",
  "abi": [
    {
      "inputs": [
        {
          "internalType": "address",
          "name": "_nftCollection",
          "type": "address"
        }
      ],
      "stateMutability": "nonpayable",
      "type": "constructor"
    },
    {
      "anonymous": false,
      "inputs": [
        {
          "indexed": false,
          "internalType": "uint256",
          "name": "tokenId",
          "type": "uint256"
        }
      ],
      "name": "BidCanceled",
      "type": "event"
    },
    {
      "anonymous": false,
      "inputs": [
        {
          "indexed": false,
          "internalType": "uint256",
          "name": "tokenId",
          "type": "uint256"
        },
        {
          "indexed": false,
          "internalType": "uint256",
          "name": "nftHighestBid",
          "type": "uint256"
        },
        {
          "indexed": false,
          "internalType": "address",
          "name": "nftHighestBidder",
          "type": "address"
        },
        {
          "indexed": false,
          "internalType": "uint256",
          "name": "auctionEnd",
          "type": "uint256"
        }
      ],
      "name": "BidCreated",
      "type": "event"
    },
    {
      "anonymous": false,
      "inputs": [
        {
          "indexed": false,
          "internalType": "address",
          "name": "user",
          "type": "address"
        },
        {
          "indexed": false,
          "internalType": "uint256",
          "name": "amount",
          "type": "uint256"
        }
      ],
      "name": "ClaimFunds",
      "type": "event"
    },
    {
      "anonymous": false,
      "inputs": [
        {
          "indexed": false,
          "internalType": "uint256",
          "name": "tokenId",
          "type": "uint256"
        },
        {
          "indexed": false,
          "internalType": "address",
          "name": "nftSeller",
          "type": "address"
        }
      ],
      "name": "NftAuctionCanceled",
      "type": "event"
    },
    {
      "anonymous": false,
      "inputs": [
        {
          "indexed": false,
          "internalType": "uint256",
          "name": "auctionEnd",
          "type": "uint256"
        },
        {
          "indexed": false,
          "internalType": "uint256",
          "name": "buyNowPrice",
          "type": "uint256"
        },
        {
          "indexed": false,
          "internalType": "uint256",
          "name": "tokenId",
          "type": "uint256"
        },
        {
          "indexed": false,
          "internalType": "address",
          "name": "nftSeller",
          "type": "address"
        }
      ],
      "name": "NftAuctionCreated",
      "type": "event"
    },
    {
      "anonymous": false,
      "inputs": [
        {
          "indexed": false,
          "internalType": "uint256",
          "name": "tokenId",
          "type": "uint256"
        },
        {
          "indexed": false,
          "internalType": "address",
          "name": "nftSeller",
          "type": "address"
        },
        {
          "indexed": false,
          "internalType": "uint256",
          "name": "buyNowPrice",
          "type": "uint256"
        },
        {
          "indexed": false,
          "internalType": "address",
          "name": "winner",
          "type": "address"
        },
        {
          "indexed": false,
          "internalType": "uint256",
          "name": "price",
          "type": "uint256"
        }
      ],
      "name": "NftAuctionSettled",
      "type": "event"
    },
    {
      "anonymous": false,
      "inputs": [
        {
          "indexed": false,
          "internalType": "uint256",
          "name": "offerId",
          "type": "uint256"
        },
        {
          "indexed": false,
          "internalType": "uint256",
          "name": "id",
          "type": "uint256"
        },
        {
          "indexed": false,
          "internalType": "address",
          "name": "user",
          "type": "address"
        },
        {
          "indexed": false,
          "internalType": "uint256",
          "name": "price",
          "type": "uint256"
        },
        {
          "indexed": false,
          "internalType": "bool",
          "name": "fulfilled",
          "type": "bool"
        },
        {
          "indexed": false,
          "internalType": "bool",
          "name": "cancelled",
          "type": "bool"
        }
      ],
      "name": "Offer",
      "type": "event"
    },
    {
      "anonymous": false,
      "inputs": [
        {
          "indexed": false,
          "internalType": "uint256",
          "name": "offerId",
          "type": "uint256"
        },
        {
          "indexed": false,
          "internalType": "uint256",
          "name": "id",
          "type": "uint256"
        },
        {
          "indexed": false,
          "internalType": "address",
          "name": "owner",
          "type": "address"
        }
      ],
      "name": "OfferCancelled",
      "type": "event"
    },
    {
      "anonymous": false,
      "inputs": [
        {
          "indexed": false,
          "internalType": "uint256",
          "name": "offerId",
          "type": "uint256"
        },
        {
          "indexed": false,
          "internalType": "uint256",
          "name": "id",
          "type": "uint256"
        },
        {
          "indexed": false,
          "internalType": "address",
          "name": "newOwner",
          "type": "address"
        }
      ],
      "name": "OfferFilled",
      "type": "event"
    },
    {
      "anonymous": false,
      "inputs": [
        {
          "indexed": true,
          "internalType": "address",
          "name": "previousOwner",
          "type": "address"
        },
        {
          "indexed": true,
          "internalType": "address",
          "name": "newOwner",
          "type": "address"
        }
      ],
      "name": "OwnershipTransferred",
      "type": "event"
    },
    {
      "stateMutability": "nonpayable",
      "type": "fallback"
    },
    {
      "inputs": [
        {
          "internalType": "uint256",
          "name": "",
          "type": "uint256"
        }
      ],
      "name": "nftAuctions",
      "outputs": [
        {
          "internalType": "uint256",
          "name": "buyNowPrice",
          "type": "uint256"
        },
        {
          "internalType": "uint256",
          "name": "nftHighestBid",
          "type": "uint256"
        },
        {
          "internalType": "uint256",
          "name": "auctionEnd",
          "type": "uint256"
        },
        {
          "internalType": "address",
          "name": "nftHighestBidder",
          "type": "address"
        },
        {
          "internalType": "address",
          "name": "nftSeller",
          "type": "address"
        }
      ],
      "stateMutability": "view",
      "type": "function",
      "constant": true
    },
    {
      "inputs": [],
      "name": "offerCount",
      "outputs": [
        {
          "internalType": "uint256",
          "name": "",
          "type": "uint256"
        }
      ],
      "stateMutability": "view",
      "type": "function",
      "constant": true
    },
    {
      "inputs": [
        {
          "internalType": "uint256",
          "name": "",
          "type": "uint256"
        }
      ],
      "name": "offers",
      "outputs": [
        {
          "internalType": "uint256",
          "name": "offerId",
          "type": "uint256"
        },
        {
          "internalType": "uint256",
          "name": "id",
          "type": "uint256"
        },
        {
          "internalType": "uint256",
          "name": "price",
          "type": "uint256"
        },
        {
          "internalType": "address",
          "name": "user",
          "type": "address"
        },
        {
          "internalType": "bool",
          "name": "fulfilled",
          "type": "bool"
        },
        {
          "internalType": "bool",
          "name": "cancelled",
          "type": "bool"
        }
      ],
      "stateMutability": "view",
      "type": "function",
      "constant": true
    },
    {
      "inputs": [
        {
          "internalType": "address",
          "name": "",
          "type": "address"
        }
      ],
      "name": "userFunds",
      "outputs": [
        {
          "internalType": "uint256",
          "name": "",
          "type": "uint256"
        }
      ],
      "stateMutability": "view",
      "type": "function",
      "constant": true
    },
    {
      "inputs": [],
      "name": "owner",
      "outputs": [
        {
          "internalType": "address",
          "name": "",
          "type": "address"
        }
      ],
      "stateMutability": "view",
      "type": "function",
      "constant": true
    },
    {
      "inputs": [],
      "name": "isOwner",
      "outputs": [
        {
          "internalType": "bool",
          "name": "",
          "type": "bool"
        }
      ],
      "stateMutability": "view",
      "type": "function",
      "constant": true
    },
    {
      "inputs": [],
      "name": "renounceOwnership",
      "outputs": [],
      "stateMutability": "nonpayable",
      "type": "function"
    },
    {
      "inputs": [
        {
          "internalType": "address",
          "name": "newOwner",
          "type": "address"
        }
      ],
      "name": "transferOwnership",
      "outputs": [],
      "stateMutability": "nonpayable",
      "type": "function"
    },
    {
      "inputs": [
        {
          "internalType": "uint256",
          "name": "_id",
          "type": "uint256"
        },
        {
          "internalType": "uint256",
          "name": "_price",
          "type": "uint256"
        }
      ],
      "name": "makeOffer",
      "outputs": [],
      "stateMutability": "nonpayable",
      "type": "function"
    },
    {
      "inputs": [
        {
          "internalType": "uint256",
          "name": "_offerId",
          "type": "uint256"
        }
      ],
      "name": "fillOffer",
      "outputs": [],
      "stateMutability": "payable",
      "type": "function",
      "payable": true
    },
    {
      "inputs": [
        {
          "internalType": "uint256",
          "name": "_offerId",
          "type": "uint256"
        }
      ],
      "name": "cancelOffer",
      "outputs": [],
      "stateMutability": "nonpayable",
      "type": "function"
    },
    {
      "inputs": [
        {
          "internalType": "uint256",
          "name": "_offerId",
          "type": "uint256"
        },
        {
          "internalType": "uint256",
          "name": "_price",
          "type": "uint256"
        }
      ],
      "name": "updateOffer",
      "outputs": [],
      "stateMutability": "nonpayable",
      "type": "function"
    },
    {
      "inputs": [
        {
          "internalType": "uint256",
          "name": "_tokenId",
          "type": "uint256"
        },
        {
          "internalType": "uint256",
          "name": "_price",
          "type": "uint256"
        },
        {
          "internalType": "uint256",
          "name": "period",
          "type": "uint256"
        }
      ],
      "name": "makeAuction",
      "outputs": [],
      "stateMutability": "nonpayable",
      "type": "function"
    },
    {
      "inputs": [
        {
          "internalType": "uint256",
          "name": "_tokenId",
          "type": "uint256"
        }
      ],
      "name": "cancelAuction",
      "outputs": [],
      "stateMutability": "nonpayable",
      "type": "function"
    },
    {
      "inputs": [
        {
          "internalType": "uint256",
          "name": "_tokenId",
          "type": "uint256"
        }
      ],
      "name": "settleAuction",
      "outputs": [],
      "stateMutability": "nonpayable",
      "type": "function"
    },
    {
      "inputs": [
        {
          "internalType": "uint256",
          "name": "_tokenId",
          "type": "uint256"
        }
      ],
      "name": "makeBid",
      "outputs": [],
      "stateMutability": "payable",
      "type": "function",
      "payable": true
    },
    {
      "inputs": [
        {
          "internalType": "uint256",
          "name": "_tokenId",
          "type": "uint256"
        }
      ],
      "name": "cancelBid",
      "outputs": [],
      "stateMutability": "nonpayable",
      "type": "function"
    },
    {
      "inputs": [],
      "name": "claimFunds",
      "outputs": [],
      "stateMutability": "nonpayable",
      "type": "function"
    }
  ],
  "bytecode": "0x608060405260fa6001553480156200001657600080fd5b50604051620038f0380380620038f083398181016040528101906200003c9190620001ac565b80600560006101000a81548173ffffffffffffffffffffffffffffffffffffffff021916908373ffffffffffffffffffffffffffffffffffffffff16021790555033600660006101000a81548173ffffffffffffffffffffffffffffffffffffffff021916908373ffffffffffffffffffffffffffffffffffffffff160217905550600660009054906101000a900473ffffffffffffffffffffffffffffffffffffffff1673ffffffffffffffffffffffffffffffffffffffff16600073ffffffffffffffffffffffffffffffffffffffff167f8be0079c531659141344cd1fd0a4f28419497f9722a3daafe3b4186f6b6457e060405160405180910390a350620001de565b600080fd5b600073ffffffffffffffffffffffffffffffffffffffff82169050919050565b6000620001748262000147565b9050919050565b620001868162000167565b81146200019257600080fd5b50565b600081519050620001a6816200017b565b92915050565b600060208284031215620001c557620001c462000142565b5b6000620001d58482850162000195565b91505092915050565b61370280620001ee6000396000f3fe60806040526004361061010d5760003560e01c80638da5cb5b116100955780639703ef35116100645780639703ef3514610354578063ac3077731461037d578063d04d5d7214610394578063ef706adf146103bd578063f2fde38b146103e65761010e565b80638da5cb5b146102945780638f32d59b146102bf57806393cde51a146102ea57806396b5a7551461032b5761010e565b80632e993611116100dc5780632e993611146101b9578063715018a6146101e25780638387c6e1146101f957806385dba861146102365780638a72ea6a146102525761010e565b806305b7cdd3146101205780630b7b925b146101495780631115c24d14610172578063175b23041461019d5761010e565b5b34801561011a57600080fd5b50600080fd5b34801561012c57600080fd5b50610147600480360381019061014291906125dc565b61040f565b005b34801561015557600080fd5b50610170600480360381019061016b91906125dc565b610606565b005b34801561017e57600080fd5b506101876107a1565b604051610194919061262b565b60405180910390f35b6101b760048036038101906101b29190612646565b6107a7565b005b3480156101c557600080fd5b506101e060048036038101906101db9190612646565b610cb5565b005b3480156101ee57600080fd5b506101f761107c565b005b34801561020557600080fd5b50610220600480360381019061021b91906126d1565b61114e565b60405161022d919061262b565b60405180910390f35b610250600480360381019061024b9190612646565b611166565b005b34801561025e57600080fd5b5061027960048036038101906102749190612646565b611518565b60405161028b96959493929190612728565b60405180910390f35b3480156102a057600080fd5b506102a961158e565b6040516102b69190612789565b60405180910390f35b3480156102cb57600080fd5b506102d46115b8565b6040516102e191906127a4565b60405180910390f35b3480156102f657600080fd5b50610311600480360381019061030c9190612646565b611610565b6040516103229594939291906127bf565b60405180910390f35b34801561033757600080fd5b50610352600480360381019061034d9190612646565b611686565b005b34801561036057600080fd5b5061037b60048036038101906103769190612646565b6118f4565b005b34801561038957600080fd5b50610392611bc9565b005b3480156103a057600080fd5b506103bb60048036038101906103b69190612812565b611d90565b005b3480156103c957600080fd5b506103e460048036038101906103df9190612646565b611f1c565b005b3480156103f257600080fd5b5061040d600480360381019061040891906126d1565b6121b0565b005b600560009054906101000a900473ffffffffffffffffffffffffffffffffffffffff1673ffffffffffffffffffffffffffffffffffffffff166323b872dd3330856040518463ffffffff1660e01b815260040161046e93929190612865565b600060405180830381600087803b15801561048857600080fd5b505af115801561049c573d6000803e3d6000fd5b505050506000808154809291906104b2906128cb565b91905055506040518060c0016040528060005481526020018381526020018281526020013373ffffffffffffffffffffffffffffffffffffffff16815260200160001515815260200160001515815250600260008054815260200190815260200160002060008201518160000155602082015181600101556040820151816002015560608201518160030160006101000a81548173ffffffffffffffffffffffffffffffffffffffff021916908373ffffffffffffffffffffffffffffffffffffffff16021790555060808201518160030160146101000a81548160ff02191690831515021790555060a08201518160030160156101000a81548160ff0219169083151502179055509050507f93e711896d4ef527d199d7e101922e20f918cbb248a0fb0977c52fda24aa1f1d6000548333846000806040516105fa96959493929190612914565b60405180910390a15050565b600060026000848152602001908152602001600020905082816000015414610663576040517f08c379a000000000000000000000000000000000000000000000000000000000815260040161065a906129d2565b60405180910390fd5b3373ffffffffffffffffffffffffffffffffffffffff168160030160009054906101000a900473ffffffffffffffffffffffffffffffffffffffff1673ffffffffffffffffffffffffffffffffffffffff16146106f5576040517f08c379a00000000000000000000000000000000000000000000000000000000081526004016106ec90612a64565b60405180910390fd5b600015158160030160149054906101000a900460ff1615151461074d576040517f08c379a000000000000000000000000000000000000000000000000000000000815260040161074490612af6565b60405180910390fd5b8181600201819055507f93e711896d4ef527d199d7e101922e20f918cbb248a0fb0977c52fda24aa1f1d838260010154338560008060405161079496959493929190612914565b60405180910390a1505050565b60005481565b600073ffffffffffffffffffffffffffffffffffffffff166004600083815260200190815260200160002060040160009054906101000a900473ffffffffffffffffffffffffffffffffffffffff1673ffffffffffffffffffffffffffffffffffffffff16141561084d576040517f08c379a000000000000000000000000000000000000000000000000000000000815260040161084490612b62565b60405180910390fd5b426004600083815260200190815260200160002060020154116108a5576040517f08c379a000000000000000000000000000000000000000000000000000000000815260040161089c90612bce565b60405180910390fd5b3373ffffffffffffffffffffffffffffffffffffffff166004600083815260200190815260200160002060040160009054906101000a900473ffffffffffffffffffffffffffffffffffffffff1673ffffffffffffffffffffffffffffffffffffffff16141561094a576040517f08c379a000000000000000000000000000000000000000000000000000000000815260040161094190612c60565b60405180910390fd5b60006004600083815260200190815260200160002060010154905060046000838152602001908152602001600020600001548110156109d957662386f26fc10000600a826109989190612caf565b11156109be57600a600b826109ad9190612ce0565b6109b79190612caf565b90506109d4565b662386f26fc10000816109d19190612d3a565b90505b6109f3565b600460008381526020019081526020016000206000015490505b80341015610a36576040517f08c379a0000000000000000000000000000000000000000000000000000000008152600401610a2d90612e02565b60405180910390fd5b60006004600084815260200190815260200160002060030160009054906101000a900473ffffffffffffffffffffffffffffffffffffffff169050600073ffffffffffffffffffffffffffffffffffffffff168173ffffffffffffffffffffffffffffffffffffffff161415610ae4576004600084815260200190815260200160002060040160009054906101000a900473ffffffffffffffffffffffffffffffffffffffff169050610b6c565b600a6004600085815260200190815260200160002060010154610b079190612caf565b6004600085815260200190815260200160002060010154610b289190612e22565b600360008373ffffffffffffffffffffffffffffffffffffffff1673ffffffffffffffffffffffffffffffffffffffff168152602001908152602001600020819055505b610b83600a34610b7c9190612caf565b84836121cd565b336004600085815260200190815260200160002060030160006101000a81548173ffffffffffffffffffffffffffffffffffffffff021916908373ffffffffffffffffffffffffffffffffffffffff16021790555034600460008581526020019081526020016000206001018190555061025842610c019190612d3a565b60046000858152602001908152602001600020600201541015610c475761025842610c2c9190612d3a565b60046000858152602001908152602001600020600201819055505b7f6d2b783673dbbf046f2e5a1f3c92ce62c29a0f5385f2b1f0eaf19019ef28cb55836004600086815260200190815260200160002060010154336004600088815260200190815260200160002060020154604051610ca89493929190612e56565b60405180910390a1505050565b600073ffffffffffffffffffffffffffffffffffffffff166004600083815260200190815260200160002060040160009054906101000a900473ffffffffffffffffffffffffffffffffffffffff1673ffffffffffffffffffffffffffffffffffffffff161415610d5b576040517f08c379a0000000000000000000000000000000000000000000000000000000008152600401610d5290612b62565b60405180910390fd5b42600460008381526020019081526020016000206002015411610db3576040517f08c379a0000000000000000000000000000000000000000000000000000000008152600401610daa90612ee7565b60405180910390fd5b7fad0fc073c0346c2850f535b636bd929b71ae81fa3fdd2c79445b0b84ba612d4d816004600084815260200190815260200160002060040160009054906101000a900473ffffffffffffffffffffffffffffffffffffffff1660046000858152602001908152602001600020600001546004600086815260200190815260200160002060030160009054906101000a900473ffffffffffffffffffffffffffffffffffffffff166004600087815260200190815260200160002060010154604051610e82959493929190612f07565b60405180910390a1600073ffffffffffffffffffffffffffffffffffffffff166004600083815260200190815260200160002060030160009054906101000a900473ffffffffffffffffffffffffffffffffffffffff1673ffffffffffffffffffffffffffffffffffffffff1614610f7957610f78600a6004600084815260200190815260200160002060010154610f1a9190612caf565b6004600084815260200190815260200160002060010154610f3b9190612e22565b826004600085815260200190815260200160002060040160009054906101000a900473ffffffffffffffffffffffffffffffffffffffff166121cd565b5b600060046000838152602001908152602001600020600001819055506000600460008381526020019081526020016000206002018190555060006004600083815260200190815260200160002060040160006101000a81548173ffffffffffffffffffffffffffffffffffffffff021916908373ffffffffffffffffffffffffffffffffffffffff1602179055506000600460008381526020019081526020016000206001018190555060006004600083815260200190815260200160002060030160006101000a81548173ffffffffffffffffffffffffffffffffffffffff021916908373ffffffffffffffffffffffffffffffffffffffff16021790555050565b6110846115b8565b61108d57600080fd5b600073ffffffffffffffffffffffffffffffffffffffff16600660009054906101000a900473ffffffffffffffffffffffffffffffffffffffff1673ffffffffffffffffffffffffffffffffffffffff167f8be0079c531659141344cd1fd0a4f28419497f9722a3daafe3b4186f6b6457e060405160405180910390a36000600660006101000a81548173ffffffffffffffffffffffffffffffffffffffff021916908373ffffffffffffffffffffffffffffffffffffffff160217905550565b60036020528060005260406000206000915090505481565b6000600260008381526020019081526020016000209050818160000154146111c3576040517f08c379a00000000000000000000000000000000000000000000000000000000081526004016111ba906129d2565b60405180910390fd5b3373ffffffffffffffffffffffffffffffffffffffff168160030160009054906101000a900473ffffffffffffffffffffffffffffffffffffffff1673ffffffffffffffffffffffffffffffffffffffff161415611256576040517f08c379a000000000000000000000000000000000000000000000000000000000815260040161124d90612fcc565b60405180910390fd5b8060030160149054906101000a900460ff16156112a8576040517f08c379a000000000000000000000000000000000000000000000000000000000815260040161129f9061305e565b60405180910390fd5b8060030160159054906101000a900460ff16156112fa576040517f08c379a00000000000000000000000000000000000000000000000000000000081526004016112f1906130f0565b60405180910390fd5b8060020154600360003373ffffffffffffffffffffffffffffffffffffffff1673ffffffffffffffffffffffffffffffffffffffff168152602001908152602001600020543461134a9190612d3a565b101561138b576040517f08c379a000000000000000000000000000000000000000000000000000000000815260040161138290613182565b60405180910390fd5b600560009054906101000a900473ffffffffffffffffffffffffffffffffffffffff1673ffffffffffffffffffffffffffffffffffffffff166323b872dd303384600101546040518463ffffffff1660e01b81526004016113ee93929190612865565b600060405180830381600087803b15801561140857600080fd5b505af115801561141c573d6000803e3d6000fd5b5050505060018160030160146101000a81548160ff0219169083151502179055506114703482600101548360030160009054906101000a900473ffffffffffffffffffffffffffffffffffffffff166121cd565b3481600201546114809190612e22565b600360003373ffffffffffffffffffffffffffffffffffffffff1673ffffffffffffffffffffffffffffffffffffffff16815260200190815260200160002060008282546114ce9190612e22565b925050819055507fd9157c065213ada613694e84b1e27fe2efd62d85c6b82bd6c842a4999491e72a8282600101543360405161150c939291906131a2565b60405180910390a15050565b60026020528060005260406000206000915090508060000154908060010154908060020154908060030160009054906101000a900473ffffffffffffffffffffffffffffffffffffffff16908060030160149054906101000a900460ff16908060030160159054906101000a900460ff16905086565b6000600660009054906101000a900473ffffffffffffffffffffffffffffffffffffffff16905090565b6000600660009054906101000a900473ffffffffffffffffffffffffffffffffffffffff1673ffffffffffffffffffffffffffffffffffffffff163373ffffffffffffffffffffffffffffffffffffffff1614905090565b60046020528060005260406000206000915090508060000154908060010154908060020154908060030160009054906101000a900473ffffffffffffffffffffffffffffffffffffffff16908060040160009054906101000a900473ffffffffffffffffffffffffffffffffffffffff16905085565b3373ffffffffffffffffffffffffffffffffffffffff166004600083815260200190815260200160002060040160009054906101000a900473ffffffffffffffffffffffffffffffffffffffff1673ffffffffffffffffffffffffffffffffffffffff16141561172b576040517f08c379a00000000000000000000000000000000000000000000000000000000081526004016117229061324b565b60405180910390fd5b6004600082815260200190815260200160002060000154600460008381526020019081526020016000206001015410611799576040517f08c379a0000000000000000000000000000000000000000000000000000000008152600401611790906132b7565b60405180910390fd5b600560009054906101000a900473ffffffffffffffffffffffffffffffffffffffff1673ffffffffffffffffffffffffffffffffffffffff166323b872dd3033846040518463ffffffff1660e01b81526004016117f893929190612865565b600060405180830381600087803b15801561181257600080fd5b505af1158015611826573d6000803e3d6000fd5b50505050600060046000838152602001908152602001600020600001819055506000600460008381526020019081526020016000206002018190555060006004600083815260200190815260200160002060040160006101000a81548173ffffffffffffffffffffffffffffffffffffffff021916908373ffffffffffffffffffffffffffffffffffffffff1602179055507f9f338bd30f2b8df7becd5a8d2b41a9f9572ee4a9db023508e50c541285c8dc0e81336040516118e99291906132d7565b60405180910390a150565b600073ffffffffffffffffffffffffffffffffffffffff166004600083815260200190815260200160002060040160009054906101000a900473ffffffffffffffffffffffffffffffffffffffff1673ffffffffffffffffffffffffffffffffffffffff16141561199a576040517f08c379a000000000000000000000000000000000000000000000000000000000815260040161199190612b62565b60405180910390fd5b426004600083815260200190815260200160002060020154116119f2576040517f08c379a00000000000000000000000000000000000000000000000000000000081526004016119e990612bce565b60405180910390fd5b6004600082815260200190815260200160002060030160009054906101000a900473ffffffffffffffffffffffffffffffffffffffff1673ffffffffffffffffffffffffffffffffffffffff163373ffffffffffffffffffffffffffffffffffffffff1614611a96576040517f08c379a0000000000000000000000000000000000000000000000000000000008152600401611a8d90613372565b60405180910390fd5b600a6004600083815260200190815260200160002060010154611ab99190612caf565b6004600083815260200190815260200160002060010154611ada9190612e22565b600360003373ffffffffffffffffffffffffffffffffffffffff1673ffffffffffffffffffffffffffffffffffffffff1681526020019081526020016000208190555060006004600083815260200190815260200160002060030160006101000a81548173ffffffffffffffffffffffffffffffffffffffff021916908373ffffffffffffffffffffffffffffffffffffffff160217905550600060046000838152602001908152602001600020600101819055507ff72c9cb76aa633bc9310fa98738d474339fdf2f23dfac70ccbd65e593f6654df81604051611bbe919061262b565b60405180910390a150565b6000600360003373ffffffffffffffffffffffffffffffffffffffff1673ffffffffffffffffffffffffffffffffffffffff1681526020019081526020016000205411611c4b576040517f08c379a0000000000000000000000000000000000000000000000000000000008152600401611c4290613404565b60405180910390fd5b3373ffffffffffffffffffffffffffffffffffffffff166108fc600360003373ffffffffffffffffffffffffffffffffffffffff1673ffffffffffffffffffffffffffffffffffffffff168152602001908152602001600020549081150290604051600060405180830381858888f19350505050158015611cd0573d6000803e3d6000fd5b507f4f0554190111f93f8c2ccef2cc41473f187d7f29ff5a5c308ca41f9dfe4e989a33600360003373ffffffffffffffffffffffffffffffffffffffff1673ffffffffffffffffffffffffffffffffffffffff16815260200190815260200160002054604051611d41929190613424565b60405180910390a16000600360003373ffffffffffffffffffffffffffffffffffffffff1673ffffffffffffffffffffffffffffffffffffffff16815260200190815260200160002081905550565b600560009054906101000a900473ffffffffffffffffffffffffffffffffffffffff1673ffffffffffffffffffffffffffffffffffffffff166323b872dd3330866040518463ffffffff1660e01b8152600401611def93929190612865565b600060405180830381600087803b158015611e0957600080fd5b505af1158015611e1d573d6000803e3d6000fd5b50505050816004600085815260200190815260200160002060000181905550610e1081611e4a9190612ce0565b42611e559190612d3a565b6004600085815260200190815260200160002060020181905550336004600085815260200190815260200160002060040160006101000a81548173ffffffffffffffffffffffffffffffffffffffff021916908373ffffffffffffffffffffffffffffffffffffffff1602179055507fa060a06376aad79320fcbff6f10eea7cd5f064d831e6aac4d2a8d1a80fa04ca46004600085815260200190815260200160002060020154838533604051611f0f949392919061344d565b60405180910390a1505050565b600060026000838152602001908152602001600020905081816000015414611f79576040517f08c379a0000000000000000000000000000000000000000000000000000000008152600401611f70906129d2565b60405180910390fd5b3373ffffffffffffffffffffffffffffffffffffffff168160030160009054906101000a900473ffffffffffffffffffffffffffffffffffffffff1673ffffffffffffffffffffffffffffffffffffffff161461200b576040517f08c379a000000000000000000000000000000000000000000000000000000000815260040161200290613504565b60405180910390fd5b600015158160030160149054906101000a900460ff16151514612063576040517f08c379a000000000000000000000000000000000000000000000000000000000815260040161205a90613596565b60405180910390fd5b600015158160030160159054906101000a900460ff161515146120bb576040517f08c379a00000000000000000000000000000000000000000000000000000000081526004016120b290613628565b60405180910390fd5b600560009054906101000a900473ffffffffffffffffffffffffffffffffffffffff1673ffffffffffffffffffffffffffffffffffffffff166323b872dd303384600101546040518463ffffffff1660e01b815260040161211e93929190612865565b600060405180830381600087803b15801561213857600080fd5b505af115801561214c573d6000803e3d6000fd5b5050505060018160030160156101000a81548160ff0219169083151502179055507f5b166b4d0498ff8c4719999cb6154c5d197e6f020f9fbfcf9d347f84576cfab7828260010154336040516121a4939291906131a2565b60405180910390a15050565b6121b86115b8565b6121c157600080fd5b6121ca816124a7565b50565b600083116121da57600080fd5b6000600560009054906101000a900473ffffffffffffffffffffffffffffffffffffffff1673ffffffffffffffffffffffffffffffffffffffff1663e814cb71846040518263ffffffff1660e01b8152600401612237919061262b565b602060405180830381865afa158015612254573d6000803e3d6000fd5b505050506040513d601f19601f82011682018060405250810190612278919061365d565b90506000600560009054906101000a900473ffffffffffffffffffffffffffffffffffffffff1673ffffffffffffffffffffffffffffffffffffffff16634586b3a1856040518263ffffffff1660e01b81526004016122d7919061262b565b602060405180830381865afa1580156122f4573d6000803e3d6000fd5b505050506040513d601f19601f82011682018060405250810190612318919061369f565b90506127106001548661232b9190612ce0565b6123359190612caf565b60036000600660009054906101000a900473ffffffffffffffffffffffffffffffffffffffff1673ffffffffffffffffffffffffffffffffffffffff1673ffffffffffffffffffffffffffffffffffffffff16815260200190815260200160002060008282546123a59190612d3a565b9250508190555061271082866123bb9190612ce0565b6123c59190612caf565b600360008373ffffffffffffffffffffffffffffffffffffffff1673ffffffffffffffffffffffffffffffffffffffff16815260200190815260200160002060008282546124139190612d3a565b925050819055506127108260015461242b9190612d3a565b866124369190612ce0565b6124409190612caf565b8561244b9190612e22565b600360008573ffffffffffffffffffffffffffffffffffffffff1673ffffffffffffffffffffffffffffffffffffffff16815260200190815260200160002060008282546124999190612d3a565b925050819055505050505050565b600073ffffffffffffffffffffffffffffffffffffffff168173ffffffffffffffffffffffffffffffffffffffff1614156124e157600080fd5b8073ffffffffffffffffffffffffffffffffffffffff16600660009054906101000a900473ffffffffffffffffffffffffffffffffffffffff1673ffffffffffffffffffffffffffffffffffffffff167f8be0079c531659141344cd1fd0a4f28419497f9722a3daafe3b4186f6b6457e060405160405180910390a380600660006101000a81548173ffffffffffffffffffffffffffffffffffffffff021916908373ffffffffffffffffffffffffffffffffffffffff16021790555050565b600080fd5b6000819050919050565b6125b9816125a6565b81146125c457600080fd5b50565b6000813590506125d6816125b0565b92915050565b600080604083850312156125f3576125f26125a1565b5b6000612601858286016125c7565b9250506020612612858286016125c7565b9150509250929050565b612625816125a6565b82525050565b6000602082019050612640600083018461261c565b92915050565b60006020828403121561265c5761265b6125a1565b5b600061266a848285016125c7565b91505092915050565b600073ffffffffffffffffffffffffffffffffffffffff82169050919050565b600061269e82612673565b9050919050565b6126ae81612693565b81146126b957600080fd5b50565b6000813590506126cb816126a5565b92915050565b6000602082840312156126e7576126e66125a1565b5b60006126f5848285016126bc565b91505092915050565b61270781612693565b82525050565b60008115159050919050565b6127228161270d565b82525050565b600060c08201905061273d600083018961261c565b61274a602083018861261c565b612757604083018761261c565b61276460608301866126fe565b6127716080830185612719565b61277e60a0830184612719565b979650505050505050565b600060208201905061279e60008301846126fe565b92915050565b60006020820190506127b96000830184612719565b92915050565b600060a0820190506127d4600083018861261c565b6127e1602083018761261c565b6127ee604083018661261c565b6127fb60608301856126fe565b61280860808301846126fe565b9695505050505050565b60008060006060848603121561282b5761282a6125a1565b5b6000612839868287016125c7565b935050602061284a868287016125c7565b925050604061285b868287016125c7565b9150509250925092565b600060608201905061287a60008301866126fe565b61288760208301856126fe565b612894604083018461261c565b949350505050565b7f4e487b7100000000000000000000000000000000000000000000000000000000600052601160045260246000fd5b60006128d6826125a6565b91507fffffffffffffffffffffffffffffffffffffffffffffffffffffffffffffffff8214156129095761290861289c565b5b600182019050919050565b600060c082019050612929600083018961261c565b612936602083018861261c565b61294360408301876126fe565b612950606083018661261c565b61295d6080830185612719565b61296a60a0830184612719565b979650505050505050565b600082825260208201905092915050565b7f546865206f66666572206d757374206578697374000000000000000000000000600082015250565b60006129bc601483612975565b91506129c782612986565b602082019050919050565b600060208201905081810360008301526129eb816129af565b9050919050565b7f546865206f666665722063616e206f6e6c79206265207570646174656420627960008201527f20746865206f776e657200000000000000000000000000000000000000000000602082015250565b6000612a4e602a83612975565b9150612a59826129f2565b604082019050919050565b60006020820190508181036000830152612a7d81612a41565b9050919050565b7f412066756c66696c6c6564206f666665722063616e6e6f74206265207570646160008201527f7465640000000000000000000000000000000000000000000000000000000000602082015250565b6000612ae0602383612975565b9150612aeb82612a84565b604082019050919050565b60006020820190508181036000830152612b0f81612ad3565b9050919050565b7f5468652061756374696f6e206d75737420657869737400000000000000000000600082015250565b6000612b4c601683612975565b9150612b5782612b16565b602082019050919050565b60006020820190508181036000830152612b7b81612b3f565b9050919050565b7f41756374696f6e2068617320656e646564000000000000000000000000000000600082015250565b6000612bb8601183612975565b9150612bc382612b82565b602082019050919050565b60006020820190508181036000830152612be781612bab565b9050919050565b7f546865206f776e6572206f66207468652061756374696f6e2063616e6e6f742060008201527f6269642069740000000000000000000000000000000000000000000000000000602082015250565b6000612c4a602683612975565b9150612c5582612bee565b604082019050919050565b60006020820190508181036000830152612c7981612c3d565b9050919050565b7f4e487b7100000000000000000000000000000000000000000000000000000000600052601260045260246000fd5b6000612cba826125a6565b9150612cc5836125a6565b925082612cd557612cd4612c80565b5b828204905092915050565b6000612ceb826125a6565b9150612cf6836125a6565b9250817fffffffffffffffffffffffffffffffffffffffffffffffffffffffffffffffff0483118215151615612d2f57612d2e61289c565b5b828202905092915050565b6000612d45826125a6565b9150612d50836125a6565b9250827fffffffffffffffffffffffffffffffffffffffffffffffffffffffffffffffff03821115612d8557612d8461289c565b5b828201905092915050565b7f5468652045544820616d6f756e742073686f756c64206265206d6f726520746860008201527f616e2031313025206f66204e4654206869676865737420626964205072696365602082015250565b6000612dec604083612975565b9150612df782612d90565b604082019050919050565b60006020820190508181036000830152612e1b81612ddf565b9050919050565b6000612e2d826125a6565b9150612e38836125a6565b925082821015612e4b57612e4a61289c565b5b828203905092915050565b6000608082019050612e6b600083018761261c565b612e78602083018661261c565b612e8560408301856126fe565b612e92606083018461261c565b95945050505050565b7f41756374696f6e2073686f756c6420626520656e646564000000000000000000600082015250565b6000612ed1601783612975565b9150612edc82612e9b565b602082019050919050565b60006020820190508181036000830152612f0081612ec4565b9050919050565b600060a082019050612f1c600083018861261c565b612f2960208301876126fe565b612f36604083018661261c565b612f4360608301856126fe565b612f50608083018461261c565b9695505050505050565b7f546865206f776e6572206f6620746865206f666665722063616e6e6f7420666960008201527f6c6c206974000000000000000000000000000000000000000000000000000000602082015250565b6000612fb6602583612975565b9150612fc182612f5a565b604082019050919050565b60006020820190508181036000830152612fe581612fa9565b9050919050565b7f416e206f666665722063616e6e6f742062652066756c66696c6c65642074776960008201527f6365000000000000000000000000000000000000000000000000000000000000602082015250565b6000613048602283612975565b915061305382612fec565b604082019050919050565b600060208201905081810360008301526130778161303b565b9050919050565b7f412063616e63656c6c6564206f666665722063616e6e6f742062652066756c6660008201527f696c6c6564000000000000000000000000000000000000000000000000000000602082015250565b60006130da602583612975565b91506130e58261307e565b604082019050919050565b60006020820190508181036000830152613109816130cd565b9050919050565b7f5468652045544820616d6f756e742073686f756c64206d61746368207769746860008201527f20746865204e4654205072696365000000000000000000000000000000000000602082015250565b600061316c602e83612975565b915061317782613110565b604082019050919050565b6000602082019050818103600083015261319b8161315f565b9050919050565b60006060820190506131b7600083018661261c565b6131c4602083018561261c565b6131d160408301846126fe565b949350505050565b7f546865206f6e6c79206f776e6572206f66207468652061756374696f6e20636160008201527f6e2063616e63656c206974000000000000000000000000000000000000000000602082015250565b6000613235602b83612975565b9150613240826131d9565b604082019050919050565b6000602082019050818103600083015261326481613228565b9050919050565b7f54686520626964206d757374206e6f7420657869737400000000000000000000600082015250565b60006132a1601683612975565b91506132ac8261326b565b602082019050919050565b600060208201905081810360008301526132d081613294565b9050919050565b60006040820190506132ec600083018561261c565b6132f960208301846126fe565b9392505050565b7f4f6e6c792068696768657374206269646465722063616e2063616e63656c207460008201527f6865206269640000000000000000000000000000000000000000000000000000602082015250565b600061335c602683612975565b915061336782613300565b604082019050919050565b6000602082019050818103600083015261338b8161334f565b9050919050565b7f54686973207573657220686173206e6f2066756e647320746f20626520636c6160008201527f696d656400000000000000000000000000000000000000000000000000000000602082015250565b60006133ee602483612975565b91506133f982613392565b604082019050919050565b6000602082019050818103600083015261341d816133e1565b9050919050565b600060408201905061343960008301856126fe565b613446602083018461261c565b9392505050565b6000608082019050613462600083018761261c565b61346f602083018661261c565b61347c604083018561261c565b61348960608301846126fe565b95945050505050565b7f546865206f666665722063616e206f6e6c792062652063616e63656c6564206260008201527f7920746865206f776e6572000000000000000000000000000000000000000000602082015250565b60006134ee602b83612975565b91506134f982613492565b604082019050919050565b6000602082019050818103600083015261351d816134e1565b9050919050565b7f412066756c66696c6c6564206f666665722063616e6e6f742062652063616e6360008201527f656c6c6564000000000000000000000000000000000000000000000000000000602082015250565b6000613580602583612975565b915061358b82613524565b604082019050919050565b600060208201905081810360008301526135af81613573565b9050919050565b7f416e206f666665722063616e6e6f742062652063616e63656c6c65642074776960008201527f6365000000000000000000000000000000000000000000000000000000000000602082015250565b6000613612602283612975565b915061361d826135b6565b604082019050919050565b6000602082019050818103600083015261364181613605565b9050919050565b600081519050613657816125b0565b92915050565b600060208284031215613673576136726125a1565b5b600061368184828501613648565b91505092915050565b600081519050613699816126a5565b92915050565b6000602082840312156136b5576136b46125a1565b5b60006136c38482850161368a565b9150509291505056fea2646970667358221220e8c5134fc26d79a601af7d31bc3943350fde9d1270b359dab2703e597e30274164736f6c634300080b0033",
  "immutableReferences": {},
  "source": "// SPDX-License-Identifier: MIT\r\npragma solidity ^0.8.0;\r\n\r\nimport \"./NFTCollection.sol\";\r\n\r\ncontract NFTMarketplace {\r\n    uint256 public offerCount;\r\n    uint256 marketFee = 250;\r\n    mapping(uint256 => _Offer) public offers;\r\n    mapping(address => uint256) public userFunds;\r\n    mapping(uint256 => Auction) public nftAuctions;\r\n    NFTCollection nftCollection;\r\n    address private _owner;\r\n\r\n    struct _Offer {\r\n        uint256 offerId;\r\n        uint256 id;\r\n        uint256 price;\r\n        address user;\r\n        bool fulfilled;\r\n        bool cancelled;\r\n    }\r\n\r\n    struct Auction {\r\n        //map token ID to\r\n        uint256 buyNowPrice;\r\n        uint256 nftHighestBid;\r\n        uint256 auctionEnd;\r\n        address nftHighestBidder;\r\n        address nftSeller;\r\n    }\r\n\r\n    event Offer(\r\n        uint256 offerId,\r\n        uint256 id,\r\n        address user,\r\n        uint256 price,\r\n        bool fulfilled,\r\n        bool cancelled\r\n    );\r\n\r\n    event NftAuctionCreated(\r\n        uint256 auctionEnd,\r\n        uint256 buyNowPrice,\r\n        uint256 tokenId,\r\n        address nftSeller\r\n    );\r\n\r\n    event NftAuctionCanceled(uint256 tokenId, address nftSeller);\r\n    event NftAuctionSettled(\r\n        uint256 tokenId,\r\n        address nftSeller,\r\n        uint256 buyNowPrice,\r\n        address winner,\r\n        uint256 price\r\n    );\r\n\r\n    event BidCreated(\r\n        uint256 tokenId,\r\n        uint256 nftHighestBid,\r\n        address nftHighestBidder,\r\n        uint256 auctionEnd\r\n    );\r\n\r\n    event BidCanceled(uint256 tokenId);\r\n\r\n    event OfferFilled(uint256 offerId, uint256 id, address newOwner);\r\n    // event OfferUpdated(uint256 offerId, uint256 price);\r\n    event OfferCancelled(uint256 offerId, uint256 id, address owner);\r\n    event ClaimFunds(address user, uint256 amount);\r\n    event OwnershipTransferred(\r\n        address indexed previousOwner,\r\n        address indexed newOwner\r\n    );\r\n\r\n    constructor(address _nftCollection) {\r\n        nftCollection = NFTCollection(_nftCollection);\r\n        _owner = msg.sender;\r\n        emit OwnershipTransferred(address(0), _owner);\r\n    }\r\n\r\n    /**\r\n     * @return the address of the owner.\r\n     */\r\n    function owner() public view returns (address) {\r\n        return _owner;\r\n    }\r\n\r\n    /**\r\n     * @dev Throws if called by any account other than the owner.\r\n     */\r\n    modifier onlyOwner() {\r\n        require(isOwner());\r\n        _;\r\n    }\r\n\r\n    /**\r\n     * @return true if `msg.sender` is the owner of the contract.\r\n     */\r\n    function isOwner() public view returns (bool) {\r\n        return msg.sender == _owner;\r\n    }\r\n\r\n    /**\r\n     * @dev Allows the current owner to relinquish control of the contract.\r\n     * @notice Renouncing to ownership will leave the contract without an owner.\r\n     * It will not be possible to call the functions with the `onlyOwner`\r\n     * modifier anymore.\r\n     */\r\n    function renounceOwnership() public onlyOwner {\r\n        emit OwnershipTransferred(_owner, address(0));\r\n        _owner = address(0);\r\n    }\r\n\r\n    /**\r\n     * @dev Allows the current owner to transfer control of the contract to a newOwner.\r\n     * @param newOwner The address to transfer ownership to.\r\n     */\r\n    function transferOwnership(address newOwner) public onlyOwner {\r\n        _transferOwnership(newOwner);\r\n    }\r\n\r\n    /**\r\n     * @dev Transfers control of the contract to a newOwner.\r\n     * @param newOwner The address to transfer ownership to.\r\n     */\r\n    function _transferOwnership(address newOwner) internal {\r\n        require(newOwner != address(0));\r\n        emit OwnershipTransferred(_owner, newOwner);\r\n        _owner = newOwner;\r\n    }\r\n\r\n    function _marketTransfer(\r\n        uint256 _price,\r\n        uint256 _tokenId,\r\n        address _receiver\r\n    ) internal {\r\n        require(_price > 0);\r\n        uint256 royalty = nftCollection.royalty(_tokenId);\r\n        address inventor = nftCollection.inventor(_tokenId);\r\n        userFunds[_owner] += (_price * marketFee) / 10000;\r\n        userFunds[inventor] += (_price * royalty) / 10000;\r\n        userFunds[_receiver] +=\r\n            _price -\r\n            (_price * (marketFee + royalty)) /\r\n            10000;\r\n    }\r\n\r\n    function makeOffer(uint256 _id, uint256 _price) public {\r\n        nftCollection.transferFrom(msg.sender, address(this), _id);\r\n        offerCount++;\r\n        offers[offerCount] = _Offer(\r\n            offerCount,\r\n            _id,\r\n            _price,\r\n            msg.sender,\r\n            false,\r\n            false\r\n        );\r\n        emit Offer(offerCount, _id, msg.sender, _price, false, false);\r\n    }\r\n\r\n    function fillOffer(uint256 _offerId) public payable {\r\n        _Offer storage _offer = offers[_offerId];\r\n        require(_offer.offerId == _offerId, \"The offer must exist\");\r\n        require(\r\n            _offer.user != msg.sender,\r\n            \"The owner of the offer cannot fill it\"\r\n        );\r\n        require(!_offer.fulfilled, \"An offer cannot be fulfilled twice\");\r\n        require(!_offer.cancelled, \"A cancelled offer cannot be fulfilled\");\r\n\r\n        require(\r\n            msg.value + userFunds[msg.sender] >= _offer.price,\r\n            \"The ETH amount should match with the NFT Price\"\r\n        );\r\n        nftCollection.transferFrom(address(this), msg.sender, _offer.id);\r\n        _offer.fulfilled = true;\r\n        _marketTransfer(msg.value, _offer.id, _offer.user);\r\n        userFunds[msg.sender] -= _offer.price - msg.value;\r\n        emit OfferFilled(_offerId, _offer.id, msg.sender);\r\n    }\r\n\r\n    function cancelOffer(uint256 _offerId) public {\r\n        _Offer storage _offer = offers[_offerId];\r\n        require(_offer.offerId == _offerId, \"The offer must exist\");\r\n        require(\r\n            _offer.user == msg.sender,\r\n            \"The offer can only be canceled by the owner\"\r\n        );\r\n        require(\r\n            _offer.fulfilled == false,\r\n            \"A fulfilled offer cannot be cancelled\"\r\n        );\r\n        require(\r\n            _offer.cancelled == false,\r\n            \"An offer cannot be cancelled twice\"\r\n        );\r\n        nftCollection.transferFrom(address(this), msg.sender, _offer.id);\r\n        _offer.cancelled = true;\r\n        emit OfferCancelled(_offerId, _offer.id, msg.sender);\r\n    }\r\n\r\n    function updateOffer(uint256 _offerId, uint256 _price) public {\r\n        _Offer storage _offer = offers[_offerId];\r\n        require(_offer.offerId == _offerId, \"The offer must exist\");\r\n        require(\r\n            _offer.user == msg.sender,\r\n            \"The offer can only be updated by the owner\"\r\n        );\r\n        require(\r\n            _offer.fulfilled == false,\r\n            \"A fulfilled offer cannot be updated\"\r\n        );\r\n\r\n        _offer.price = _price;\r\n        emit Offer(_offerId, _offer.id, msg.sender, _price, false, false);\r\n    }\r\n\r\n    function makeAuction(\r\n        uint256 _tokenId,\r\n        uint256 _price,\r\n        uint256 period\r\n    ) public {\r\n        nftCollection.transferFrom(msg.sender, address(this), _tokenId);\r\n\r\n        nftAuctions[_tokenId].buyNowPrice = _price;\r\n        nftAuctions[_tokenId].auctionEnd = block.timestamp + period * 1 hours;\r\n        nftAuctions[_tokenId].nftSeller = msg.sender;\r\n\r\n        emit NftAuctionCreated(\r\n            nftAuctions[_tokenId].auctionEnd,\r\n            _price,\r\n            _tokenId,\r\n            msg.sender\r\n        );\r\n    }\r\n\r\n    function cancelAuction(uint256 _tokenId) public {\r\n        require(\r\n            nftAuctions[_tokenId].nftSeller != msg.sender,\r\n            \"The only owner of the auction can cancel it\"\r\n        );\r\n        require(\r\n            nftAuctions[_tokenId].nftHighestBid <\r\n                nftAuctions[_tokenId].buyNowPrice,\r\n            \"The bid must not exist\"\r\n        );\r\n        nftCollection.transferFrom(address(this), msg.sender, _tokenId);\r\n\r\n        nftAuctions[_tokenId].buyNowPrice = 0;\r\n        nftAuctions[_tokenId].auctionEnd = 0;\r\n        nftAuctions[_tokenId].nftSeller = address(0);\r\n\r\n        emit NftAuctionCanceled(_tokenId, msg.sender);\r\n    }\r\n\r\n    function settleAuction(uint256 _tokenId) public {\r\n        require(\r\n            nftAuctions[_tokenId].nftSeller != address(0),\r\n            \"The auction must exist\"\r\n        );\r\n        require(\r\n            nftAuctions[_tokenId].auctionEnd > block.timestamp,\r\n            \"Auction should be ended\"\r\n        );\r\n\r\n        emit NftAuctionSettled(\r\n            _tokenId,\r\n            nftAuctions[_tokenId].nftSeller,\r\n            nftAuctions[_tokenId].buyNowPrice,\r\n            nftAuctions[_tokenId].nftHighestBidder,\r\n            nftAuctions[_tokenId].nftHighestBid\r\n        );\r\n\r\n        if (nftAuctions[_tokenId].nftHighestBidder != address(0)) {\r\n            _marketTransfer(\r\n                nftAuctions[_tokenId].nftHighestBid -\r\n                    nftAuctions[_tokenId].nftHighestBid /\r\n                    10,\r\n                _tokenId,\r\n                nftAuctions[_tokenId].nftSeller\r\n            );\r\n        }\r\n\r\n        nftAuctions[_tokenId].buyNowPrice = 0;\r\n        nftAuctions[_tokenId].auctionEnd = 0;\r\n        nftAuctions[_tokenId].nftSeller = address(0);\r\n        nftAuctions[_tokenId].nftHighestBid = 0;\r\n        nftAuctions[_tokenId].nftHighestBidder = address(0);\r\n    }\r\n\r\n    function makeBid(uint256 _tokenId) public payable {\r\n        require(\r\n            nftAuctions[_tokenId].nftSeller != address(0),\r\n            \"The auction must exist\"\r\n        );\r\n        require(\r\n            nftAuctions[_tokenId].auctionEnd > block.timestamp,\r\n            \"Auction has ended\"\r\n        );\r\n        require(\r\n            nftAuctions[_tokenId].nftSeller != msg.sender,\r\n            \"The owner of the auction cannot bid it\"\r\n        );\r\n        uint256 limit = nftAuctions[_tokenId].nftHighestBid;\r\n        if (limit < nftAuctions[_tokenId].buyNowPrice) {\r\n            if (limit / 10 > 0.01 ether) limit = (limit * 11) / 10;\r\n            else limit += 0.01 ether;\r\n        } else limit = nftAuctions[_tokenId].buyNowPrice;\r\n        require(\r\n            msg.value >= limit,\r\n            \"The ETH amount should be more than 110% of NFT highest bid Price\"\r\n        );\r\n\r\n        address _receiver = nftAuctions[_tokenId].nftHighestBidder;\r\n        if (_receiver == address(0))\r\n            _receiver = nftAuctions[_tokenId].nftSeller;\r\n        else\r\n            userFunds[_receiver] =\r\n                nftAuctions[_tokenId].nftHighestBid -\r\n                nftAuctions[_tokenId].nftHighestBid /\r\n                10;\r\n        _marketTransfer(msg.value / 10, _tokenId, _receiver);\r\n\r\n        nftAuctions[_tokenId].nftHighestBidder = msg.sender;\r\n        nftAuctions[_tokenId].nftHighestBid = uint256(msg.value);\r\n        if (nftAuctions[_tokenId].auctionEnd < block.timestamp + 10 minutes)\r\n            nftAuctions[_tokenId].auctionEnd = block.timestamp + 10 minutes;\r\n\r\n        emit BidCreated(\r\n            _tokenId,\r\n            nftAuctions[_tokenId].nftHighestBid,\r\n            msg.sender,\r\n            nftAuctions[_tokenId].auctionEnd\r\n        );\r\n    }\r\n\r\n    function cancelBid(uint256 _tokenId) public {\r\n        require(\r\n            nftAuctions[_tokenId].nftSeller != address(0),\r\n            \"The auction must exist\"\r\n        );\r\n        require(\r\n            nftAuctions[_tokenId].auctionEnd > block.timestamp,\r\n            \"Auction has ended\"\r\n        );\r\n        require(\r\n            msg.sender == nftAuctions[_tokenId].nftHighestBidder,\r\n            \"Only highest bidder can cancel the bid\"\r\n        );\r\n\r\n        userFunds[msg.sender] =\r\n            nftAuctions[_tokenId].nftHighestBid -\r\n            nftAuctions[_tokenId].nftHighestBid /\r\n            10;\r\n        nftAuctions[_tokenId].nftHighestBidder = address(0);\r\n        nftAuctions[_tokenId].nftHighestBid = 0;\r\n\r\n        emit BidCanceled(_tokenId);\r\n    }\r\n\r\n    function claimFunds() public {\r\n        require(\r\n            userFunds[msg.sender] > 0,\r\n            \"This user has no funds to be claimed\"\r\n        );\r\n        payable(msg.sender).transfer(userFunds[msg.sender]);\r\n        emit ClaimFunds(msg.sender, userFunds[msg.sender]);\r\n        userFunds[msg.sender] = 0;\r\n    }\r\n\r\n    // Fallback: reverts if Ether is sent to this smart-contract by mistake\r\n    fallback() external {\r\n        revert();\r\n    }\r\n}\r\n",
  "sourcePath": "C:\\Users\\Tiger\\3D Objects\\nft-marketplace\\src\\contracts\\NFTMarketplace.sol",
  "compiler": {
    "name": "solc",
    "version": "0.8.11+commit.d7f03943.Emscripten.clang"
  },
  "schemaVersion": "3.4.3",
  "updatedAt": "2021-12-24T06:12:17.181Z",
  "networkType": "ethereum",
  "devdoc": {
    "kind": "dev",
    "methods": {
      "isOwner()": {
        "returns": {
          "_0": "true if `msg.sender` is the owner of the contract."
        }
      },
      "owner()": {
        "returns": {
          "_0": "the address of the owner."
        }
      },
      "renounceOwnership()": {
        "details": "Allows the current owner to relinquish control of the contract."
      },
      "transferOwnership(address)": {
        "details": "Allows the current owner to transfer control of the contract to a newOwner.",
        "params": {
          "newOwner": "The address to transfer ownership to."
        }
      }
    },
    "version": 1
  },
  "userdoc": {
    "kind": "user",
    "methods": {
      "renounceOwnership()": {
        "notice": "Renouncing to ownership will leave the contract without an owner. It will not be possible to call the functions with the `onlyOwner` modifier anymore."
      }
    },
    "version": 1
  }
}