{
  "contractName": "NFTMarketplace",
  "abi": [
    {
      "inputs": [
        {
          "internalType": "address",
          "name": "_nftCollection",
          "type": "address"
        }
      ],
      "stateMutability": "nonpayable",
      "type": "constructor"
    },
    {
      "anonymous": false,
      "inputs": [
        {
          "indexed": false,
          "internalType": "uint256",
          "name": "tokenId",
          "type": "uint256"
        }
      ],
      "name": "BidCanceled",
      "type": "event"
    },
    {
      "anonymous": false,
      "inputs": [
        {
          "indexed": false,
          "internalType": "uint256",
          "name": "tokenId",
          "type": "uint256"
        },
        {
          "indexed": false,
          "internalType": "uint256",
          "name": "nftHighestBid",
          "type": "uint256"
        },
        {
          "indexed": false,
          "internalType": "address",
          "name": "nftHighestBidder",
          "type": "address"
        },
        {
          "indexed": false,
          "internalType": "uint256",
          "name": "auctionEnd",
          "type": "uint256"
        }
      ],
      "name": "BidCreated",
      "type": "event"
    },
    {
      "anonymous": false,
      "inputs": [
        {
          "indexed": false,
          "internalType": "address",
          "name": "user",
          "type": "address"
        },
        {
          "indexed": false,
          "internalType": "uint256",
          "name": "amount",
          "type": "uint256"
        }
      ],
      "name": "ClaimFunds",
      "type": "event"
    },
    {
      "anonymous": false,
      "inputs": [
        {
          "indexed": false,
          "internalType": "uint256",
          "name": "tokenId",
          "type": "uint256"
        },
        {
          "indexed": false,
          "internalType": "address",
          "name": "nftSeller",
          "type": "address"
        }
      ],
      "name": "NftAuctionCanceled",
      "type": "event"
    },
    {
      "anonymous": false,
      "inputs": [
        {
          "indexed": false,
          "internalType": "uint256",
          "name": "auctionEnd",
          "type": "uint256"
        },
        {
          "indexed": false,
          "internalType": "uint256",
          "name": "buyNowPrice",
          "type": "uint256"
        },
        {
          "indexed": false,
          "internalType": "uint256",
          "name": "tokenId",
          "type": "uint256"
        },
        {
          "indexed": false,
          "internalType": "address",
          "name": "nftSeller",
          "type": "address"
        }
      ],
      "name": "NftAuctionCreated",
      "type": "event"
    },
    {
      "anonymous": false,
      "inputs": [
        {
          "indexed": false,
          "internalType": "uint256",
          "name": "tokenId",
          "type": "uint256"
        },
        {
          "indexed": false,
          "internalType": "address",
          "name": "nftSeller",
          "type": "address"
        },
        {
          "indexed": false,
          "internalType": "uint256",
          "name": "buyNowPrice",
          "type": "uint256"
        },
        {
          "indexed": false,
          "internalType": "address",
          "name": "winner",
          "type": "address"
        },
        {
          "indexed": false,
          "internalType": "uint256",
          "name": "price",
          "type": "uint256"
        }
      ],
      "name": "NftAuctionSettled",
      "type": "event"
    },
    {
      "anonymous": false,
      "inputs": [
        {
          "indexed": false,
          "internalType": "uint256",
          "name": "offerId",
          "type": "uint256"
        },
        {
          "indexed": false,
          "internalType": "uint256",
          "name": "id",
          "type": "uint256"
        },
        {
          "indexed": false,
          "internalType": "address",
          "name": "user",
          "type": "address"
        },
        {
          "indexed": false,
          "internalType": "uint256",
          "name": "price",
          "type": "uint256"
        },
        {
          "indexed": false,
          "internalType": "bool",
          "name": "fulfilled",
          "type": "bool"
        },
        {
          "indexed": false,
          "internalType": "bool",
          "name": "cancelled",
          "type": "bool"
        }
      ],
      "name": "Offer",
      "type": "event"
    },
    {
      "anonymous": false,
      "inputs": [
        {
          "indexed": false,
          "internalType": "uint256",
          "name": "offerId",
          "type": "uint256"
        },
        {
          "indexed": false,
          "internalType": "uint256",
          "name": "id",
          "type": "uint256"
        },
        {
          "indexed": false,
          "internalType": "address",
          "name": "owner",
          "type": "address"
        }
      ],
      "name": "OfferCancelled",
      "type": "event"
    },
    {
      "anonymous": false,
      "inputs": [
        {
          "indexed": false,
          "internalType": "uint256",
          "name": "offerId",
          "type": "uint256"
        },
        {
          "indexed": false,
          "internalType": "uint256",
          "name": "id",
          "type": "uint256"
        },
        {
          "indexed": false,
          "internalType": "address",
          "name": "newOwner",
          "type": "address"
        }
      ],
      "name": "OfferFilled",
      "type": "event"
    },
    {
      "anonymous": false,
      "inputs": [
        {
          "indexed": false,
          "internalType": "uint256",
          "name": "offerId",
          "type": "uint256"
        },
        {
          "indexed": false,
          "internalType": "uint256",
          "name": "price",
          "type": "uint256"
        }
      ],
      "name": "OfferUpdated",
      "type": "event"
    },
    {
      "stateMutability": "nonpayable",
      "type": "fallback"
    },
    {
      "inputs": [
        {
          "internalType": "uint256",
          "name": "",
          "type": "uint256"
        }
      ],
      "name": "nftAuctions",
      "outputs": [
        {
          "internalType": "uint256",
          "name": "buyNowPrice",
          "type": "uint256"
        },
        {
          "internalType": "uint256",
          "name": "nftHighestBid",
          "type": "uint256"
        },
        {
          "internalType": "uint256",
          "name": "auctionEnd",
          "type": "uint256"
        },
        {
          "internalType": "address",
          "name": "nftHighestBidder",
          "type": "address"
        },
        {
          "internalType": "address",
          "name": "nftSeller",
          "type": "address"
        }
      ],
      "stateMutability": "view",
      "type": "function",
      "constant": true
    },
    {
      "inputs": [],
      "name": "offerCount",
      "outputs": [
        {
          "internalType": "uint256",
          "name": "",
          "type": "uint256"
        }
      ],
      "stateMutability": "view",
      "type": "function",
      "constant": true
    },
    {
      "inputs": [
        {
          "internalType": "uint256",
          "name": "",
          "type": "uint256"
        }
      ],
      "name": "offers",
      "outputs": [
        {
          "internalType": "uint256",
          "name": "offerId",
          "type": "uint256"
        },
        {
          "internalType": "uint256",
          "name": "id",
          "type": "uint256"
        },
        {
          "internalType": "uint256",
          "name": "price",
          "type": "uint256"
        },
        {
          "internalType": "address",
          "name": "user",
          "type": "address"
        },
        {
          "internalType": "bool",
          "name": "fulfilled",
          "type": "bool"
        },
        {
          "internalType": "bool",
          "name": "cancelled",
          "type": "bool"
        }
      ],
      "stateMutability": "view",
      "type": "function",
      "constant": true
    },
    {
      "inputs": [
        {
          "internalType": "address",
          "name": "",
          "type": "address"
        }
      ],
      "name": "userFunds",
      "outputs": [
        {
          "internalType": "uint256",
          "name": "",
          "type": "uint256"
        }
      ],
      "stateMutability": "view",
      "type": "function",
      "constant": true
    },
    {
      "inputs": [
        {
          "internalType": "uint256",
          "name": "_id",
          "type": "uint256"
        },
        {
          "internalType": "uint256",
          "name": "_price",
          "type": "uint256"
        }
      ],
      "name": "makeOffer",
      "outputs": [],
      "stateMutability": "nonpayable",
      "type": "function"
    },
    {
      "inputs": [
        {
          "internalType": "uint256",
          "name": "_offerId",
          "type": "uint256"
        }
      ],
      "name": "fillOffer",
      "outputs": [],
      "stateMutability": "payable",
      "type": "function",
      "payable": true
    },
    {
      "inputs": [
        {
          "internalType": "uint256",
          "name": "_offerId",
          "type": "uint256"
        }
      ],
      "name": "cancelOffer",
      "outputs": [],
      "stateMutability": "nonpayable",
      "type": "function"
    },
    {
      "inputs": [
        {
          "internalType": "uint256",
          "name": "_offerId",
          "type": "uint256"
        },
        {
          "internalType": "uint256",
          "name": "_price",
          "type": "uint256"
        }
      ],
      "name": "updateOffer",
      "outputs": [],
      "stateMutability": "nonpayable",
      "type": "function"
    },
    {
      "inputs": [],
      "name": "getAuctions",
      "outputs": [
        {
          "components": [
            {
              "internalType": "uint256",
              "name": "buyNowPrice",
              "type": "uint256"
            },
            {
              "internalType": "uint256",
              "name": "nftHighestBid",
              "type": "uint256"
            },
            {
              "internalType": "uint256",
              "name": "auctionEnd",
              "type": "uint256"
            },
            {
              "internalType": "address",
              "name": "nftHighestBidder",
              "type": "address"
            },
            {
              "internalType": "address",
              "name": "nftSeller",
              "type": "address"
            }
          ],
          "internalType": "struct NFTMarketplace.Auction[]",
          "name": "",
          "type": "tuple[]"
        },
        {
          "internalType": "uint256[]",
          "name": "",
          "type": "uint256[]"
        }
      ],
      "stateMutability": "view",
      "type": "function",
      "constant": true
    },
    {
      "inputs": [
        {
          "internalType": "uint256",
          "name": "_tokenId",
          "type": "uint256"
        },
        {
          "internalType": "uint256",
          "name": "_price",
          "type": "uint256"
        },
        {
          "internalType": "uint256",
          "name": "period",
          "type": "uint256"
        }
      ],
      "name": "makeAuction",
      "outputs": [],
      "stateMutability": "nonpayable",
      "type": "function"
    },
    {
      "inputs": [
        {
          "internalType": "uint256",
          "name": "_tokenId",
          "type": "uint256"
        }
      ],
      "name": "cancelAuction",
      "outputs": [],
      "stateMutability": "nonpayable",
      "type": "function"
    },
    {
      "inputs": [
        {
          "internalType": "uint256",
          "name": "_tokenId",
          "type": "uint256"
        }
      ],
      "name": "settleAuction",
      "outputs": [],
      "stateMutability": "nonpayable",
      "type": "function"
    },
    {
      "inputs": [
        {
          "internalType": "uint256",
          "name": "_tokenId",
          "type": "uint256"
        }
      ],
      "name": "makeBid",
      "outputs": [],
      "stateMutability": "payable",
      "type": "function",
      "payable": true
    },
    {
      "inputs": [
        {
          "internalType": "uint256",
          "name": "_tokenId",
          "type": "uint256"
        }
      ],
      "name": "cancelBid",
      "outputs": [],
      "stateMutability": "nonpayable",
      "type": "function"
    },
    {
      "inputs": [],
      "name": "claimFunds",
      "outputs": [],
      "stateMutability": "nonpayable",
      "type": "function"
    },
    {
      "inputs": [
        {
          "internalType": "address",
          "name": "newOwner",
          "type": "address"
        }
      ],
      "name": "transferOwnership",
      "outputs": [],
      "stateMutability": "nonpayable",
      "type": "function"
    }
  ],
  "bytecode": "0x608060405260fa6001553480156200001657600080fd5b5060405162003cb438038062003cb483398181016040528101906200003c91906200012f565b80600560006101000a81548173ffffffffffffffffffffffffffffffffffffffff021916908373ffffffffffffffffffffffffffffffffffffffff16021790555033600660006101000a81548173ffffffffffffffffffffffffffffffffffffffff021916908373ffffffffffffffffffffffffffffffffffffffff1602179055505062000161565b600080fd5b600073ffffffffffffffffffffffffffffffffffffffff82169050919050565b6000620000f782620000ca565b9050919050565b6200010981620000ea565b81146200011557600080fd5b50565b6000815190506200012981620000fe565b92915050565b600060208284031215620001485762000147620000c5565b5b6000620001588482850162000118565b91505092915050565b613b4380620001716000396000f3fe6080604052600436106100f75760003560e01c806393cde51a1161008a578063d04d5d7211610059578063d04d5d7214610311578063d7c069191461033a578063ef706adf14610366578063f2fde38b1461038f576100f8565b806393cde51a1461026757806396b5a755146102a85780639703ef35146102d1578063ac307773146102fa576100f8565b80632e993611116100c65780632e993611146101a35780638387c6e1146101cc57806385dba861146102095780638a72ea6a14610225576100f8565b806305b7cdd31461010a5780630b7b925b146101335780631115c24d1461015c578063175b230414610187576100f8565b5b34801561010457600080fd5b50600080fd5b34801561011657600080fd5b50610131600480360381019061012c91906127b1565b6103b8565b005b34801561013f57600080fd5b5061015a600480360381019061015591906127b1565b6105af565b005b34801561016857600080fd5b5061017161073d565b60405161017e9190612800565b60405180910390f35b6101a1600480360381019061019c919061281b565b610743565b005b3480156101af57600080fd5b506101ca60048036038101906101c5919061281b565b610c7a565b005b3480156101d857600080fd5b506101f360048036038101906101ee91906128a6565b611042565b6040516102009190612800565b60405180910390f35b610223600480360381019061021e919061281b565b61105a565b005b34801561023157600080fd5b5061024c6004803603810190610247919061281b565b611410565b60405161025e969594939291906128fd565b60405180910390f35b34801561027357600080fd5b5061028e6004803603810190610289919061281b565b611486565b60405161029f95949392919061295e565b60405180910390f35b3480156102b457600080fd5b506102cf60048036038101906102ca919061281b565b6114fc565b005b3480156102dd57600080fd5b506102f860048036038101906102f3919061281b565b611769565b005b34801561030657600080fd5b5061030f611a3e565b005b34801561031d57600080fd5b50610338600480360381019061033391906129b1565b611c05565b005b34801561034657600080fd5b5061034f611d91565b60405161035d929190612be8565b60405180910390f35b34801561037257600080fd5b5061038d6004803603810190610388919061281b565b6120d5565b005b34801561039b57600080fd5b506103b660048036038101906103b191906128a6565b612369565b005b600560009054906101000a900473ffffffffffffffffffffffffffffffffffffffff1673ffffffffffffffffffffffffffffffffffffffff166323b872dd3330856040518463ffffffff1660e01b815260040161041793929190612c1f565b600060405180830381600087803b15801561043157600080fd5b505af1158015610445573d6000803e3d6000fd5b5050505060008081548092919061045b90612c85565b91905055506040518060c0016040528060005481526020018381526020018281526020013373ffffffffffffffffffffffffffffffffffffffff16815260200160001515815260200160001515815250600260008054815260200190815260200160002060008201518160000155602082015181600101556040820151816002015560608201518160030160006101000a81548173ffffffffffffffffffffffffffffffffffffffff021916908373ffffffffffffffffffffffffffffffffffffffff16021790555060808201518160030160146101000a81548160ff02191690831515021790555060a08201518160030160156101000a81548160ff0219169083151502179055509050507f93e711896d4ef527d199d7e101922e20f918cbb248a0fb0977c52fda24aa1f1d6000548333846000806040516105a396959493929190612cce565b60405180910390a15050565b60006002600084815260200190815260200160002090508281600001541461060c576040517f08c379a000000000000000000000000000000000000000000000000000000000815260040161060390612d8c565b60405180910390fd5b3373ffffffffffffffffffffffffffffffffffffffff168160030160009054906101000a900473ffffffffffffffffffffffffffffffffffffffff1673ffffffffffffffffffffffffffffffffffffffff161461069e576040517f08c379a000000000000000000000000000000000000000000000000000000000815260040161069590612e1e565b60405180910390fd5b600015158160030160149054906101000a900460ff161515146106f6576040517f08c379a00000000000000000000000000000000000000000000000000000000081526004016106ed90612eb0565b60405180910390fd5b8181600201819055507f63259830931e406791f7755ad50d816251e755d53951772775a94f2bf0e54fde8383604051610730929190612ed0565b60405180910390a1505050565b60005481565b600073ffffffffffffffffffffffffffffffffffffffff166004600083815260200190815260200160002060040160009054906101000a900473ffffffffffffffffffffffffffffffffffffffff1673ffffffffffffffffffffffffffffffffffffffff1614156107e9576040517f08c379a00000000000000000000000000000000000000000000000000000000081526004016107e090612f45565b60405180910390fd5b42600460008381526020019081526020016000206002015411610841576040517f08c379a000000000000000000000000000000000000000000000000000000000815260040161083890612fb1565b60405180910390fd5b3373ffffffffffffffffffffffffffffffffffffffff166004600083815260200190815260200160002060040160009054906101000a900473ffffffffffffffffffffffffffffffffffffffff1673ffffffffffffffffffffffffffffffffffffffff1614156108e6576040517f08c379a00000000000000000000000000000000000000000000000000000000081526004016108dd90613043565b60405180910390fd5b600060046000838152602001908152602001600020600101549050600460008381526020019081526020016000206000015481111561097557662386f26fc10000600a826109349190613092565b111561095a57600a600b8261094991906130c3565b6109539190613092565b9050610970565b662386f26fc100008161096d919061311d565b90505b61098f565b600460008381526020019081526020016000206000015490505b803410156109d2576040517f08c379a00000000000000000000000000000000000000000000000000000000081526004016109c9906131e5565b60405180910390fd5b60006004600084815260200190815260200160002060030160009054906101000a900473ffffffffffffffffffffffffffffffffffffffff169050600073ffffffffffffffffffffffffffffffffffffffff168173ffffffffffffffffffffffffffffffffffffffff161415610a97576004600084815260200190815260200160002060040160009054906101000a900473ffffffffffffffffffffffffffffffffffffffff169050610a92600a34610a8b9190613092565b8483612441565b610b48565b600a34610aa49190613092565b600a6004600086815260200190815260200160002060010154610ac79190613092565b6004600086815260200190815260200160002060010154610ae89190613205565b610af2919061311d565b600360008373ffffffffffffffffffffffffffffffffffffffff1673ffffffffffffffffffffffffffffffffffffffff1681526020019081526020016000206000828254610b40919061311d565b925050819055505b336004600085815260200190815260200160002060030160006101000a81548173ffffffffffffffffffffffffffffffffffffffff021916908373ffffffffffffffffffffffffffffffffffffffff16021790555034600460008581526020019081526020016000206001018190555061025842610bc6919061311d565b60046000858152602001908152602001600020600201541015610c0c5761025842610bf1919061311d565b60046000858152602001908152602001600020600201819055505b7f6d2b783673dbbf046f2e5a1f3c92ce62c29a0f5385f2b1f0eaf19019ef28cb55836004600086815260200190815260200160002060010154336004600088815260200190815260200160002060020154604051610c6d9493929190613239565b60405180910390a1505050565b600073ffffffffffffffffffffffffffffffffffffffff166004600083815260200190815260200160002060040160009054906101000a900473ffffffffffffffffffffffffffffffffffffffff1673ffffffffffffffffffffffffffffffffffffffff161415610d20576040517f08c379a0000000000000000000000000000000000000000000000000000000008152600401610d1790612f45565b60405180910390fd5b4260046000838152602001908152602001600020600201541115610d79576040517f08c379a0000000000000000000000000000000000000000000000000000000008152600401610d70906132ca565b60405180910390fd5b7fad0fc073c0346c2850f535b636bd929b71ae81fa3fdd2c79445b0b84ba612d4d816004600084815260200190815260200160002060040160009054906101000a900473ffffffffffffffffffffffffffffffffffffffff1660046000858152602001908152602001600020600001546004600086815260200190815260200160002060030160009054906101000a900473ffffffffffffffffffffffffffffffffffffffff166004600087815260200190815260200160002060010154604051610e489594939291906132ea565b60405180910390a1600073ffffffffffffffffffffffffffffffffffffffff166004600083815260200190815260200160002060030160009054906101000a900473ffffffffffffffffffffffffffffffffffffffff1673ffffffffffffffffffffffffffffffffffffffff1614610f3f57610f3e600a6004600084815260200190815260200160002060010154610ee09190613092565b6004600084815260200190815260200160002060010154610f019190613205565b826004600085815260200190815260200160002060040160009054906101000a900473ffffffffffffffffffffffffffffffffffffffff16612441565b5b600060046000838152602001908152602001600020600001819055506000600460008381526020019081526020016000206002018190555060006004600083815260200190815260200160002060040160006101000a81548173ffffffffffffffffffffffffffffffffffffffff021916908373ffffffffffffffffffffffffffffffffffffffff1602179055506000600460008381526020019081526020016000206001018190555060006004600083815260200190815260200160002060030160006101000a81548173ffffffffffffffffffffffffffffffffffffffff021916908373ffffffffffffffffffffffffffffffffffffffff16021790555050565b60036020528060005260406000206000915090505481565b6000600260008381526020019081526020016000209050818160000154146110b7576040517f08c379a00000000000000000000000000000000000000000000000000000000081526004016110ae90612d8c565b60405180910390fd5b3373ffffffffffffffffffffffffffffffffffffffff168160030160009054906101000a900473ffffffffffffffffffffffffffffffffffffffff1673ffffffffffffffffffffffffffffffffffffffff16141561114a576040517f08c379a0000000000000000000000000000000000000000000000000000000008152600401611141906133af565b60405180910390fd5b8060030160149054906101000a900460ff161561119c576040517f08c379a000000000000000000000000000000000000000000000000000000000815260040161119390613441565b60405180910390fd5b8060030160159054906101000a900460ff16156111ee576040517f08c379a00000000000000000000000000000000000000000000000000000000081526004016111e5906134d3565b60405180910390fd5b8060020154600360003373ffffffffffffffffffffffffffffffffffffffff1673ffffffffffffffffffffffffffffffffffffffff168152602001908152602001600020543461123e919061311d565b101561127f576040517f08c379a000000000000000000000000000000000000000000000000000000000815260040161127690613565565b60405180910390fd5b600560009054906101000a900473ffffffffffffffffffffffffffffffffffffffff1673ffffffffffffffffffffffffffffffffffffffff166323b872dd303384600101546040518463ffffffff1660e01b81526004016112e293929190612c1f565b600060405180830381600087803b1580156112fc57600080fd5b505af1158015611310573d6000803e3d6000fd5b5050505060018160030160146101000a81548160ff021916908315150217905550611368816002015482600101548360030160009054906101000a900473ffffffffffffffffffffffffffffffffffffffff16612441565b3481600201546113789190613205565b600360003373ffffffffffffffffffffffffffffffffffffffff1673ffffffffffffffffffffffffffffffffffffffff16815260200190815260200160002060008282546113c69190613205565b925050819055507fd9157c065213ada613694e84b1e27fe2efd62d85c6b82bd6c842a4999491e72a8282600101543360405161140493929190613585565b60405180910390a15050565b60026020528060005260406000206000915090508060000154908060010154908060020154908060030160009054906101000a900473ffffffffffffffffffffffffffffffffffffffff16908060030160149054906101000a900460ff16908060030160159054906101000a900460ff16905086565b60046020528060005260406000206000915090508060000154908060010154908060020154908060030160009054906101000a900473ffffffffffffffffffffffffffffffffffffffff16908060040160009054906101000a900473ffffffffffffffffffffffffffffffffffffffff16905085565b3373ffffffffffffffffffffffffffffffffffffffff166004600083815260200190815260200160002060040160009054906101000a900473ffffffffffffffffffffffffffffffffffffffff1673ffffffffffffffffffffffffffffffffffffffff16146115a0576040517f08c379a00000000000000000000000000000000000000000000000000000000081526004016115979061362e565b60405180910390fd5b600460008281526020019081526020016000206000015460046000838152602001908152602001600020600101541061160e576040517f08c379a00000000000000000000000000000000000000000000000000000000081526004016116059061369a565b60405180910390fd5b600560009054906101000a900473ffffffffffffffffffffffffffffffffffffffff1673ffffffffffffffffffffffffffffffffffffffff166323b872dd3033846040518463ffffffff1660e01b815260040161166d93929190612c1f565b600060405180830381600087803b15801561168757600080fd5b505af115801561169b573d6000803e3d6000fd5b50505050600060046000838152602001908152602001600020600001819055506000600460008381526020019081526020016000206002018190555060006004600083815260200190815260200160002060040160006101000a81548173ffffffffffffffffffffffffffffffffffffffff021916908373ffffffffffffffffffffffffffffffffffffffff1602179055507f9f338bd30f2b8df7becd5a8d2b41a9f9572ee4a9db023508e50c541285c8dc0e813360405161175e9291906136ba565b60405180910390a150565b600073ffffffffffffffffffffffffffffffffffffffff166004600083815260200190815260200160002060040160009054906101000a900473ffffffffffffffffffffffffffffffffffffffff1673ffffffffffffffffffffffffffffffffffffffff16141561180f576040517f08c379a000000000000000000000000000000000000000000000000000000000815260040161180690612f45565b60405180910390fd5b42600460008381526020019081526020016000206002015411611867576040517f08c379a000000000000000000000000000000000000000000000000000000000815260040161185e90612fb1565b60405180910390fd5b6004600082815260200190815260200160002060030160009054906101000a900473ffffffffffffffffffffffffffffffffffffffff1673ffffffffffffffffffffffffffffffffffffffff163373ffffffffffffffffffffffffffffffffffffffff161461190b576040517f08c379a000000000000000000000000000000000000000000000000000000000815260040161190290613755565b60405180910390fd5b600a600460008381526020019081526020016000206001015461192e9190613092565b600460008381526020019081526020016000206001015461194f9190613205565b600360003373ffffffffffffffffffffffffffffffffffffffff1673ffffffffffffffffffffffffffffffffffffffff1681526020019081526020016000208190555060006004600083815260200190815260200160002060030160006101000a81548173ffffffffffffffffffffffffffffffffffffffff021916908373ffffffffffffffffffffffffffffffffffffffff160217905550600060046000838152602001908152602001600020600101819055507ff72c9cb76aa633bc9310fa98738d474339fdf2f23dfac70ccbd65e593f6654df81604051611a339190612800565b60405180910390a150565b6000600360003373ffffffffffffffffffffffffffffffffffffffff1673ffffffffffffffffffffffffffffffffffffffff1681526020019081526020016000205411611ac0576040517f08c379a0000000000000000000000000000000000000000000000000000000008152600401611ab7906137e7565b60405180910390fd5b3373ffffffffffffffffffffffffffffffffffffffff166108fc600360003373ffffffffffffffffffffffffffffffffffffffff1673ffffffffffffffffffffffffffffffffffffffff168152602001908152602001600020549081150290604051600060405180830381858888f19350505050158015611b45573d6000803e3d6000fd5b507f4f0554190111f93f8c2ccef2cc41473f187d7f29ff5a5c308ca41f9dfe4e989a33600360003373ffffffffffffffffffffffffffffffffffffffff1673ffffffffffffffffffffffffffffffffffffffff16815260200190815260200160002054604051611bb6929190613807565b60405180910390a16000600360003373ffffffffffffffffffffffffffffffffffffffff1673ffffffffffffffffffffffffffffffffffffffff16815260200190815260200160002081905550565b600560009054906101000a900473ffffffffffffffffffffffffffffffffffffffff1673ffffffffffffffffffffffffffffffffffffffff166323b872dd3330866040518463ffffffff1660e01b8152600401611c6493929190612c1f565b600060405180830381600087803b158015611c7e57600080fd5b505af1158015611c92573d6000803e3d6000fd5b50505050816004600085815260200190815260200160002060000181905550610e1081611cbf91906130c3565b42611cca919061311d565b6004600085815260200190815260200160002060020181905550336004600085815260200190815260200160002060040160006101000a81548173ffffffffffffffffffffffffffffffffffffffff021916908373ffffffffffffffffffffffffffffffffffffffff1602179055507fa060a06376aad79320fcbff6f10eea7cd5f064d831e6aac4d2a8d1a80fa04ca46004600085815260200190815260200160002060020154838533604051611d849493929190613830565b60405180910390a1505050565b6060806000600560009054906101000a900473ffffffffffffffffffffffffffffffffffffffff1673ffffffffffffffffffffffffffffffffffffffff166318160ddd6040518163ffffffff1660e01b8152600401602060405180830381865afa158015611e03573d6000803e3d6000fd5b505050506040513d601f19601f82011682018060405250810190611e27919061388a565b905060008167ffffffffffffffff811115611e4557611e446138b7565b5b604051908082528060200260200182016040528015611e7e57816020015b611e6b61271b565b815260200190600190039081611e635790505b50905060008267ffffffffffffffff811115611e9d57611e9c6138b7565b5b604051908082528060200260200182016040528015611ecb5781602001602082028036833780820191505090505b50905060005b838110156120c757600560009054906101000a900473ffffffffffffffffffffffffffffffffffffffff1673ffffffffffffffffffffffffffffffffffffffff16634f6ccce7826040518263ffffffff1660e01b8152600401611f349190612800565b602060405180830381865afa158015611f51573d6000803e3d6000fd5b505050506040513d601f19601f82011682018060405250810190611f75919061388a565b828281518110611f8857611f876138e6565b5b60200260200101818152505060046000838381518110611fab57611faa6138e6565b5b602002602001015181526020019081526020016000206040518060a00160405290816000820154815260200160018201548152602001600282015481526020016003820160009054906101000a900473ffffffffffffffffffffffffffffffffffffffff1673ffffffffffffffffffffffffffffffffffffffff1673ffffffffffffffffffffffffffffffffffffffff1681526020016004820160009054906101000a900473ffffffffffffffffffffffffffffffffffffffff1673ffffffffffffffffffffffffffffffffffffffff1673ffffffffffffffffffffffffffffffffffffffff16815250508382815181106120a9576120a86138e6565b5b602002602001018190525080806120bf90612c85565b915050611ed1565b508181945094505050509091565b600060026000838152602001908152602001600020905081816000015414612132576040517f08c379a000000000000000000000000000000000000000000000000000000000815260040161212990612d8c565b60405180910390fd5b3373ffffffffffffffffffffffffffffffffffffffff168160030160009054906101000a900473ffffffffffffffffffffffffffffffffffffffff1673ffffffffffffffffffffffffffffffffffffffff16146121c4576040517f08c379a00000000000000000000000000000000000000000000000000000000081526004016121bb90613987565b60405180910390fd5b600015158160030160149054906101000a900460ff1615151461221c576040517f08c379a000000000000000000000000000000000000000000000000000000000815260040161221390613a19565b60405180910390fd5b600015158160030160159054906101000a900460ff16151514612274576040517f08c379a000000000000000000000000000000000000000000000000000000000815260040161226b90613aab565b60405180910390fd5b600560009054906101000a900473ffffffffffffffffffffffffffffffffffffffff1673ffffffffffffffffffffffffffffffffffffffff166323b872dd303384600101546040518463ffffffff1660e01b81526004016122d793929190612c1f565b600060405180830381600087803b1580156122f157600080fd5b505af1158015612305573d6000803e3d6000fd5b5050505060018160030160156101000a81548160ff0219169083151502179055507f5b166b4d0498ff8c4719999cb6154c5d197e6f020f9fbfcf9d347f84576cfab78282600101543360405161235d93929190613585565b60405180910390a15050565b600660009054906101000a900473ffffffffffffffffffffffffffffffffffffffff1673ffffffffffffffffffffffffffffffffffffffff163373ffffffffffffffffffffffffffffffffffffffff16146123c357600080fd5b600073ffffffffffffffffffffffffffffffffffffffff168173ffffffffffffffffffffffffffffffffffffffff1614156123fd57600080fd5b80600660006101000a81548173ffffffffffffffffffffffffffffffffffffffff021916908373ffffffffffffffffffffffffffffffffffffffff16021790555050565b6000831161244e57600080fd5b6000600560009054906101000a900473ffffffffffffffffffffffffffffffffffffffff1673ffffffffffffffffffffffffffffffffffffffff1663e814cb71846040518263ffffffff1660e01b81526004016124ab9190612800565b602060405180830381865afa1580156124c8573d6000803e3d6000fd5b505050506040513d601f19601f820116820180604052508101906124ec919061388a565b90506000600560009054906101000a900473ffffffffffffffffffffffffffffffffffffffff1673ffffffffffffffffffffffffffffffffffffffff16634586b3a1856040518263ffffffff1660e01b815260040161254b9190612800565b602060405180830381865afa158015612568573d6000803e3d6000fd5b505050506040513d601f19601f8201168201806040525081019061258c9190613ae0565b90506127106001548661259f91906130c3565b6125a99190613092565b60036000600660009054906101000a900473ffffffffffffffffffffffffffffffffffffffff1673ffffffffffffffffffffffffffffffffffffffff1673ffffffffffffffffffffffffffffffffffffffff1681526020019081526020016000206000828254612619919061311d565b92505081905550612710828661262f91906130c3565b6126399190613092565b600360008373ffffffffffffffffffffffffffffffffffffffff1673ffffffffffffffffffffffffffffffffffffffff1681526020019081526020016000206000828254612687919061311d565b925050819055506127108260015461269f919061311d565b866126aa91906130c3565b6126b49190613092565b856126bf9190613205565b600360008573ffffffffffffffffffffffffffffffffffffffff1673ffffffffffffffffffffffffffffffffffffffff168152602001908152602001600020600082825461270d919061311d565b925050819055505050505050565b6040518060a00160405280600081526020016000815260200160008152602001600073ffffffffffffffffffffffffffffffffffffffff168152602001600073ffffffffffffffffffffffffffffffffffffffff1681525090565b600080fd5b6000819050919050565b61278e8161277b565b811461279957600080fd5b50565b6000813590506127ab81612785565b92915050565b600080604083850312156127c8576127c7612776565b5b60006127d68582860161279c565b92505060206127e78582860161279c565b9150509250929050565b6127fa8161277b565b82525050565b600060208201905061281560008301846127f1565b92915050565b60006020828403121561283157612830612776565b5b600061283f8482850161279c565b91505092915050565b600073ffffffffffffffffffffffffffffffffffffffff82169050919050565b600061287382612848565b9050919050565b61288381612868565b811461288e57600080fd5b50565b6000813590506128a08161287a565b92915050565b6000602082840312156128bc576128bb612776565b5b60006128ca84828501612891565b91505092915050565b6128dc81612868565b82525050565b60008115159050919050565b6128f7816128e2565b82525050565b600060c08201905061291260008301896127f1565b61291f60208301886127f1565b61292c60408301876127f1565b61293960608301866128d3565b61294660808301856128ee565b61295360a08301846128ee565b979650505050505050565b600060a08201905061297360008301886127f1565b61298060208301876127f1565b61298d60408301866127f1565b61299a60608301856128d3565b6129a760808301846128d3565b9695505050505050565b6000806000606084860312156129ca576129c9612776565b5b60006129d88682870161279c565b93505060206129e98682870161279c565b92505060406129fa8682870161279c565b9150509250925092565b600081519050919050565b600082825260208201905092915050565b6000819050602082019050919050565b612a398161277b565b82525050565b612a4881612868565b82525050565b60a082016000820151612a646000850182612a30565b506020820151612a776020850182612a30565b506040820151612a8a6040850182612a30565b506060820151612a9d6060850182612a3f565b506080820151612ab06080850182612a3f565b50505050565b6000612ac28383612a4e565b60a08301905092915050565b6000602082019050919050565b6000612ae682612a04565b612af08185612a0f565b9350612afb83612a20565b8060005b83811015612b2c578151612b138882612ab6565b9750612b1e83612ace565b925050600181019050612aff565b5085935050505092915050565b600081519050919050565b600082825260208201905092915050565b6000819050602082019050919050565b6000612b718383612a30565b60208301905092915050565b6000602082019050919050565b6000612b9582612b39565b612b9f8185612b44565b9350612baa83612b55565b8060005b83811015612bdb578151612bc28882612b65565b9750612bcd83612b7d565b925050600181019050612bae565b5085935050505092915050565b60006040820190508181036000830152612c028185612adb565b90508181036020830152612c168184612b8a565b90509392505050565b6000606082019050612c3460008301866128d3565b612c4160208301856128d3565b612c4e60408301846127f1565b949350505050565b7f4e487b7100000000000000000000000000000000000000000000000000000000600052601160045260246000fd5b6000612c908261277b565b91507fffffffffffffffffffffffffffffffffffffffffffffffffffffffffffffffff821415612cc357612cc2612c56565b5b600182019050919050565b600060c082019050612ce360008301896127f1565b612cf060208301886127f1565b612cfd60408301876128d3565b612d0a60608301866127f1565b612d1760808301856128ee565b612d2460a08301846128ee565b979650505050505050565b600082825260208201905092915050565b7f546865206f66666572206d757374206578697374000000000000000000000000600082015250565b6000612d76601483612d2f565b9150612d8182612d40565b602082019050919050565b60006020820190508181036000830152612da581612d69565b9050919050565b7f546865206f666665722063616e206f6e6c79206265207570646174656420627960008201527f20746865206f776e657200000000000000000000000000000000000000000000602082015250565b6000612e08602a83612d2f565b9150612e1382612dac565b604082019050919050565b60006020820190508181036000830152612e3781612dfb565b9050919050565b7f412066756c66696c6c6564206f666665722063616e6e6f74206265207570646160008201527f7465640000000000000000000000000000000000000000000000000000000000602082015250565b6000612e9a602383612d2f565b9150612ea582612e3e565b604082019050919050565b60006020820190508181036000830152612ec981612e8d565b9050919050565b6000604082019050612ee560008301856127f1565b612ef260208301846127f1565b9392505050565b7f5468652061756374696f6e206d75737420657869737400000000000000000000600082015250565b6000612f2f601683612d2f565b9150612f3a82612ef9565b602082019050919050565b60006020820190508181036000830152612f5e81612f22565b9050919050565b7f41756374696f6e2068617320656e646564000000000000000000000000000000600082015250565b6000612f9b601183612d2f565b9150612fa682612f65565b602082019050919050565b60006020820190508181036000830152612fca81612f8e565b9050919050565b7f546865206f776e6572206f66207468652061756374696f6e2063616e6e6f742060008201527f6269642069740000000000000000000000000000000000000000000000000000602082015250565b600061302d602683612d2f565b915061303882612fd1565b604082019050919050565b6000602082019050818103600083015261305c81613020565b9050919050565b7f4e487b7100000000000000000000000000000000000000000000000000000000600052601260045260246000fd5b600061309d8261277b565b91506130a88361277b565b9250826130b8576130b7613063565b5b828204905092915050565b60006130ce8261277b565b91506130d98361277b565b9250817fffffffffffffffffffffffffffffffffffffffffffffffffffffffffffffffff048311821515161561311257613111612c56565b5b828202905092915050565b60006131288261277b565b91506131338361277b565b9250827fffffffffffffffffffffffffffffffffffffffffffffffffffffffffffffffff0382111561316857613167612c56565b5b828201905092915050565b7f5468652045544820616d6f756e742073686f756c64206265206d6f726520746860008201527f616e2031313025206f66204e4654206869676865737420626964205072696365602082015250565b60006131cf604083612d2f565b91506131da82613173565b604082019050919050565b600060208201905081810360008301526131fe816131c2565b9050919050565b60006132108261277b565b915061321b8361277b565b92508282101561322e5761322d612c56565b5b828203905092915050565b600060808201905061324e60008301876127f1565b61325b60208301866127f1565b61326860408301856128d3565b61327560608301846127f1565b95945050505050565b7f41756374696f6e2073686f756c6420626520656e646564000000000000000000600082015250565b60006132b4601783612d2f565b91506132bf8261327e565b602082019050919050565b600060208201905081810360008301526132e3816132a7565b9050919050565b600060a0820190506132ff60008301886127f1565b61330c60208301876128d3565b61331960408301866127f1565b61332660608301856128d3565b61333360808301846127f1565b9695505050505050565b7f546865206f776e6572206f6620746865206f666665722063616e6e6f7420666960008201527f6c6c206974000000000000000000000000000000000000000000000000000000602082015250565b6000613399602583612d2f565b91506133a48261333d565b604082019050919050565b600060208201905081810360008301526133c88161338c565b9050919050565b7f416e206f666665722063616e6e6f742062652066756c66696c6c65642074776960008201527f6365000000000000000000000000000000000000000000000000000000000000602082015250565b600061342b602283612d2f565b9150613436826133cf565b604082019050919050565b6000602082019050818103600083015261345a8161341e565b9050919050565b7f412063616e63656c6c6564206f666665722063616e6e6f742062652066756c6660008201527f696c6c6564000000000000000000000000000000000000000000000000000000602082015250565b60006134bd602583612d2f565b91506134c882613461565b604082019050919050565b600060208201905081810360008301526134ec816134b0565b9050919050565b7f5468652045544820616d6f756e742073686f756c64206d61746368207769746860008201527f20746865204e4654205072696365000000000000000000000000000000000000602082015250565b600061354f602e83612d2f565b915061355a826134f3565b604082019050919050565b6000602082019050818103600083015261357e81613542565b9050919050565b600060608201905061359a60008301866127f1565b6135a760208301856127f1565b6135b460408301846128d3565b949350505050565b7f546865206f6e6c79206f776e6572206f66207468652061756374696f6e20636160008201527f6e2063616e63656c206974000000000000000000000000000000000000000000602082015250565b6000613618602b83612d2f565b9150613623826135bc565b604082019050919050565b600060208201905081810360008301526136478161360b565b9050919050565b7f54686520626964206d757374206e6f7420657869737400000000000000000000600082015250565b6000613684601683612d2f565b915061368f8261364e565b602082019050919050565b600060208201905081810360008301526136b381613677565b9050919050565b60006040820190506136cf60008301856127f1565b6136dc60208301846128d3565b9392505050565b7f4f6e6c792068696768657374206269646465722063616e2063616e63656c207460008201527f6865206269640000000000000000000000000000000000000000000000000000602082015250565b600061373f602683612d2f565b915061374a826136e3565b604082019050919050565b6000602082019050818103600083015261376e81613732565b9050919050565b7f54686973207573657220686173206e6f2066756e647320746f20626520636c6160008201527f696d656400000000000000000000000000000000000000000000000000000000602082015250565b60006137d1602483612d2f565b91506137dc82613775565b604082019050919050565b60006020820190508181036000830152613800816137c4565b9050919050565b600060408201905061381c60008301856128d3565b61382960208301846127f1565b9392505050565b600060808201905061384560008301876127f1565b61385260208301866127f1565b61385f60408301856127f1565b61386c60608301846128d3565b95945050505050565b60008151905061388481612785565b92915050565b6000602082840312156138a05761389f612776565b5b60006138ae84828501613875565b91505092915050565b7f4e487b7100000000000000000000000000000000000000000000000000000000600052604160045260246000fd5b7f4e487b7100000000000000000000000000000000000000000000000000000000600052603260045260246000fd5b7f546865206f666665722063616e206f6e6c792062652063616e63656c6564206260008201527f7920746865206f776e6572000000000000000000000000000000000000000000602082015250565b6000613971602b83612d2f565b915061397c82613915565b604082019050919050565b600060208201905081810360008301526139a081613964565b9050919050565b7f412066756c66696c6c6564206f666665722063616e6e6f742062652063616e6360008201527f656c6c6564000000000000000000000000000000000000000000000000000000602082015250565b6000613a03602583612d2f565b9150613a0e826139a7565b604082019050919050565b60006020820190508181036000830152613a32816139f6565b9050919050565b7f416e206f666665722063616e6e6f742062652063616e63656c6c65642074776960008201527f6365000000000000000000000000000000000000000000000000000000000000602082015250565b6000613a95602283612d2f565b9150613aa082613a39565b604082019050919050565b60006020820190508181036000830152613ac481613a88565b9050919050565b600081519050613ada8161287a565b92915050565b600060208284031215613af657613af5612776565b5b6000613b0484828501613acb565b9150509291505056fea26469706673582212203e0de1528e74e016713a93246f74f31d512401f9bbe30468d06b69f04bd2378164736f6c634300080b0033",
  "immutableReferences": {},
  "source": "// SPDX-License-Identifier: MIT\r\npragma solidity ^0.8.0;\r\n\r\nimport \"./NFTCollection.sol\";\r\n\r\ncontract NFTMarketplace {\r\n    uint256 public offerCount;\r\n    uint256 marketFee = 250;\r\n    mapping(uint256 => _Offer) public offers;\r\n    mapping(address => uint256) public userFunds;\r\n    mapping(uint256 => Auction) public nftAuctions;\r\n    NFTCollection nftCollection;\r\n    address private _owner;\r\n\r\n    struct _Offer {\r\n        uint256 offerId;\r\n        uint256 id;\r\n        uint256 price;\r\n        address user;\r\n        bool fulfilled;\r\n        bool cancelled;\r\n    }\r\n\r\n    struct Auction {\r\n        //map token ID to\r\n        uint256 buyNowPrice;\r\n        uint256 nftHighestBid;\r\n        uint256 auctionEnd;\r\n        address nftHighestBidder;\r\n        address nftSeller;\r\n    }\r\n\r\n    event Offer(\r\n        uint256 offerId,\r\n        uint256 id,\r\n        address user,\r\n        uint256 price,\r\n        bool fulfilled,\r\n        bool cancelled\r\n    );\r\n\r\n    event NftAuctionCreated(\r\n        uint256 auctionEnd,\r\n        uint256 buyNowPrice,\r\n        uint256 tokenId,\r\n        address nftSeller\r\n    );\r\n\r\n    event NftAuctionCanceled(uint256 tokenId, address nftSeller);\r\n    event NftAuctionSettled(\r\n        uint256 tokenId,\r\n        address nftSeller,\r\n        uint256 buyNowPrice,\r\n        address winner,\r\n        uint256 price\r\n    );\r\n\r\n    event BidCreated(\r\n        uint256 tokenId,\r\n        uint256 nftHighestBid,\r\n        address nftHighestBidder,\r\n        uint256 auctionEnd\r\n    );\r\n\r\n    event BidCanceled(uint256 tokenId);\r\n\r\n    event OfferFilled(uint256 offerId, uint256 id, address newOwner);\r\n    event OfferUpdated(uint256 offerId, uint256 price);\r\n    event OfferCancelled(uint256 offerId, uint256 id, address owner);\r\n    event ClaimFunds(address user, uint256 amount);\r\n\r\n    constructor(address _nftCollection) {\r\n        nftCollection = NFTCollection(_nftCollection);\r\n        _owner = msg.sender;\r\n    }\r\n\r\n    modifier onlyOwner() {\r\n        require(msg.sender == _owner);\r\n        _;\r\n    }\r\n\r\n    function _marketTransfer(\r\n        uint256 _price,\r\n        uint256 _tokenId,\r\n        address _receiver\r\n    ) internal {\r\n        require(_price > 0);\r\n        uint256 royalty = nftCollection.royalty(_tokenId);\r\n        address inventor = nftCollection.inventor(_tokenId);\r\n        userFunds[_owner] += (_price * marketFee) / 10000;\r\n        userFunds[inventor] += (_price * royalty) / 10000;\r\n        userFunds[_receiver] +=\r\n            _price -\r\n            (_price * (marketFee + royalty)) /\r\n            10000;\r\n    }\r\n\r\n    function makeOffer(uint256 _id, uint256 _price) public {\r\n        nftCollection.transferFrom(msg.sender, address(this), _id);\r\n        offerCount++;\r\n        offers[offerCount] = _Offer(\r\n            offerCount,\r\n            _id,\r\n            _price,\r\n            msg.sender,\r\n            false,\r\n            false\r\n        );\r\n        emit Offer(offerCount, _id, msg.sender, _price, false, false);\r\n    }\r\n\r\n    function fillOffer(uint256 _offerId) public payable {\r\n        _Offer storage _offer = offers[_offerId];\r\n        require(_offer.offerId == _offerId, \"The offer must exist\");\r\n        require(\r\n            _offer.user != msg.sender,\r\n            \"The owner of the offer cannot fill it\"\r\n        );\r\n        require(!_offer.fulfilled, \"An offer cannot be fulfilled twice\");\r\n        require(!_offer.cancelled, \"A cancelled offer cannot be fulfilled\");\r\n\r\n        require(\r\n            msg.value + userFunds[msg.sender] >= _offer.price,\r\n            \"The ETH amount should match with the NFT Price\"\r\n        );\r\n        nftCollection.transferFrom(address(this), msg.sender, _offer.id);\r\n        _offer.fulfilled = true;\r\n        _marketTransfer(_offer.price, _offer.id, _offer.user);\r\n        userFunds[msg.sender] -= _offer.price - msg.value;\r\n        emit OfferFilled(_offerId, _offer.id, msg.sender);\r\n    }\r\n\r\n    function cancelOffer(uint256 _offerId) public {\r\n        _Offer storage _offer = offers[_offerId];\r\n        require(_offer.offerId == _offerId, \"The offer must exist\");\r\n        require(\r\n            _offer.user == msg.sender,\r\n            \"The offer can only be canceled by the owner\"\r\n        );\r\n        require(\r\n            _offer.fulfilled == false,\r\n            \"A fulfilled offer cannot be cancelled\"\r\n        );\r\n        require(\r\n            _offer.cancelled == false,\r\n            \"An offer cannot be cancelled twice\"\r\n        );\r\n        nftCollection.transferFrom(address(this), msg.sender, _offer.id);\r\n        _offer.cancelled = true;\r\n        emit OfferCancelled(_offerId, _offer.id, msg.sender);\r\n    }\r\n\r\n    function updateOffer(uint256 _offerId, uint256 _price) public {\r\n        _Offer storage _offer = offers[_offerId];\r\n        require(_offer.offerId == _offerId, \"The offer must exist\");\r\n        require(\r\n            _offer.user == msg.sender,\r\n            \"The offer can only be updated by the owner\"\r\n        );\r\n        require(\r\n            _offer.fulfilled == false,\r\n            \"A fulfilled offer cannot be updated\"\r\n        );\r\n\r\n        _offer.price = _price;\r\n        emit OfferUpdated(_offerId, _price);\r\n    }\r\n\r\n    function getAuctions() external view returns (Auction[] memory, uint256[] memory) {\r\n        uint256 total = nftCollection.totalSupply();\r\n        Auction[] memory result = new Auction[](total);\r\n        uint256[] memory tokenIds = new uint256[](total);\r\n        for (uint256 i = 0; i < total; i++) {\r\n            tokenIds[i] = nftCollection.tokenByIndex(i);\r\n            result[i] = nftAuctions[tokenIds[i]];\r\n        }\r\n        return (result, tokenIds);\r\n    }\r\n\r\n    function makeAuction(\r\n        uint256 _tokenId,\r\n        uint256 _price,\r\n        uint256 period\r\n    ) public {\r\n        nftCollection.transferFrom(msg.sender, address(this), _tokenId);\r\n\r\n        nftAuctions[_tokenId].buyNowPrice = _price;\r\n        nftAuctions[_tokenId].auctionEnd = block.timestamp + period * 1 hours;\r\n        nftAuctions[_tokenId].nftSeller = msg.sender;\r\n\r\n        emit NftAuctionCreated(\r\n            nftAuctions[_tokenId].auctionEnd,\r\n            _price,\r\n            _tokenId,\r\n            msg.sender\r\n        );\r\n    }\r\n\r\n    function cancelAuction(uint256 _tokenId) public {\r\n        require(\r\n            nftAuctions[_tokenId].nftSeller == msg.sender,\r\n            \"The only owner of the auction can cancel it\"\r\n        );\r\n        require(\r\n            nftAuctions[_tokenId].nftHighestBid <\r\n                nftAuctions[_tokenId].buyNowPrice,\r\n            \"The bid must not exist\"\r\n        );\r\n        nftCollection.transferFrom(address(this), msg.sender, _tokenId);\r\n\r\n        nftAuctions[_tokenId].buyNowPrice = 0;\r\n        nftAuctions[_tokenId].auctionEnd = 0;\r\n        nftAuctions[_tokenId].nftSeller = address(0);\r\n\r\n        emit NftAuctionCanceled(_tokenId, msg.sender);\r\n    }\r\n\r\n    function settleAuction(uint256 _tokenId) public {\r\n        require(\r\n            nftAuctions[_tokenId].nftSeller != address(0),\r\n            \"The auction must exist\"\r\n        );\r\n        require(\r\n            nftAuctions[_tokenId].auctionEnd <= block.timestamp,\r\n            \"Auction should be ended\"\r\n        );\r\n\r\n        emit NftAuctionSettled(\r\n            _tokenId,\r\n            nftAuctions[_tokenId].nftSeller,\r\n            nftAuctions[_tokenId].buyNowPrice,\r\n            nftAuctions[_tokenId].nftHighestBidder,\r\n            nftAuctions[_tokenId].nftHighestBid\r\n        );\r\n\r\n        if (nftAuctions[_tokenId].nftHighestBidder != address(0)) {\r\n            _marketTransfer(\r\n                nftAuctions[_tokenId].nftHighestBid -\r\n                    nftAuctions[_tokenId].nftHighestBid /\r\n                    10,\r\n                _tokenId,\r\n                nftAuctions[_tokenId].nftSeller\r\n            );\r\n        }\r\n\r\n        nftAuctions[_tokenId].buyNowPrice = 0;\r\n        nftAuctions[_tokenId].auctionEnd = 0;\r\n        nftAuctions[_tokenId].nftSeller = address(0);\r\n        nftAuctions[_tokenId].nftHighestBid = 0;\r\n        nftAuctions[_tokenId].nftHighestBidder = address(0);\r\n    }\r\n\r\n    function makeBid(uint256 _tokenId) public payable {\r\n        require(\r\n            nftAuctions[_tokenId].nftSeller != address(0),\r\n            \"The auction must exist\"\r\n        );\r\n        require(\r\n            nftAuctions[_tokenId].auctionEnd > block.timestamp,\r\n            \"Auction has ended\"\r\n        );\r\n        require(\r\n            nftAuctions[_tokenId].nftSeller != msg.sender,\r\n            \"The owner of the auction cannot bid it\"\r\n        );\r\n        uint256 limit = nftAuctions[_tokenId].nftHighestBid;\r\n        if (limit > nftAuctions[_tokenId].buyNowPrice) {\r\n            if (limit / 10 > 0.01 ether) limit = (limit * 11) / 10;\r\n            else limit += 0.01 ether;\r\n        } else limit = nftAuctions[_tokenId].buyNowPrice;\r\n        require(\r\n            msg.value >= limit,\r\n            \"The ETH amount should be more than 110% of NFT highest bid Price\"\r\n        );\r\n\r\n        address _receiver = nftAuctions[_tokenId].nftHighestBidder;\r\n        if (_receiver == address(0)) {\r\n            _receiver = nftAuctions[_tokenId].nftSeller;\r\n            _marketTransfer(msg.value / 10, _tokenId, _receiver);\r\n        } else\r\n            userFunds[_receiver] +=\r\n                nftAuctions[_tokenId].nftHighestBid -\r\n                nftAuctions[_tokenId].nftHighestBid /\r\n                10 +\r\n                msg.value /\r\n                10;\r\n\r\n        nftAuctions[_tokenId].nftHighestBidder = msg.sender;\r\n        nftAuctions[_tokenId].nftHighestBid = msg.value;\r\n        if (nftAuctions[_tokenId].auctionEnd < block.timestamp + 10 minutes)\r\n            nftAuctions[_tokenId].auctionEnd = block.timestamp + 10 minutes;\r\n\r\n        emit BidCreated(\r\n            _tokenId,\r\n            nftAuctions[_tokenId].nftHighestBid,\r\n            msg.sender,\r\n            nftAuctions[_tokenId].auctionEnd\r\n        );\r\n    }\r\n\r\n    function cancelBid(uint256 _tokenId) public {\r\n        require(\r\n            nftAuctions[_tokenId].nftSeller != address(0),\r\n            \"The auction must exist\"\r\n        );\r\n        require(\r\n            nftAuctions[_tokenId].auctionEnd > block.timestamp,\r\n            \"Auction has ended\"\r\n        );\r\n        require(\r\n            msg.sender == nftAuctions[_tokenId].nftHighestBidder,\r\n            \"Only highest bidder can cancel the bid\"\r\n        );\r\n\r\n        userFunds[msg.sender] =\r\n            nftAuctions[_tokenId].nftHighestBid -\r\n            nftAuctions[_tokenId].nftHighestBid /\r\n            10;\r\n        nftAuctions[_tokenId].nftHighestBidder = address(0);\r\n        nftAuctions[_tokenId].nftHighestBid = 0;\r\n\r\n        emit BidCanceled(_tokenId);\r\n    }\r\n\r\n    function claimFunds() public {\r\n        require(\r\n            userFunds[msg.sender] > 0,\r\n            \"This user has no funds to be claimed\"\r\n        );\r\n        payable(msg.sender).transfer(userFunds[msg.sender]);\r\n        emit ClaimFunds(msg.sender, userFunds[msg.sender]);\r\n        userFunds[msg.sender] = 0;\r\n    }\r\n\r\n    function transferOwnership(address newOwner) public onlyOwner {\r\n        require(newOwner != address(0));\r\n        _owner = newOwner;\r\n    }\r\n\r\n    // Fallback: reverts if Ether is sent to this smart-contract by mistake\r\n    fallback() external {\r\n        revert();\r\n    }\r\n}\r\n",
  "sourcePath": "C:\\Users\\Tiger\\3D Objects\\nft-marketplace\\src\\contracts\\NFTMarketplace.sol",
  "compiler": {
    "name": "solc",
    "version": "0.8.11+commit.d7f03943.Emscripten.clang"
  },
  "schemaVersion": "3.4.3",
  "updatedAt": "2021-12-27T12:01:08.037Z",
  "networkType": "ethereum",
  "devdoc": {
    "kind": "dev",
    "methods": {},
    "version": 1
  },
  "userdoc": {
    "kind": "user",
    "methods": {},
    "version": 1
  }
}